{
  "_format": "hh-sol-artifact-1",
  "contractName": "SocialModule",
  "sourceName": "contracts/modules/SocialModule.sol",
  "abi": [
    {
      "inputs": [
        {
          "internalType": "string",
          "name": "name",
          "type": "string"
        },
        {
          "internalType": "string",
          "name": "version",
          "type": "string"
        },
        {
          "internalType": "address",
          "name": "_platformAddress",
          "type": "address"
        }
      ],
      "stateMutability": "nonpayable",
      "type": "constructor"
    },
    {
      "inputs": [],
      "name": "InvalidShortString",
      "type": "error"
    },
    {
      "inputs": [
        {
          "internalType": "string",
          "name": "str",
          "type": "string"
        }
      ],
      "name": "StringTooLong",
      "type": "error"
    },
    {
      "anonymous": false,
      "inputs": [
        {
          "indexed": true,
          "internalType": "uint256",
          "name": "airdropId",
          "type": "uint256"
        },
        {
          "indexed": true,
          "internalType": "address",
          "name": "claimer",
          "type": "address"
        },
        {
          "indexed": false,
          "internalType": "uint256",
          "name": "amount",
          "type": "uint256"
        }
      ],
      "name": "AirdropClaimed",
      "type": "event"
    },
    {
      "anonymous": false,
      "inputs": [
        {
          "indexed": true,
          "internalType": "uint256",
          "name": "airdropId",
          "type": "uint256"
        },
        {
          "indexed": true,
          "internalType": "address",
          "name": "creator",
          "type": "address"
        },
        {
          "indexed": false,
          "internalType": "string",
          "name": "name",
          "type": "string"
        },
        {
          "indexed": false,
          "internalType": "enum SocialModule.AirdropType",
          "name": "airdropType",
          "type": "uint8"
        },
        {
          "indexed": false,
          "internalType": "address",
          "name": "token",
          "type": "address"
        },
        {
          "indexed": false,
          "internalType": "uint256",
          "name": "totalAmount",
          "type": "uint256"
        }
      ],
      "name": "AirdropCreated",
      "type": "event"
    },
    {
      "anonymous": false,
      "inputs": [
        {
          "indexed": true,
          "internalType": "uint256",
          "name": "communityId",
          "type": "uint256"
        },
        {
          "indexed": true,
          "internalType": "address",
          "name": "creator",
          "type": "address"
        },
        {
          "indexed": false,
          "internalType": "string",
          "name": "name",
          "type": "string"
        }
      ],
      "name": "CommunityCreated",
      "type": "event"
    },
    {
      "anonymous": false,
      "inputs": [
        {
          "indexed": true,
          "internalType": "uint256",
          "name": "communityId",
          "type": "uint256"
        },
        {
          "indexed": true,
          "internalType": "address",
          "name": "member",
          "type": "address"
        }
      ],
      "name": "CommunityJoined",
      "type": "event"
    },
    {
      "anonymous": false,
      "inputs": [],
      "name": "EIP712DomainChanged",
      "type": "event"
    },
    {
      "anonymous": false,
      "inputs": [
        {
          "indexed": true,
          "internalType": "uint256",
          "name": "postId",
          "type": "uint256"
        },
        {
          "indexed": true,
          "internalType": "uint256",
          "name": "communityId",
          "type": "uint256"
        },
        {
          "indexed": true,
          "internalType": "address",
          "name": "author",
          "type": "address"
        },
        {
          "indexed": false,
          "internalType": "string",
          "name": "content",
          "type": "string"
        }
      ],
      "name": "PostCreated",
      "type": "event"
    },
    {
      "anonymous": false,
      "inputs": [
        {
          "indexed": true,
          "internalType": "uint256",
          "name": "postId",
          "type": "uint256"
        },
        {
          "indexed": true,
          "internalType": "address",
          "name": "liker",
          "type": "address"
        }
      ],
      "name": "PostLiked",
      "type": "event"
    },
    {
      "anonymous": false,
      "inputs": [
        {
          "indexed": true,
          "internalType": "bytes32",
          "name": "role",
          "type": "bytes32"
        },
        {
          "indexed": true,
          "internalType": "bytes32",
          "name": "previousAdminRole",
          "type": "bytes32"
        },
        {
          "indexed": true,
          "internalType": "bytes32",
          "name": "newAdminRole",
          "type": "bytes32"
        }
      ],
      "name": "RoleAdminChanged",
      "type": "event"
    },
    {
      "anonymous": false,
      "inputs": [
        {
          "indexed": true,
          "internalType": "bytes32",
          "name": "role",
          "type": "bytes32"
        },
        {
          "indexed": true,
          "internalType": "address",
          "name": "account",
          "type": "address"
        },
        {
          "indexed": true,
          "internalType": "address",
          "name": "sender",
          "type": "address"
        }
      ],
      "name": "RoleGranted",
      "type": "event"
    },
    {
      "anonymous": false,
      "inputs": [
        {
          "indexed": true,
          "internalType": "bytes32",
          "name": "role",
          "type": "bytes32"
        },
        {
          "indexed": true,
          "internalType": "address",
          "name": "account",
          "type": "address"
        },
        {
          "indexed": true,
          "internalType": "address",
          "name": "sender",
          "type": "address"
        }
      ],
      "name": "RoleRevoked",
      "type": "event"
    },
    {
      "anonymous": false,
      "inputs": [
        {
          "indexed": true,
          "internalType": "address",
          "name": "user",
          "type": "address"
        },
        {
          "indexed": false,
          "internalType": "string",
          "name": "farcasterHandle",
          "type": "string"
        },
        {
          "indexed": false,
          "internalType": "string",
          "name": "lensHandle",
          "type": "string"
        },
        {
          "indexed": false,
          "internalType": "uint256",
          "name": "socialScore",
          "type": "uint256"
        }
      ],
      "name": "SocialProfileUpdated",
      "type": "event"
    },
    {
      "anonymous": false,
      "inputs": [
        {
          "indexed": true,
          "internalType": "uint256",
          "name": "questId",
          "type": "uint256"
        },
        {
          "indexed": true,
          "internalType": "address",
          "name": "user",
          "type": "address"
        },
        {
          "indexed": false,
          "internalType": "uint256",
          "name": "reward",
          "type": "uint256"
        }
      ],
      "name": "SocialQuestCompleted",
      "type": "event"
    },
    {
      "anonymous": false,
      "inputs": [
        {
          "indexed": true,
          "internalType": "uint256",
          "name": "questId",
          "type": "uint256"
        },
        {
          "indexed": false,
          "internalType": "string",
          "name": "title",
          "type": "string"
        },
        {
          "indexed": false,
          "internalType": "string",
          "name": "platform",
          "type": "string"
        },
        {
          "indexed": false,
          "internalType": "uint256",
          "name": "reward",
          "type": "uint256"
        }
      ],
      "name": "SocialQuestCreated",
      "type": "event"
    },
    {
      "inputs": [],
      "name": "ADMIN_ROLE",
      "outputs": [
        {
          "internalType": "bytes32",
          "name": "",
          "type": "bytes32"
        }
      ],
      "stateMutability": "view",
      "type": "function"
    },
    {
      "inputs": [],
      "name": "AIRDROP_ROLE",
      "outputs": [
        {
          "internalType": "bytes32",
          "name": "",
          "type": "bytes32"
        }
      ],
      "stateMutability": "view",
      "type": "function"
    },
    {
      "inputs": [],
      "name": "DEFAULT_ADMIN_ROLE",
      "outputs": [
        {
          "internalType": "bytes32",
          "name": "",
          "type": "bytes32"
        }
      ],
      "stateMutability": "view",
      "type": "function"
    },
    {
      "inputs": [],
      "name": "OPERATOR_ROLE",
      "outputs": [
        {
          "internalType": "bytes32",
          "name": "",
          "type": "bytes32"
        }
      ],
      "stateMutability": "view",
      "type": "function"
    },
    {
      "inputs": [
        {
          "internalType": "uint256",
          "name": "airdropId",
          "type": "uint256"
        },
        {
          "internalType": "address[]",
          "name": "users",
          "type": "address[]"
        }
      ],
      "name": "addToAirdropWhitelist",
      "outputs": [],
      "stateMutability": "nonpayable",
      "type": "function"
    },
    {
      "inputs": [
        {
          "internalType": "uint256",
          "name": "",
          "type": "uint256"
        }
      ],
      "name": "airdrops",
      "outputs": [
        {
          "internalType": "uint256",
          "name": "airdropId",
          "type": "uint256"
        },
        {
          "internalType": "string",
          "name": "name",
          "type": "string"
        },
        {
          "internalType": "enum SocialModule.AirdropType",
          "name": "airdropType",
          "type": "uint8"
        },
        {
          "internalType": "address",
          "name": "token",
          "type": "address"
        },
        {
          "internalType": "uint256",
          "name": "tokenId",
          "type": "uint256"
        },
        {
          "internalType": "uint256",
          "name": "totalAmount",
          "type": "uint256"
        },
        {
          "internalType": "uint256",
          "name": "amountPerClaim",
          "type": "uint256"
        },
        {
          "internalType": "uint256",
          "name": "maxClaims",
          "type": "uint256"
        },
        {
          "internalType": "uint256",
          "name": "currentClaims",
          "type": "uint256"
        },
        {
          "internalType": "enum SocialModule.AirdropStatus",
          "name": "status",
          "type": "uint8"
        },
        {
          "internalType": "uint256",
          "name": "startTime",
          "type": "uint256"
        },
        {
          "internalType": "uint256",
          "name": "endTime",
          "type": "uint256"
        },
        {
          "internalType": "address",
          "name": "creator",
          "type": "address"
        },
        {
          "internalType": "bool",
          "name": "requireSocialVerification",
          "type": "bool"
        }
      ],
      "stateMutability": "view",
      "type": "function"
    },
    {
      "inputs": [
        {
          "internalType": "uint256",
          "name": "farcasterFollowers",
          "type": "uint256"
        },
        {
          "internalType": "uint256",
          "name": "lensFollowers",
          "type": "uint256"
        },
        {
          "internalType": "uint256",
          "name": "twitterFollowers",
          "type": "uint256"
        }
      ],
      "name": "calculateSocialScore",
      "outputs": [
        {
          "internalType": "uint256",
          "name": "",
          "type": "uint256"
        }
      ],
      "stateMutability": "pure",
      "type": "function"
    },
    {
      "inputs": [
        {
          "internalType": "uint256",
          "name": "airdropId",
          "type": "uint256"
        }
      ],
      "name": "claimAirdrop",
      "outputs": [],
      "stateMutability": "nonpayable",
      "type": "function"
    },
    {
      "inputs": [
        {
          "internalType": "uint256",
          "name": "",
          "type": "uint256"
        }
      ],
      "name": "communities",
      "outputs": [
        {
          "internalType": "uint256",
          "name": "communityId",
          "type": "uint256"
        },
        {
          "internalType": "string",
          "name": "name",
          "type": "string"
        },
        {
          "internalType": "string",
          "name": "description",
          "type": "string"
        },
        {
          "internalType": "address",
          "name": "creator",
          "type": "address"
        },
        {
          "internalType": "address",
          "name": "membershipToken",
          "type": "address"
        },
        {
          "internalType": "uint256",
          "name": "minTokenBalance",
          "type": "uint256"
        },
        {
          "internalType": "uint256",
          "name": "memberCount",
          "type": "uint256"
        },
        {
          "internalType": "bool",
          "name": "public_",
          "type": "bool"
        },
        {
          "internalType": "bool",
          "name": "active",
          "type": "bool"
        }
      ],
      "stateMutability": "view",
      "type": "function"
    },
    {
      "inputs": [
        {
          "internalType": "uint256",
          "name": "questId",
          "type": "uint256"
        }
      ],
      "name": "completeSocialQuest",
      "outputs": [],
      "stateMutability": "nonpayable",
      "type": "function"
    },
    {
      "inputs": [
        {
          "internalType": "string",
          "name": "name",
          "type": "string"
        },
        {
          "internalType": "enum SocialModule.AirdropType",
          "name": "airdropType",
          "type": "uint8"
        },
        {
          "internalType": "address",
          "name": "token",
          "type": "address"
        },
        {
          "internalType": "uint256",
          "name": "tokenId",
          "type": "uint256"
        },
        {
          "internalType": "uint256",
          "name": "totalAmount",
          "type": "uint256"
        },
        {
          "internalType": "uint256",
          "name": "amountPerClaim",
          "type": "uint256"
        },
        {
          "internalType": "uint256",
          "name": "duration",
          "type": "uint256"
        },
        {
          "internalType": "bool",
          "name": "requireSocialVerification",
          "type": "bool"
        }
      ],
      "name": "createAirdrop",
      "outputs": [
        {
          "internalType": "uint256",
          "name": "",
          "type": "uint256"
        }
      ],
      "stateMutability": "payable",
      "type": "function"
    },
    {
      "inputs": [
        {
          "internalType": "string",
          "name": "name",
          "type": "string"
        },
        {
          "internalType": "string",
          "name": "description",
          "type": "string"
        },
        {
          "internalType": "address",
          "name": "membershipToken",
          "type": "address"
        },
        {
          "internalType": "uint256",
          "name": "minTokenBalance",
          "type": "uint256"
        },
        {
          "internalType": "bool",
          "name": "public_",
          "type": "bool"
        }
      ],
      "name": "createCommunity",
      "outputs": [
        {
          "internalType": "uint256",
          "name": "",
          "type": "uint256"
        }
      ],
      "stateMutability": "nonpayable",
      "type": "function"
    },
    {
      "inputs": [
        {
          "internalType": "uint256",
          "name": "communityId",
          "type": "uint256"
        },
        {
          "internalType": "string",
          "name": "content",
          "type": "string"
        },
        {
          "internalType": "string",
          "name": "mediaUri",
          "type": "string"
        }
      ],
      "name": "createPost",
      "outputs": [
        {
          "internalType": "uint256",
          "name": "",
          "type": "uint256"
        }
      ],
      "stateMutability": "nonpayable",
      "type": "function"
    },
    {
      "inputs": [
        {
          "internalType": "string",
          "name": "title",
          "type": "string"
        },
        {
          "internalType": "string",
          "name": "description",
          "type": "string"
        },
        {
          "internalType": "uint256",
          "name": "reward",
          "type": "uint256"
        },
        {
          "internalType": "address",
          "name": "rewardToken",
          "type": "address"
        },
        {
          "internalType": "uint256",
          "name": "rewardTokenId",
          "type": "uint256"
        },
        {
          "internalType": "string",
          "name": "requiredAction",
          "type": "string"
        },
        {
          "internalType": "string",
          "name": "platform",
          "type": "string"
        },
        {
          "internalType": "uint256",
          "name": "minFollowers",
          "type": "uint256"
        },
        {
          "internalType": "uint256",
          "name": "duration",
          "type": "uint256"
        },
        {
          "internalType": "uint256",
          "name": "maxParticipants",
          "type": "uint256"
        }
      ],
      "name": "createSocialQuest",
      "outputs": [
        {
          "internalType": "uint256",
          "name": "",
          "type": "uint256"
        }
      ],
      "stateMutability": "payable",
      "type": "function"
    },
    {
      "inputs": [],
      "name": "depositETH",
      "outputs": [],
      "stateMutability": "payable",
      "type": "function"
    },
    {
      "inputs": [],
      "name": "eip712Domain",
      "outputs": [
        {
          "internalType": "bytes1",
          "name": "fields",
          "type": "bytes1"
        },
        {
          "internalType": "string",
          "name": "name",
          "type": "string"
        },
        {
          "internalType": "string",
          "name": "version",
          "type": "string"
        },
        {
          "internalType": "uint256",
          "name": "chainId",
          "type": "uint256"
        },
        {
          "internalType": "address",
          "name": "verifyingContract",
          "type": "address"
        },
        {
          "internalType": "bytes32",
          "name": "salt",
          "type": "bytes32"
        },
        {
          "internalType": "uint256[]",
          "name": "extensions",
          "type": "uint256[]"
        }
      ],
      "stateMutability": "view",
      "type": "function"
    },
    {
      "inputs": [
        {
          "internalType": "uint256",
          "name": "airdropId",
          "type": "uint256"
        }
      ],
      "name": "getAirdropInfo",
      "outputs": [
        {
          "internalType": "string",
          "name": "name",
          "type": "string"
        },
        {
          "internalType": "enum SocialModule.AirdropType",
          "name": "airdropType",
          "type": "uint8"
        },
        {
          "internalType": "address",
          "name": "token",
          "type": "address"
        },
        {
          "internalType": "uint256",
          "name": "totalAmount",
          "type": "uint256"
        },
        {
          "internalType": "uint256",
          "name": "amountPerClaim",
          "type": "uint256"
        },
        {
          "internalType": "uint256",
          "name": "currentClaims",
          "type": "uint256"
        },
        {
          "internalType": "uint256",
          "name": "maxClaims",
          "type": "uint256"
        },
        {
          "internalType": "enum SocialModule.AirdropStatus",
          "name": "status",
          "type": "uint8"
        },
        {
          "internalType": "uint256",
          "name": "startTime",
          "type": "uint256"
        },
        {
          "internalType": "uint256",
          "name": "endTime",
          "type": "uint256"
        }
      ],
      "stateMutability": "view",
      "type": "function"
    },
    {
      "inputs": [
        {
          "internalType": "uint256",
          "name": "communityId",
          "type": "uint256"
        }
      ],
      "name": "getCommunityInfo",
      "outputs": [
        {
          "internalType": "string",
          "name": "name",
          "type": "string"
        },
        {
          "internalType": "string",
          "name": "description",
          "type": "string"
        },
        {
          "internalType": "address",
          "name": "creator",
          "type": "address"
        },
        {
          "internalType": "uint256",
          "name": "memberCount",
          "type": "uint256"
        },
        {
          "internalType": "bool",
          "name": "public_",
          "type": "bool"
        },
        {
          "internalType": "bool",
          "name": "active",
          "type": "bool"
        }
      ],
      "stateMutability": "view",
      "type": "function"
    },
    {
      "inputs": [
        {
          "internalType": "uint256",
          "name": "postId",
          "type": "uint256"
        }
      ],
      "name": "getPostInfo",
      "outputs": [
        {
          "internalType": "uint256",
          "name": "communityId",
          "type": "uint256"
        },
        {
          "internalType": "address",
          "name": "author",
          "type": "address"
        },
        {
          "internalType": "string",
          "name": "content",
          "type": "string"
        },
        {
          "internalType": "string",
          "name": "mediaUri",
          "type": "string"
        },
        {
          "internalType": "uint256",
          "name": "timestamp",
          "type": "uint256"
        },
        {
          "internalType": "uint256",
          "name": "likes",
          "type": "uint256"
        },
        {
          "internalType": "uint256",
          "name": "replies",
          "type": "uint256"
        }
      ],
      "stateMutability": "view",
      "type": "function"
    },
    {
      "inputs": [
        {
          "internalType": "bytes32",
          "name": "role",
          "type": "bytes32"
        }
      ],
      "name": "getRoleAdmin",
      "outputs": [
        {
          "internalType": "bytes32",
          "name": "",
          "type": "bytes32"
        }
      ],
      "stateMutability": "view",
      "type": "function"
    },
    {
      "inputs": [
        {
          "internalType": "bytes32",
          "name": "role",
          "type": "bytes32"
        },
        {
          "internalType": "address",
          "name": "account",
          "type": "address"
        }
      ],
      "name": "grantRole",
      "outputs": [],
      "stateMutability": "nonpayable",
      "type": "function"
    },
    {
      "inputs": [
        {
          "internalType": "uint256",
          "name": "airdropId",
          "type": "uint256"
        },
        {
          "internalType": "address",
          "name": "user",
          "type": "address"
        }
      ],
      "name": "hasClaimedAirdrop",
      "outputs": [
        {
          "internalType": "bool",
          "name": "",
          "type": "bool"
        }
      ],
      "stateMutability": "view",
      "type": "function"
    },
    {
      "inputs": [
        {
          "internalType": "bytes32",
          "name": "role",
          "type": "bytes32"
        },
        {
          "internalType": "address",
          "name": "account",
          "type": "address"
        }
      ],
      "name": "hasRole",
      "outputs": [
        {
          "internalType": "bool",
          "name": "",
          "type": "bool"
        }
      ],
      "stateMutability": "view",
      "type": "function"
    },
    {
      "inputs": [
        {
          "internalType": "uint256",
          "name": "communityId",
          "type": "uint256"
        },
        {
          "internalType": "address",
          "name": "user",
          "type": "address"
        }
      ],
      "name": "isCommunityMember",
      "outputs": [
        {
          "internalType": "bool",
          "name": "",
          "type": "bool"
        }
      ],
      "stateMutability": "view",
      "type": "function"
    },
    {
      "inputs": [
        {
          "internalType": "uint256",
          "name": "communityId",
          "type": "uint256"
        }
      ],
      "name": "joinCommunity",
      "outputs": [],
      "stateMutability": "nonpayable",
      "type": "function"
    },
    {
      "inputs": [
        {
          "internalType": "uint256",
          "name": "postId",
          "type": "uint256"
        }
      ],
      "name": "likePost",
      "outputs": [],
      "stateMutability": "nonpayable",
      "type": "function"
    },
    {
      "inputs": [],
      "name": "nextAirdropId",
      "outputs": [
        {
          "internalType": "uint256",
          "name": "",
          "type": "uint256"
        }
      ],
      "stateMutability": "view",
      "type": "function"
    },
    {
      "inputs": [],
      "name": "nextCommunityId",
      "outputs": [
        {
          "internalType": "uint256",
          "name": "",
          "type": "uint256"
        }
      ],
      "stateMutability": "view",
      "type": "function"
    },
    {
      "inputs": [],
      "name": "nextPostId",
      "outputs": [
        {
          "internalType": "uint256",
          "name": "",
          "type": "uint256"
        }
      ],
      "stateMutability": "view",
      "type": "function"
    },
    {
      "inputs": [],
      "name": "nextQuestId",
      "outputs": [
        {
          "internalType": "uint256",
          "name": "",
          "type": "uint256"
        }
      ],
      "stateMutability": "view",
      "type": "function"
    },
    {
      "inputs": [
        {
          "internalType": "address",
          "name": "",
          "type": "address"
        },
        {
          "internalType": "address",
          "name": "",
          "type": "address"
        },
        {
          "internalType": "uint256",
          "name": "",
          "type": "uint256"
        },
        {
          "internalType": "uint256",
          "name": "",
          "type": "uint256"
        },
        {
          "internalType": "bytes",
          "name": "",
          "type": "bytes"
        }
      ],
      "name": "onERC1155Received",
      "outputs": [
        {
          "internalType": "bytes4",
          "name": "",
          "type": "bytes4"
        }
      ],
      "stateMutability": "nonpayable",
      "type": "function"
    },
    {
      "inputs": [],
      "name": "platformAddress",
      "outputs": [
        {
          "internalType": "address",
          "name": "",
          "type": "address"
        }
      ],
      "stateMutability": "view",
      "type": "function"
    },
    {
      "inputs": [
        {
          "internalType": "uint256",
          "name": "",
          "type": "uint256"
        }
      ],
      "name": "posts",
      "outputs": [
        {
          "internalType": "uint256",
          "name": "postId",
          "type": "uint256"
        },
        {
          "internalType": "uint256",
          "name": "communityId",
          "type": "uint256"
        },
        {
          "internalType": "address",
          "name": "author",
          "type": "address"
        },
        {
          "internalType": "string",
          "name": "content",
          "type": "string"
        },
        {
          "internalType": "string",
          "name": "mediaUri",
          "type": "string"
        },
        {
          "internalType": "uint256",
          "name": "timestamp",
          "type": "uint256"
        },
        {
          "internalType": "uint256",
          "name": "likes",
          "type": "uint256"
        },
        {
          "internalType": "uint256",
          "name": "replies",
          "type": "uint256"
        },
        {
          "internalType": "bool",
          "name": "pinned",
          "type": "bool"
        }
      ],
      "stateMutability": "view",
      "type": "function"
    },
    {
      "inputs": [
        {
          "internalType": "bytes32",
          "name": "role",
          "type": "bytes32"
        },
        {
          "internalType": "address",
          "name": "account",
          "type": "address"
        }
      ],
      "name": "renounceRole",
      "outputs": [],
      "stateMutability": "nonpayable",
      "type": "function"
    },
    {
      "inputs": [
        {
          "internalType": "bytes32",
          "name": "role",
          "type": "bytes32"
        },
        {
          "internalType": "address",
          "name": "account",
          "type": "address"
        }
      ],
      "name": "revokeRole",
      "outputs": [],
      "stateMutability": "nonpayable",
      "type": "function"
    },
    {
      "inputs": [
        {
          "internalType": "address",
          "name": "verifier",
          "type": "address"
        },
        {
          "internalType": "bool",
          "name": "authorized",
          "type": "bool"
        }
      ],
      "name": "setSocialVerifier",
      "outputs": [],
      "stateMutability": "nonpayable",
      "type": "function"
    },
    {
      "inputs": [
        {
          "internalType": "address",
          "name": "",
          "type": "address"
        }
      ],
      "name": "socialProfiles",
      "outputs": [
        {
          "internalType": "string",
          "name": "farcasterHandle",
          "type": "string"
        },
        {
          "internalType": "string",
          "name": "lensHandle",
          "type": "string"
        },
        {
          "internalType": "string",
          "name": "twitterHandle",
          "type": "string"
        },
        {
          "internalType": "uint256",
          "name": "farcasterFollowers",
          "type": "uint256"
        },
        {
          "internalType": "uint256",
          "name": "lensFollowers",
          "type": "uint256"
        },
        {
          "internalType": "uint256",
          "name": "twitterFollowers",
          "type": "uint256"
        },
        {
          "internalType": "bool",
          "name": "verified",
          "type": "bool"
        },
        {
          "internalType": "uint256",
          "name": "socialScore",
          "type": "uint256"
        },
        {
          "internalType": "uint256",
          "name": "lastUpdated",
          "type": "uint256"
        }
      ],
      "stateMutability": "view",
      "type": "function"
    },
    {
      "inputs": [
        {
          "internalType": "uint256",
          "name": "",
          "type": "uint256"
        }
      ],
      "name": "socialQuests",
      "outputs": [
        {
          "internalType": "uint256",
          "name": "questId",
          "type": "uint256"
        },
        {
          "internalType": "string",
          "name": "title",
          "type": "string"
        },
        {
          "internalType": "string",
          "name": "description",
          "type": "string"
        },
        {
          "internalType": "uint256",
          "name": "reward",
          "type": "uint256"
        },
        {
          "internalType": "address",
          "name": "rewardToken",
          "type": "address"
        },
        {
          "internalType": "uint256",
          "name": "rewardTokenId",
          "type": "uint256"
        },
        {
          "internalType": "string",
          "name": "requiredAction",
          "type": "string"
        },
        {
          "internalType": "string",
          "name": "platform",
          "type": "string"
        },
        {
          "internalType": "uint256",
          "name": "minFollowers",
          "type": "uint256"
        },
        {
          "internalType": "uint256",
          "name": "duration",
          "type": "uint256"
        },
        {
          "internalType": "uint256",
          "name": "maxParticipants",
          "type": "uint256"
        },
        {
          "internalType": "uint256",
          "name": "currentParticipants",
          "type": "uint256"
        },
        {
          "internalType": "bool",
          "name": "active",
          "type": "bool"
        }
      ],
      "stateMutability": "view",
      "type": "function"
    },
    {
      "inputs": [
        {
          "internalType": "address",
          "name": "",
          "type": "address"
        }
      ],
      "name": "socialVerifiers",
      "outputs": [
        {
          "internalType": "bool",
          "name": "",
          "type": "bool"
        }
      ],
      "stateMutability": "view",
      "type": "function"
    },
    {
      "inputs": [
        {
          "internalType": "bytes4",
          "name": "interfaceId",
          "type": "bytes4"
        }
      ],
      "name": "supportsInterface",
      "outputs": [
        {
          "internalType": "bool",
          "name": "",
          "type": "bool"
        }
      ],
      "stateMutability": "view",
      "type": "function"
    },
    {
      "inputs": [
        {
          "internalType": "string",
          "name": "farcasterHandle",
          "type": "string"
        },
        {
          "internalType": "string",
          "name": "lensHandle",
          "type": "string"
        },
        {
          "internalType": "string",
          "name": "twitterHandle",
          "type": "string"
        },
        {
          "internalType": "uint256",
          "name": "farcasterFollowers",
          "type": "uint256"
        },
        {
          "internalType": "uint256",
          "name": "lensFollowers",
          "type": "uint256"
        },
        {
          "internalType": "uint256",
          "name": "twitterFollowers",
          "type": "uint256"
        }
      ],
      "name": "updateSocialProfile",
      "outputs": [],
      "stateMutability": "nonpayable",
      "type": "function"
    },
    {
      "inputs": [
        {
          "internalType": "address",
          "name": "user",
          "type": "address"
        },
        {
          "internalType": "bool",
          "name": "verified",
          "type": "bool"
        }
      ],
      "name": "verifySocialProfile",
      "outputs": [],
      "stateMutability": "nonpayable",
      "type": "function"
    }
  ],
  "bytecode": "0x610160604081815234620003ab57620047398038038091620000228286620003b0565b84398201606083820312620003ab5782516001600160401b039290838111620003ab578262000053918601620003f9565b9160209081860151858111620003ab57839162000072918801620003f9565b9501516001600160a01b0381169190829003620003ab576001808055620000998562000454565b95610120968752620000ab8862000612565b95610140968752838151910120978860e05283815191012061010098818a524660a052865191858301917f8b73c3c69bb8fe3d512ecc4cf759cc79239f7b179b0ffacaa9a75d522b39400f83528884015260608301524660808301523060a083015260a0825260c0820192828410908411176200039557828752815190206080523060c0528260095582600a5582600b5582600c55841562000353575050600090818052818352848220338352835260ff8583205416156200031c575b7fa49807205ce4d355092ef5a8a18f56e8913cf4a201fbe287825b095693c21775808352828452858320338452845260ff868420541615620002e3575b507f97667070c54ef182b0f5858b034beac1b6f3089aa2d3188bb1e8929f4fa9b929808352828452858320338452845260ff868420541615620002aa575b507f3a2f235c9daaf33349d300aadff2f15078a89df81bcfdd45ba11c8f816bddc6f92838352828152858320338452815260ff8684205416156200026f575b5050505060018060a01b0319600d541617600d555191613fb2938462000767853960805184505060a05184505060c05184505060e051845050518350505182611b9501525181611bbf0152f35b83835282815285832090338452528482209060ff19825416179055339160008051602062004719833981519152339280a43880808062000222565b80835282845285832033845284528583208260ff1982541617905533903390600080516020620047198339815191528580a438620001e3565b80835282845285832033845284528583208260ff1982541617905533903390600080516020620047198339815191528580a438620001a5565b81805281835284822033835283528482208160ff19825416179055333383600080516020620047198339815191528180a462000168565b907f496e76616c696420706c6174666f726d206164647265737300000000000000006101046064938662461bcd60e51b855260c4820152601860e48201520152fd5b634e487b7160e01b600052604160045260246000fd5b600080fd5b601f909101601f19168101906001600160401b038211908210176200039557604052565b60005b838110620003e85750506000910152565b8181015183820152602001620003d7565b81601f82011215620003ab5780516001600160401b03811162000395576040519262000430601f8301601f191660200185620003b0565b81845260208284010111620003ab57620004519160208085019101620003d4565b90565b805160209081811015620004d25750601f8251116200049057808251920151908083106200048157501790565b82600019910360031b1b161790565b604490620004c49260405193849263305a27a960e01b845280600485015282519283918260248701528686019101620003d4565b601f01601f19168101030190fd5b906001600160401b0382116200039557600254926001938481811c9116801562000607575b83821014620005f157601f8111620005b7575b5081601f84116001146200054b57509282939183926000946200053f575b50501b916000199060031b1c19161760025560ff90565b01519250388062000528565b919083601f198116600260005284600020946000905b888383106200059c575050501062000582575b505050811b0160025560ff90565b015160001960f88460031b161c1916905538808062000574565b85870151885590960195948501948793509081019062000561565b600260005284601f84600020920160051c820191601f860160051c015b828110620005e45750506200050a565b60008155018590620005d4565b634e487b7160e01b600052602260045260246000fd5b90607f1690620004f7565b8051602091908281101562000641575090601f8251116200049057808251920151908083106200048157501790565b6001600160401b03811162000395576003928354926001938481811c911680156200075b575b83821014620005f157601f811162000722575b5081601f8411600114620006b95750928293918392600094620006ad575b50501b9160001990841b1c191617905560ff90565b01519250388062000698565b919083601f1981168760005284600020946000905b88838310620007075750505010620006ee575b505050811b01905560ff90565b015160001983861b60f8161c19169055388080620006e1565b858701518855909601959485019487935090810190620006ce565b8560005284601f84600020920160051c820191601f860160051c015b8281106200074e5750506200067a565b600081550185906200073e565b90607f16906200066756fe6080604052600436101561001257600080fd5b600060e08135811c908162ddd8b2146130f157816301ffc9a71461309a57816306055b841461307c5781630b0d4a7c14612f8f5781630b1e7f8314612ed25781631ddd7fc014612ea55781631e0fbfa214612e6a578163248a9ca314612e3e5781632f2ff15d14612d9057816336568abe14612cfd5781633822f0ef14612bc45781634e9b4739146128645781635c09bd981461284657816360db50821461274c578163662892401461270d57816368c8e4f41461225157816370e075a814611e58578163725009d314611d5e57816375b238fc14611d23578163765aec6d14611c8557816384b0196e14611b7f57816391d1485414611b34578163a217fddf14611b18578163aff38dc814611afa578163b122a0ef14611953578163cb33fad11461188b578163ced652801461183c578163d547741f146117ff578163d638c983146117e1578163da18cb9d146115a0578163dbe55e5614611577578163e30d44401461110c578163e590b56a14611057578163e7b4e9e114610f3d578163e95a390514610eee578163eba1e3b314610e4b578163ed32eeb514610b72578163f23a6e6114610ac5578163f5b541a614610a8a578163f6326fb314610a7b578163f75d1446146109a3575063fd3090cb146101ed57600080fd5b6101403660031901126109a0576004356001600160401b03811161099c5761021990369060040161351f565b6024356001600160401b0381116109985761023890369060040161351f565b929091606435916001600160a01b03831683036109935760a4356001600160401b03811161098f5761026e90369060040161351f565b60c4959195356001600160401b03811161098b5761029090369060040161351f565b96909561029b613db5565b60443515610955576102b1610104351515613c68565b610124351561091057600a54986102c78a613ca7565b600a5560443561012435604435020461012435036108fa576001600160a01b03821661086c576103006101243560443502341015613d50565b898b52600660205260408b20948a86556001600160401b03881161079c5761032b600187015461359d565b601f8111610825575b50878c601f82116001146107bb578d916107b0575b508860011b906000198a60031b1c19161760018701555b6001600160401b03821161079c57819061037d600288015461359d565b601f811161074a575b508c90601f83116001146106de578d926106d3575b50508160011b916000199060031b1c19161760028501555b60443560038501556004840180546001600160a01b0319166001600160a01b0390921691909117905560843560058401556001600160401b0382116106bf578190610401600685015461359d565b601f811161066f575b508990601f8311600114610603578a926105f8575b50508160011b916000199060031b1c19161760068201555b6001600160401b0385116105e45760078101610453815461359d565b601f811161059f575b509086949392918860209990601f891160011461050b579288927f1ac7533cccb8cf423690097e94128b3f0a828d54882c4f69c10e3b83927d074e9899600c936104f1979691610500575b508460011b906000198660031b1c19161790555b60e435600882015561010435600982015561012435600a82015501805460ff191660011790556040519485946044359386613e57565b0390a260018055604051908152f35b9050880135386104a7565b979291908189528a8920985b601f1985168110610585575091600c917f1ac7533cccb8cf423690097e94128b3f0a828d54882c4f69c10e3b83927d074e989985946104f19796601f1981161061056b575b5050600184811b0190556104bb565b890135600019600387901b60f8161c19169055388061055c565b878201358a556001909901988a9850908b01908b01610517565b81895260208920601f880160051c810191602089106105da575b601f0160051c01905b8181106105cf575061045c565b8981556001016105c2565b90915081906105b9565b634e487b7160e01b87526041600452602487fd5b01359050388061041f565b600685018b5260208b208b9450915b601f1984168510610657576001945083601f1981161061063d575b505050811b016006820155610437565b0135600019600384901b60f8161c1916905538808061062d565b81810135835560209485019460019093019201610612565b909150600684018a5260208a20601f840160051c8101602085106106b8575b90849392915b601f830160051c820181106106aa57505061040a565b8c8155859450600101610694565b508061068e565b634e487b7160e01b89526041600452602489fd5b01359050388061039b565b600288018e5260208e208e9450915b601f1984168510610732576001945083601f19811610610718575b505050811b0160028501556103b3565b0135600019600384901b60f8161c19169055388080610708565b818101358355602094850194600190930192016106ed565b909150600287018d5260208d20601f840160051c810160208510610795575b84939291908f5b601f840160051c8301821061078757505050610386565b81558594506001018f610770565b5080610769565b634e487b7160e01b8c52604160045260248cfd5b905087013538610349565b600188018e5260208e2091508d5b601f198b16811061080d575089601f198116106107f3575b5050600188811b016001870155610360565b88013560001960038b901b60f8161c1916905538806107e1565b9091602060018192858d0135815501930191016107c9565b600187018d5260208d20601f8a0160051c810160208b10610865575b8e5b601f840160051c8301821061085a57505050610334565b81556001018e610843565b5080610841565b6040516323b872dd60e01b8152336004820152306024820152604480356101243502908201526020816064818f6001600160a01b0388165af180156108ef576108bc918d916108c1575b50613d12565b610300565b6108e2915060203d81116108e8575b6108da8183613620565b810190613cfa565b386108b6565b503d6108d0565b6040513d8e823e3d90fd5b634e487b7160e01b600052601160045260246000fd5b60405162461bcd60e51b815260206004820152601860248201527f496e76616c6964206d6178207061727469636970616e747300000000000000006044820152606490fd5b60405162461bcd60e51b815260206004820152600e60248201526d125b9d985b1a59081c995dd85c9960921b6044820152606490fd5b8880fd5b8680fd5b600080fd5b8380fd5b5080fd5b80fd5b90503461099c57602036600319011261099c57610a3b916040906001600160a01b036109cd61354c565b168152600560205220906109e082613641565b916109ed60018201613641565b906109fa60028201613641565b926003820154936004830154600584015490610a5760ff60068701541693610a4960086007890154980154986040519c8d9c8d61012090818152019061370a565b8c810360208e01529061370a565b908a820360408c015261370a565b966060890152608088015260a0870152151560c08601528401526101008301520390f35b82806003193601126109a05780f35b82346109a057806003193601126109a05760206040517f97667070c54ef182b0f5858b034beac1b6f3089aa2d3188bb1e8929f4fa9b9298152f35b82346109a05760a03660031901126109a057610adf61354c565b50610ae8613562565b506084356001600160401b03808211610b6e5736602383011215610b6e578160040135908111610b5857604051610b29601f8301601f191660200182613620565b818152366024838501011161099857816024602094018483013701015260405163f23a6e6160e01b8152602090f35b634e487b7160e01b600052604160045260246000fd5b8280fd5b82346109a05760208060031936011261099c57600435610b90613db5565b8083526006825260408320600c810160ff81541615610e1357600d8201913360005282855260ff60406000205416610dda57600b810191825493600a83019485541115610da85733885260058752610c1360408920610bf560ff600683015416613e0b565b6005610c0a6003830154600484015490613986565b91015490613986565b600884015411610d6a57336000528652604060002060ff1990600182825416179055610c3f8454613ca7565b84556004830154889088906001600160a01b031680610cd75750508080806003870154818115610cce575b3390f115610cc3577fcede5d7ea191396187f7ee9ea551ac6451136c3aea057947722e09881830817b946003945b5490541115610cb7575b50500154926040519384523393a36001805580f35b81541690558680610ca2565b6040513d89823e3d90fd5b506108fc610c6a565b600386015460405163a9059cbb60e01b815233600482015260248101919091529792889160449183915af1948515610d5f57610d3d6003967fcede5d7ea191396187f7ee9ea551ac6451136c3aea057947722e09881830817b988c91610d425750613d12565b610c98565b610d5991508b3d8d116108e8576108da8183613620565b8c6108b6565b6040513d8b823e3d90fd5b60405162461bcd60e51b8152600481018890526016602482015275496e73756666696369656e7420666f6c6c6f7765727360501b6044820152606490fd5b60405162461bcd60e51b815260048101889052600a602482015269145d595cdd08199d5b1b60b21b6044820152606490fd5b60405162461bcd60e51b8152600481018690526011602482015270105b1c9958591e4818dbdb5c1b195d1959607a1b6044820152606490fd5b60405162461bcd60e51b815260048101859052601060248201526f5175657374206e6f742061637469766560801b6044820152606490fd5b82346109a05760203660031901126109a05760409060043581526008602052209060018201549060018060a01b0360028401541692600581015491610eda600683015491610ecc600785015494610eb06004610ea960038401613641565b9201613641565b92604051998a998a5260208a01528060408a015288019061370a565b90868203606088015261370a565b92608085015260a084015260c08301520390f35b82346109a05760403660031901126109a05760086040610f0c613562565b926004358152600760205220019060018060a01b0316600052602052602060ff604060002054166040519015158152f35b82346109a05760203660031901126109a057600435815260066020526040902080549091610f6d60018401613641565b92610f7a60028201613641565b90600381015492600160a01b600190036004830154169060058301549060068401610fa490613641565b90610fb160078601613641565b91600886015497600987015494600a88015496600b89015498600c015460ff16996040519d8e9d8e528d6101a09081602082015201610fef9161370a565b8d810360408f01526110009161370a565b9260608d015260808c015260a08b015289810360c08b01526110219161370a565b90888203908901526110329161370a565b9461010087015261012086015261014085015261016084015215156101808301520390f35b82346109a05760203660031901126109a057604090600435815260076020522080549060ff61108860018301613641565b9361109560028401613641565b9060018060a01b039384600382015416946004820154166005820154906110de6007600685015494015495610a496040519b8c9b8c5260208c61012091829101528c019061370a565b966060890152608088015260a087015260c086015282821615159085015260081c1615156101008301520390f35b82346109a05760208060031936011261099c5760043561112a613db5565b80835260048252604083206008810160ff81541660048110156115635761152957600982015442106114ee57600a82015442116114b757600c8201913360005282855260ff604060002054166114805760078101918254936006830194855411156114465760ff600b84015460a01c166113d0575b336000528652604060002060ff19906001828254161790556111c18454613ca7565b845560028301805460ff811660038110156113bc579189918360028d951460001461125e57505050508080806005870154818115611255575b3390f115610cc3577f752d3a5de250652e9111e24fea2886c837dadfe50c8479ad3b5511f4c36f20a2946005945b54905411156112465750500154926040519384523393a36001805580f35b81541660021790558680610ca2565b506108fc6111fa565b939893806112df57505054600586015460405163a9059cbb60e01b81523360048201526024810191909152978891604491839160081c6001600160a01b03165af1948515610d5f576112da6005967f752d3a5de250652e9111e24fea2886c837dadfe50c8479ad3b5511f4c36f20a2988c91610d425750613d12565b611228565b90925060019150979297969394959614611323575b5050907f752d3a5de250652e9111e24fea2886c837dadfe50c8479ad3b5511f4c36f20a2946005949392611228565b6003860154600587015460089290921c6001600160a01b031691823b1561099857604051637921219560e11b81523060048201523360248201526044810192909252606482015260a06084820152600060a4820152908290829060c490829084905af180156113b157156112f45761139f9095949392956135d7565b6113ad5790919287896112f4565b8780fd5b6040513d84823e3d90fd5b634e487b7160e01b8b52602160045260248bfd5b338852600587526113ea60ff600660408b20015416613e0b565b338852600587526064600760408a200154101561119f5760405162461bcd60e51b815260048101889052601960248201527f496e73756666696369656e7420736f6369616c2073636f7265000000000000006044820152606490fd5b60405162461bcd60e51b8152600481018890526012602482015271105b1b081d1bdad95b9cc818db185a5b595960721b6044820152606490fd5b60405162461bcd60e51b815260048101869052600f60248201526e105b1c9958591e4818db185a5b5959608a1b6044820152606490fd5b60405162461bcd60e51b815260048101859052600f60248201526e105a5c991c9bdc08195e1c1a5c9959608a1b6044820152606490fd5b60405162461bcd60e51b8152600481018590526013602482015272105a5c991c9bdc081b9bdd081cdd185c9d1959606a1b6044820152606490fd5b60405162461bcd60e51b815260048101859052601260248201527141697264726f70206e6f742061637469766560701b6044820152606490fd5b634e487b7160e01b86526021600452602486fd5b82346109a057806003193601126109a057600d546040516001600160a01b039091168152602090f35b82346109a05760403660031901126109a0576115ba61354c565b6115c261358e565b3360009081527f7d7ffb7a348e1c6a02869081a26547b49160dd3df72d1d75a570eb9b698292ec6020908152604090912054919290917fa49807205ce4d355092ef5a8a18f56e8913cf4a201fbe287825b095693c217759060ff161561165157506001600160a01b03168352600e905260408220805491151560ff1660ff199290921691909117905580f35b80f35b8261165b336139a4565b9160405161166881613605565b604281528281019160603684378151156117cb576030835381516001908110156117cb57607860218401536041905b808211611787575050611744576117109361171f9260489260405196879376020b1b1b2b9b9a1b7b73a3937b61d1030b1b1b7bab73a1604d1b888601526116e7815180928a6037890191016136e7565b8401917001034b99036b4b9b9b4b733903937b6329607d1b6037840152518093868401906136e7565b01036028810185520183613620565b61174060405192839262461bcd60e51b84526004840152602483019061370a565b0390fd5b6064836040519062461bcd60e51b825280600483015260248201527f537472696e67733a20686578206c656e67746820696e73756666696369656e746044820152fd5b9091600f811660108110156117cb576f181899199a1a9b1b9c1cb0b131b232b360811b901a6117b68486613993565b5360041c9180156108fa576000190190611697565b634e487b7160e01b600052603260045260246000fd5b82346109a057806003193601126109a0576020600a54604051908152f35b82346109a05760403660031901126109a05761164e60043561181f613562565b9080845283602052611837600160408620015461375f565b613912565b82346109a05760403660031901126109a057600c604061185a613562565b926004358152600460205220019060018060a01b0316600052602052602060ff604060002054166040519015158152f35b90503461099c57602036600319011261099c576040611905926004358152600460205220600281015490600481015492611943600583015491600784015490600685015460ff600887015416926009870154956118ef6001600a8a01549901613641565b996040519b8c9b8c6101408091528d019061370a565b9961191660208d0160ff831661372f565b60081c6001600160a01b031660408c015260608b015260808a015260a089015260c0880152860190613752565b6101008401526101208301520390f35b82346109a057602090816003193601126109a057600435808252600783526040822061198860ff600783015460081c16613efe565b600881013360005280855260ff60406000205416611ac25760048201546001600160a01b031680611a05575b50600692939433600052526040600020600160ff19825416179055016119da8154613ca7565b905533907fd873197dfe57397eab48d3c120c62ed968cac2a00b06b67ab9b66fc80d63dfd18380a380f35b85602491604051928380926370a0823160e01b82523360048301525afa908115611ab7578591611a86575b50600583015411611a4157856119b4565b60405162461bcd60e51b815260048101869052601a60248201527f496e73756666696369656e7420746f6b656e2062616c616e63650000000000006044820152606490fd5b90508581813d8311611ab0575b611a9d8183613620565b81010312611aac575186611a30565b8480fd5b503d611a93565b6040513d87823e3d90fd5b60405162461bcd60e51b815260048101869052601060248201526f20b63932b0b23c90309036b2b6b132b960811b6044820152606490fd5b82346109a057806003193601126109a0576020600954604051908152f35b82346109a057806003193601126109a057602090604051908152f35b82346109a05760403660031901126109a0576040611b50613562565b91600435815280602052209060018060a01b0316600052602052602060ff604060002054166040519015158152f35b82346109a057806003193601126109a057611bb97f0000000000000000000000000000000000000000000000000000000000000000613ab2565b90611be37f0000000000000000000000000000000000000000000000000000000000000000613bae565b60405191602091828401948486106001600160401b03871117610b5857949280611c3b88969386604052858552611c2d604051998a99600f60f81b8b5280868c01528a019061370a565b9088820360408a015261370a565b924660608801523060808801528460a088015286840360c088015251928381520193925b828110611c6e57505050500390f35b835185528695509381019392810192600101611c5f565b82346109a05760203660031901126109a0576040611cf191600435815260076020522060018060a01b0360038201541660ff6006830154600784015490611cff611cdd6002611cd660018901613641565b9701613641565b60405197889760c0895260c089019061370a565b90878203602089015261370a565b93604086015260608501528181161515608085015260081c16151560a08301520390f35b82346109a057806003193601126109a05760206040517fa49807205ce4d355092ef5a8a18f56e8913cf4a201fbe287825b095693c217758152f35b82346109a057602090816003193601126109a05760043580825260088352604082206001810154835260078452600860408420611da360ff6007830154841c16613efe565b33600052018452611dbb60ff60406000205416613f41565b600981013360005280855260ff60406000205416611e2357600692939433600052526040600020600160ff1982541617905501611df88154613ca7565b905533907fcf765d6f163c9b0d832e2a94f4c8e9bffd32a2c3ca5fdbb8cc67b5fe1441f4138380a380f35b60405162461bcd60e51b815260048101869052600d60248201526c105b1c9958591e481b1a5ad959609a1b6044820152606490fd5b82346109a05760a03660031901126109a0576004356001600160401b03811161099c57611e8990369060040161351f565b6024356001600160401b03811161099857611ea890369060040161351f565b9290611eb2613578565b60843515156084350361099357831561221d57600b5494611ed286613ca7565b600b55858752600760205260408720928684556001600160401b03861161215057611f00600185015461359d565b601f81116121d9575b508588601f821160011461216f578991612164575b508660011b906000198860031b1c19161760018501555b6001600160401b03821161215057611f50600285015461359d565b601f811161210c575b50602097879594939291816001601f85111461207757927f108aee40ed5ad1a364637349675096ac7f862898b565bf3fca42cc4121311086969492819261206197959261206c575b50508160011b916000199060031b1c19161760028301555b600382018054336001600160a01b0319918216179091556004830180546001600160a01b039390931692909116919091179055606435600582015560078101805460ff191660ff60843515151617815561010061ff00198254161790556001600682015533600052600881018852600960406000209160ff19926001848254161790550188526001604060002091825416179055604051918291888352339689840191613d94565b0390a3604051908152f35b013590508b80611fa1565b916002860183528a8320925b601f19851681106120f25750927f108aee40ed5ad1a364637349675096ac7f862898b565bf3fca42cc4121311086969492600192612061979583601f198116106120d8575b505050811b016002830155611fb9565b0135600019600384901b60f8161c191690558b80806120c8565b8183013584558a9850600190930192908b01908b01612083565b60028501895260208920601f840160051c810160208510612149575b601f830160051c8201811061213e575050611f59565b8a8155600101612128565b5080612128565b634e487b7160e01b88526041600452602488fd5b905085013589611f1e565b600186018a5260208a209150895b601f19891681106121c1575087601f198116106121a7575b5050600186811b016001850155611f35565b860135600019600389901b60f8161c191690558880612195565b9091602060018192858b01358155019301910161217d565b60018501895260208920601f880160051c810160208910612216575b601f830160051c8201811061220b575050611f09565b8a81556001016121f5565b50806121f5565b60405162461bcd60e51b815260206004820152600c60248201526b496e76616c6964206e616d6560a01b6044820152606490fd5b826101003660031901126109a0576004356001600160401b03811161099c5761227e90369060040161351f565b91906003602435101561099c57612293613578565b9060e4358015158103610998576122a8613db5565b608435151580612702575b156126cb5760a4356084351061268d576122d060c4351515613c68565b600954936122dd85613ca7565b60095560a43515612679578060243560020361255d57612301608435341015613d50565b858152600460205260408120908682556001600160401b0388116125495761232c600183015461359d565b601f8111612505575b508781601f821160011461249b578291612490575b508860011b906000198a60031b1c19161760018301555b600282019261247c575085937f985f3c29be530c8660625721fb560a8ff7e86a328b07d1e7ede9980139183c629383600b6124449460209b9654926affffffffffffffffffffff60a81b93610100600160a81b038c60081b16908560ff602435169116171790556064356003820155608435600482015560a435600582015560a4356084350460068201556008810160ff19815416905542600982015561240a60c43542613986565b600a820155018054919091163360ff60a01b19161791151560a01b60ff60a01b169190911790556040516080808252909390840191613d94565b9361245387830160243561372f565b6001600160a01b031660408201526084356060820152339381900390a360018055604051908152f35b634e487b7160e01b81526021600452602490fd5b90508501358961234a565b600184018352602083209150825b601f198b1681106124ed575089601f198116106124d3575b5050600188811b016001830155612361565b86013560001960038b901b60f8161c1916905588806124c1565b9091602060018192858b0135815501930191016124a9565b60018301825260208220601f8a0160051c810160208b10612542575b601f830160051c82018110612537575050612335565b838155600101612521565b5080612521565b634e487b7160e01b81526041600452602490fd5b9050806024356125e7576001600160a01b03851661257c811515613cb6565b6040516323b872dd60e01b81523360048201523060248201526084356044820152906020908290606490829086905af19081156113b157906125c49183916125c95750613d12565b612301565b6125e1915060203d81116108e8576108da8183613620565b896108b6565b90508060001960243501612301576001600160a01b03851661260a811515613cb6565b803b1561099c57604051637921219560e11b8152336004820152306024820152606480356044830152608480359183019190915260a090820152600060a4820152908290829060c490829084905af180156113b15761266a575b50612301565b612673906135d7565b87612664565b634e487b7160e01b81526012600452602490fd5b60405162461bcd60e51b8152602060048201526016602482015275151bdd185b08185b5bdd5b9d081d1bdbc81cdb585b1b60521b6044820152606490fd5b60405162461bcd60e51b815260206004820152600f60248201526e496e76616c696420616d6f756e747360881b6044820152606490fd5b5060a43515156122b3565b82346109a05760203660031901126109a05760209060ff906040906001600160a01b0361273861354c565b168152600e84522054166040519015158152f35b82346109a05760203660031901126109a0576004803582526020526040902080549061277a60018201613641565b9260028201546003830154926004810154926005820154906006830154600784015490600885015460ff1692600986015494600a87015496600b0154986040519c8d9c8d528c6101c06020819201528d016127d49161370a565b9a6127e560408e0160ff8c1661372f565b8c600160a01b60019003809b60081c16906060015260808d015260a08c015260c08b0152890152610100880152610120870161282091613752565b610140860152610160850152811661018084015260a01c60ff1615156101a08301520390f35b82346109a057806003193601126109a0576020600c54604051908152f35b82346109a05760603660031901126109a0576024356001600160401b03811161099c5761289590369060040161351f565b906044356001600160401b038111610998576128b590369060040161351f565b600493919335855260076020526008604086206128da60ff6007830154841c16613efe565b338752016020526128f160ff604087205416613f41565b8115612b8f57600c549361290485613ca7565b600c5584865260086020526040862085815560043560018201556002810180546001600160a01b03191633179055916001600160401b0384116105e45761294e600384015461359d565b601f8111612b4b575b508387601f8211600114612ae1578891612ad6575b508460011b906000198660031b1c19161760038401555b60048301916001600160401b038211612150576129a0835461359d565b601f8111612a91575b506020978291816001601f851114612a2d5792612a22575b50508160011b916000199060031b1c19161790555b600542910155827f61a7a6dea2aa2bb38e8d1303241c981b5ba162215611d715da3efa50195c177d60405186815280612a173396600435968a840191613d94565b0390a4604051908152f35b0135905088806129c1565b925090601f1984168584528a8420935b818110612a7a5750908460019594939210612a60575b505050811b0190556129d6565b0135600019600384901b60f8161c19169055888080612a53565b91938b600181928787013581550195019201612a3d565b83895260208920601f840160051c81019160208510612acc575b601f0160051c01905b818110612ac157506129a9565b898155600101612ab4565b9091508190612aab565b90508501358861296c565b600385018952602089209150885b601f1987168110612b33575085601f19811610612b19575b5050600184811b016003840155612983565b860135600019600387901b60f8161c191690558780612b07565b9091602060018192858b013581550193019101612aef565b60038401885260208820601f860160051c810160208710612b88575b601f830160051c82018110612b7d575050612957565b898155600101612b67565b5080612b67565b60405162461bcd60e51b815260206004820152600d60248201526c115b5c1d1e4818dbdb9d195b9d609a1b6044820152606490fd5b82346109a05760403660031901126109a05760248035906001600160401b03908183116109985736602384011215610998578260040135918211610998576005368284831b86010111611aac57600435855260209160048352604086209460018060a01b039283600b8801541633148015612cc0575b15612c8b579495600d0194875b878110612c52578880f35b8381831b8401013590858216809203612c8757612c82918a5287875260408a20600160ff19825416179055613ca7565b612c47565b8980fd5b60405162461bcd60e51b815260048101869052600e818501526d139bdd08185d5d1a1bdc9a5e995960921b6044820152606490fd5b507fa49807205ce4d355092ef5a8a18f56e8913cf4a201fbe287825b095693c21775885287855260408820338952855260ff604089205416612c3a565b82346109a05760403660031901126109a057612d17613562565b336001600160a01b03821603612d335761164e90600435613912565b60405162461bcd60e51b815260206004820152602f60248201527f416363657373436f6e74726f6c3a2063616e206f6e6c792072656e6f756e636560448201526e103937b632b9903337b91039b2b63360891b6064820152608490fd5b82346109a05760403660031901126109a057600435612dad613562565b81835282602052612dc4600160408520015461375f565b818352602083815260408085206001600160a01b039093168086529290915283205460ff1615612df2578280f35b818352826020526040832081845260205260408320600160ff1982541617905533917f2f8788117e7eff1d82e926ec794901d17c78024a50270940304540a733656f0d8480a481808280f35b82346109a05760203660031901126109a057600160406020926004358152808452200154604051908152f35b82346109a057806003193601126109a05760206040517f3a2f235c9daaf33349d300aadff2f15078a89df81bcfdd45ba11c8f816bddc6f8152f35b82346109a05760603660031901126109a0576020612eca604435602435600435613e86565b604051908152f35b82346109a05760203660031901126109a05760409060043581526008602052209081549060018301549260018060a01b0360028201541690612f1660038201613641565b92612f2360048301613641565b93612f75600584015495612f6760068601549360ff6008600789015498015416976040519b8c9b8c5260208c015260408b01526101208060608c01528a019061370a565b9088820360808a015261370a565b9460a087015260c086015284015215156101008301520390f35b82346109a05760403660031901126109a057612fa961354c565b612fb161358e565b338352600e60205260ff604084205416801561303d575b15612ff85761164e9160018060a01b031683526005602052600660408420019060ff801983541691151516179055565b60405162461bcd60e51b815260206004820152601760248201527f4e6f7420617574686f72697a65642076657269666965720000000000000000006044820152606490fd5b507f97667070c54ef182b0f5858b034beac1b6f3089aa2d3188bb1e8929f4fa9b9298352826020526040832033845260205260ff604084205416612fc8565b82346109a057806003193601126109a0576020600b54604051908152f35b82346109a05760203660031901126109a05760043563ffffffff60e01b811680910361099c57602090637965db0b60e01b81149081156130e0575b506040519015158152f35b6301ffc9a760e01b149050826130d5565b82346109a05760c03660031901126109a0576004356001600160401b03811161099c5761312290369060040161351f565b91906024356001600160401b038111610b6e5761314390369060040161351f565b936044356001600160401b038111611aac5761316390369060040161351f565b959095338652600560205260408620906001600160401b0384116105e45761318b825461359d565b601f81116134dc575b508387601f821160011461347857889161346d575b508460011b906000198660031b1c19161782555b6001600160401b0383116105e4576131d8600183015461359d565b601f8111613429575b508287601f82116001146133bf5788916133b4575b508360011b906000198560031b1c19161760018301555b6001600160401b0381116105e457613228600283015461359d565b601f8111613370575b5086601f82116001146132d95791816132c894926007948a9b7fbc33539ed83eba00a722131386d7b0e5e78cd984ac4ea5be16458e5d964893c39a9b926132ce575b50508160011b916000199060031b1c19161760028201555b6132b560643580600384015560843580600485015560a43591826005860155426008860155613e86565b9283910155604051948594339886613e57565b0390a280f35b013590508b80613273565b6002830188526020882090885b601f1984168110613358575082600794927fbc33539ed83eba00a722131386d7b0e5e78cd984ac4ea5be16458e5d964893c3999a9b6001936132c89896601f1981161061333e575b505050811b01600282015561328b565b0135600019600384901b60f8161c191690558b808061332e565b9091602060018192858e0135815501930191016132e6565b60028301885260208820601f830160051c8101602084106133ad575b601f830160051c820181106133a2575050613231565b89815560010161338c565b508061338c565b9050850135896131f6565b600184018952602089209150885b601f1986168110613411575084601f198116106133f7575b5050600183811b01600183015561320d565b860135600019600386901b60f8161c1916905588806133e5565b9091602060018192858b0135815501930191016133cd565b60018301885260208820601f850160051c810160208610613466575b601f830160051c8201811061345b5750506131e1565b898155600101613445565b5080613445565b9050860135896131a9565b838952602089209150885b601f19871681106134c4575085601f198116106134aa575b5050600184811b0182556131bd565b870135600019600387901b60f8161c19169055888061349b565b9091602060018192858c013581550193019101613483565b82885260208820601f860160051c810160208710613518575b601f90920160051c01905b81811061350d5750613194565b888155600101613500565b50806134f5565b9181601f84011215610993578235916001600160401b038311610993576020838186019501011161099357565b600435906001600160a01b038216820361099357565b602435906001600160a01b038216820361099357565b604435906001600160a01b038216820361099357565b60243590811515820361099357565b90600182811c921680156135cd575b60208310146135b757565b634e487b7160e01b600052602260045260246000fd5b91607f16916135ac565b6001600160401b038111610b5857604052565b604081019081106001600160401b03821117610b5857604052565b608081019081106001600160401b03821117610b5857604052565b90601f801991011681019081106001600160401b03821117610b5857604052565b90604051918260008254926136558461359d565b9081845260019485811690816000146136c45750600114613681575b505061367f92500383613620565b565b9093915060005260209081600020936000915b8183106136ac57505061367f93508201013880613671565b85548884018501529485019487945091830191613694565b91505061367f94506020925060ff191682840152151560051b8201013880613671565b60005b8381106136fa5750506000910152565b81810151838201526020016136ea565b90602091613723815180928185528580860191016136e7565b601f01601f1916010190565b90600382101561373c5752565b634e487b7160e01b600052602160045260246000fd5b90600482101561373c5752565b600090808252602090828252604092838120338252835260ff8482205416156137885750505050565b613791336139a4565b9184519061379e82613605565b604282528482019260603685378251156138fe57603084538251906001918210156138fe5790607860218501536041915b8183116138905750505061384e57604861174093869361383293613823985198899376020b1b1b2b9b9a1b7b73a3937b61d1030b1b1b7bab73a1604d1b8a8601526116e7815180928c6037890191016136e7565b01036028810187520185613620565b5192839262461bcd60e51b84526004840152602483019061370a565b60648486519062461bcd60e51b825280600483015260248201527f537472696e67733a20686578206c656e67746820696e73756666696369656e746044820152fd5b909192600f811660108110156138ea576f181899199a1a9b1b9c1cb0b131b232b360811b901a6138c08587613993565b5360041c9280156138d6576000190191906137cf565b634e487b7160e01b82526011600452602482fd5b634e487b7160e01b83526032600452602483fd5b634e487b7160e01b81526032600452602490fd5b9060009180835282602052604083209160018060a01b03169182845260205260ff60408420541661394257505050565b80835282602052604083208284526020526040832060ff1981541690557ff6391f5c32d9c69d2a47ea670b442974b53935d1edc7fd64eb21e047a839171b339380a4565b919082018092116108fa57565b9081518110156117cb570160200190565b60405190606082018281106001600160401b03821117610b5857604052602a82526020820160403682378251156117cb576030905381516001908110156117cb57607860218401536029905b808211613a44575050613a005790565b606460405162461bcd60e51b815260206004820152602060248201527f537472696e67733a20686578206c656e67746820696e73756666696369656e746044820152fd5b9091600f81166010811015613a9d576f181899199a1a9b1b9c1cb0b131b232b360811b901a613a738486613993565b5360041c918015613a885760001901906139f0565b60246000634e487b7160e01b81526011600452fd5b60246000634e487b7160e01b81526032600452fd5b60ff8114613af05760ff811690601f8211613ade5760405191613ad4836135ea565b8252602082015290565b604051632cd44ac360e21b8152600490fd5b50604051600254816000613b038361359d565b80835292600190818116908115613b8c5750600114613b2d575b50613b2a92500382613620565b90565b6002600090815291507f405787fa12a823e0f2b7631cc41b3ba8828b3321ca811111fa75cd3aa3bb5ace5b848310613b715750613b2a935050810160200138613b1d565b81935090816020925483858901015201910190918492613b58565b905060209250613b2a94915060ff191682840152151560051b82010138613b1d565b60ff8114613bd05760ff811690601f8211613ade5760405191613ad4836135ea565b50604051600354816000613be38361359d565b80835292600190818116908115613b8c5750600114613c095750613b2a92500382613620565b6003600090815291507fc2575a0e9e593c00f959f8c92f12db2869c3395a3b0502d05e2516446f71f85b5b848310613c4d5750613b2a935050810160200138613b1d565b81935090816020925483858901015201910190918492613c34565b15613c6f57565b60405162461bcd60e51b815260206004820152601060248201526f24b73b30b634b210323ab930ba34b7b760811b6044820152606490fd5b60001981146108fa5760010190565b15613cbd57565b60405162461bcd60e51b8152602060048201526015602482015274496e76616c696420746f6b656e206164647265737360581b6044820152606490fd5b90816020910312610993575180151581036109935790565b15613d1957565b60405162461bcd60e51b815260206004820152600f60248201526e151c985b9cd9995c8819985a5b1959608a1b6044820152606490fd5b15613d5757565b60405162461bcd60e51b8152602060048201526015602482015274125b9cdd59999a58da595b9d08115512081cd95b9d605a1b6044820152606490fd5b908060209392818452848401376000828201840152601f01601f1916010190565b600260015414613dc6576002600155565b60405162461bcd60e51b815260206004820152601f60248201527f5265656e7472616e637947756172643a207265656e7472616e742063616c6c006044820152606490fd5b15613e1257565b60405162461bcd60e51b815260206004820152601c60248201527f536f6369616c20766572696669636174696f6e207265717569726564000000006044820152606490fd5b959493613e7360409492613e819460608a5260608a0191613d94565b918783036020890152613d94565b930152565b600a9004906032820291808304603214901517156108fa57600a9004601e810290808204601e14901517156108fa576064918280613ec693049104613986565b9104906014820291808304601414901517156108fa576064613ee9920490613986565b6103e89081811115613ef9575090565b905090565b15613f0557565b60405162461bcd60e51b8152602060048201526014602482015273436f6d6d756e697479206e6f742061637469766560601b6044820152606490fd5b15613f4857565b60405162461bcd60e51b815260206004820152600c60248201526b2737ba10309036b2b6b132b960a11b6044820152606490fdfea2646970667358221220e06b98e135e668c707858cfc51b260bc4501dc4022df004df1a602c2f2e5d5cc64736f6c634300081400332f8788117e7eff1d82e926ec794901d17c78024a50270940304540a733656f0d",
  "linkReferences": {},
  "deployedLinkReferences": {}
}