{
  "_format": "hh-sol-artifact-1",
  "contractName": "GovernanceModule",
  "sourceName": "contracts/modules/GovernanceModule.sol",
  "abi": [
    {
      "inputs": [
        {
          "internalType": "address",
          "name": "governanceToken",
          "type": "address"
        },
        {
          "internalType": "uint256",
          "name": "votingDelay",
          "type": "uint256"
        },
        {
          "internalType": "uint256",
          "name": "votingPeriod",
          "type": "uint256"
        },
        {
          "internalType": "uint256",
          "name": "proposalThreshold",
          "type": "uint256"
        },
        {
          "internalType": "uint256",
          "name": "quorumVotes",
          "type": "uint256"
        },
        {
          "internalType": "uint256",
          "name": "timelockDelay",
          "type": "uint256"
        }
      ],
      "stateMutability": "nonpayable",
      "type": "constructor"
    },
    {
      "anonymous": false,
      "inputs": [
        {
          "indexed": true,
          "internalType": "address",
          "name": "delegator",
          "type": "address"
        },
        {
          "indexed": true,
          "internalType": "address",
          "name": "fromDelegate",
          "type": "address"
        },
        {
          "indexed": true,
          "internalType": "address",
          "name": "toDelegate",
          "type": "address"
        }
      ],
      "name": "DelegateChanged",
      "type": "event"
    },
    {
      "anonymous": false,
      "inputs": [
        {
          "indexed": true,
          "internalType": "address",
          "name": "delegate",
          "type": "address"
        },
        {
          "indexed": false,
          "internalType": "uint256",
          "name": "previousBalance",
          "type": "uint256"
        },
        {
          "indexed": false,
          "internalType": "uint256",
          "name": "newBalance",
          "type": "uint256"
        }
      ],
      "name": "DelegateVotesChanged",
      "type": "event"
    },
    {
      "anonymous": false,
      "inputs": [
        {
          "indexed": true,
          "internalType": "uint256",
          "name": "id",
          "type": "uint256"
        }
      ],
      "name": "ProposalCanceled",
      "type": "event"
    },
    {
      "anonymous": false,
      "inputs": [
        {
          "indexed": true,
          "internalType": "uint256",
          "name": "id",
          "type": "uint256"
        },
        {
          "indexed": true,
          "internalType": "address",
          "name": "proposer",
          "type": "address"
        },
        {
          "indexed": false,
          "internalType": "string",
          "name": "title",
          "type": "string"
        },
        {
          "indexed": false,
          "internalType": "string",
          "name": "description",
          "type": "string"
        },
        {
          "indexed": false,
          "internalType": "uint256",
          "name": "startBlock",
          "type": "uint256"
        },
        {
          "indexed": false,
          "internalType": "uint256",
          "name": "endBlock",
          "type": "uint256"
        }
      ],
      "name": "ProposalCreated",
      "type": "event"
    },
    {
      "anonymous": false,
      "inputs": [
        {
          "indexed": true,
          "internalType": "uint256",
          "name": "id",
          "type": "uint256"
        }
      ],
      "name": "ProposalExecuted",
      "type": "event"
    },
    {
      "anonymous": false,
      "inputs": [
        {
          "indexed": true,
          "internalType": "uint256",
          "name": "id",
          "type": "uint256"
        },
        {
          "indexed": false,
          "internalType": "uint256",
          "name": "eta",
          "type": "uint256"
        }
      ],
      "name": "ProposalQueued",
      "type": "event"
    },
    {
      "anonymous": false,
      "inputs": [
        {
          "indexed": true,
          "internalType": "bytes32",
          "name": "role",
          "type": "bytes32"
        },
        {
          "indexed": true,
          "internalType": "bytes32",
          "name": "previousAdminRole",
          "type": "bytes32"
        },
        {
          "indexed": true,
          "internalType": "bytes32",
          "name": "newAdminRole",
          "type": "bytes32"
        }
      ],
      "name": "RoleAdminChanged",
      "type": "event"
    },
    {
      "anonymous": false,
      "inputs": [
        {
          "indexed": true,
          "internalType": "bytes32",
          "name": "role",
          "type": "bytes32"
        },
        {
          "indexed": true,
          "internalType": "address",
          "name": "account",
          "type": "address"
        },
        {
          "indexed": true,
          "internalType": "address",
          "name": "sender",
          "type": "address"
        }
      ],
      "name": "RoleGranted",
      "type": "event"
    },
    {
      "anonymous": false,
      "inputs": [
        {
          "indexed": true,
          "internalType": "bytes32",
          "name": "role",
          "type": "bytes32"
        },
        {
          "indexed": true,
          "internalType": "address",
          "name": "account",
          "type": "address"
        },
        {
          "indexed": true,
          "internalType": "address",
          "name": "sender",
          "type": "address"
        }
      ],
      "name": "RoleRevoked",
      "type": "event"
    },
    {
      "anonymous": false,
      "inputs": [
        {
          "indexed": true,
          "internalType": "address",
          "name": "voter",
          "type": "address"
        },
        {
          "indexed": true,
          "internalType": "uint256",
          "name": "proposalId",
          "type": "uint256"
        },
        {
          "indexed": false,
          "internalType": "enum GovernanceModule.VoteType",
          "name": "vote",
          "type": "uint8"
        },
        {
          "indexed": false,
          "internalType": "uint256",
          "name": "votes",
          "type": "uint256"
        },
        {
          "indexed": false,
          "internalType": "string",
          "name": "reason",
          "type": "string"
        }
      ],
      "name": "VoteCast",
      "type": "event"
    },
    {
      "inputs": [],
      "name": "ADMIN_ROLE",
      "outputs": [
        {
          "internalType": "bytes32",
          "name": "",
          "type": "bytes32"
        }
      ],
      "stateMutability": "view",
      "type": "function"
    },
    {
      "inputs": [],
      "name": "DEFAULT_ADMIN_ROLE",
      "outputs": [
        {
          "internalType": "bytes32",
          "name": "",
          "type": "bytes32"
        }
      ],
      "stateMutability": "view",
      "type": "function"
    },
    {
      "inputs": [],
      "name": "EXECUTOR_ROLE",
      "outputs": [
        {
          "internalType": "bytes32",
          "name": "",
          "type": "bytes32"
        }
      ],
      "stateMutability": "view",
      "type": "function"
    },
    {
      "inputs": [],
      "name": "PROPOSER_ROLE",
      "outputs": [
        {
          "internalType": "bytes32",
          "name": "",
          "type": "bytes32"
        }
      ],
      "stateMutability": "view",
      "type": "function"
    },
    {
      "inputs": [
        {
          "internalType": "uint256",
          "name": "proposalId",
          "type": "uint256"
        }
      ],
      "name": "cancel",
      "outputs": [],
      "stateMutability": "nonpayable",
      "type": "function"
    },
    {
      "inputs": [
        {
          "internalType": "uint256",
          "name": "proposalId",
          "type": "uint256"
        },
        {
          "internalType": "enum GovernanceModule.VoteType",
          "name": "vote",
          "type": "uint8"
        }
      ],
      "name": "castVote",
      "outputs": [],
      "stateMutability": "nonpayable",
      "type": "function"
    },
    {
      "inputs": [
        {
          "internalType": "uint256",
          "name": "proposalId",
          "type": "uint256"
        },
        {
          "internalType": "enum GovernanceModule.VoteType",
          "name": "vote",
          "type": "uint8"
        },
        {
          "internalType": "string",
          "name": "reason",
          "type": "string"
        }
      ],
      "name": "castVoteWithReason",
      "outputs": [],
      "stateMutability": "nonpayable",
      "type": "function"
    },
    {
      "inputs": [
        {
          "internalType": "address",
          "name": "",
          "type": "address"
        },
        {
          "internalType": "uint256",
          "name": "",
          "type": "uint256"
        }
      ],
      "name": "checkpoints",
      "outputs": [
        {
          "internalType": "uint256",
          "name": "",
          "type": "uint256"
        }
      ],
      "stateMutability": "view",
      "type": "function"
    },
    {
      "inputs": [],
      "name": "config",
      "outputs": [
        {
          "internalType": "uint256",
          "name": "votingDelay",
          "type": "uint256"
        },
        {
          "internalType": "uint256",
          "name": "votingPeriod",
          "type": "uint256"
        },
        {
          "internalType": "uint256",
          "name": "proposalThreshold",
          "type": "uint256"
        },
        {
          "internalType": "uint256",
          "name": "quorumVotes",
          "type": "uint256"
        },
        {
          "internalType": "uint256",
          "name": "timelockDelay",
          "type": "uint256"
        },
        {
          "internalType": "address",
          "name": "governanceToken",
          "type": "address"
        },
        {
          "internalType": "bool",
          "name": "requireTokenHolding",
          "type": "bool"
        }
      ],
      "stateMutability": "view",
      "type": "function"
    },
    {
      "inputs": [
        {
          "internalType": "address",
          "name": "delegatee",
          "type": "address"
        }
      ],
      "name": "delegate",
      "outputs": [],
      "stateMutability": "nonpayable",
      "type": "function"
    },
    {
      "inputs": [
        {
          "internalType": "address",
          "name": "",
          "type": "address"
        }
      ],
      "name": "delegateVotes",
      "outputs": [
        {
          "internalType": "uint256",
          "name": "",
          "type": "uint256"
        }
      ],
      "stateMutability": "view",
      "type": "function"
    },
    {
      "inputs": [
        {
          "internalType": "address",
          "name": "",
          "type": "address"
        }
      ],
      "name": "delegates",
      "outputs": [
        {
          "internalType": "address",
          "name": "",
          "type": "address"
        }
      ],
      "stateMutability": "view",
      "type": "function"
    },
    {
      "inputs": [],
      "name": "depositETH",
      "outputs": [],
      "stateMutability": "payable",
      "type": "function"
    },
    {
      "inputs": [
        {
          "internalType": "address",
          "name": "token",
          "type": "address"
        },
        {
          "internalType": "uint256",
          "name": "amount",
          "type": "uint256"
        }
      ],
      "name": "depositToTreasury",
      "outputs": [],
      "stateMutability": "payable",
      "type": "function"
    },
    {
      "inputs": [
        {
          "internalType": "uint256",
          "name": "proposalId",
          "type": "uint256"
        }
      ],
      "name": "execute",
      "outputs": [],
      "stateMutability": "payable",
      "type": "function"
    },
    {
      "inputs": [
        {
          "internalType": "uint256",
          "name": "proposalId",
          "type": "uint256"
        }
      ],
      "name": "getActions",
      "outputs": [
        {
          "internalType": "address[]",
          "name": "targets",
          "type": "address[]"
        },
        {
          "internalType": "uint256[]",
          "name": "values",
          "type": "uint256[]"
        },
        {
          "internalType": "bytes[]",
          "name": "calldatas",
          "type": "bytes[]"
        }
      ],
      "stateMutability": "view",
      "type": "function"
    },
    {
      "inputs": [
        {
          "internalType": "uint256",
          "name": "proposalId",
          "type": "uint256"
        }
      ],
      "name": "getProposal",
      "outputs": [
        {
          "internalType": "address",
          "name": "proposer",
          "type": "address"
        },
        {
          "internalType": "string",
          "name": "title",
          "type": "string"
        },
        {
          "internalType": "string",
          "name": "description",
          "type": "string"
        },
        {
          "internalType": "uint256",
          "name": "startBlock",
          "type": "uint256"
        },
        {
          "internalType": "uint256",
          "name": "endBlock",
          "type": "uint256"
        },
        {
          "internalType": "uint256",
          "name": "forVotes",
          "type": "uint256"
        },
        {
          "internalType": "uint256",
          "name": "againstVotes",
          "type": "uint256"
        },
        {
          "internalType": "uint256",
          "name": "abstainVotes",
          "type": "uint256"
        },
        {
          "internalType": "bool",
          "name": "canceled",
          "type": "bool"
        },
        {
          "internalType": "bool",
          "name": "executed",
          "type": "bool"
        }
      ],
      "stateMutability": "view",
      "type": "function"
    },
    {
      "inputs": [
        {
          "internalType": "uint256",
          "name": "proposalId",
          "type": "uint256"
        },
        {
          "internalType": "address",
          "name": "voter",
          "type": "address"
        }
      ],
      "name": "getReceipt",
      "outputs": [
        {
          "components": [
            {
              "internalType": "bool",
              "name": "hasVoted",
              "type": "bool"
            },
            {
              "internalType": "enum GovernanceModule.VoteType",
              "name": "vote",
              "type": "uint8"
            },
            {
              "internalType": "uint256",
              "name": "votes",
              "type": "uint256"
            },
            {
              "internalType": "string",
              "name": "reason",
              "type": "string"
            }
          ],
          "internalType": "struct GovernanceModule.Receipt",
          "name": "",
          "type": "tuple"
        }
      ],
      "stateMutability": "view",
      "type": "function"
    },
    {
      "inputs": [
        {
          "internalType": "bytes32",
          "name": "role",
          "type": "bytes32"
        }
      ],
      "name": "getRoleAdmin",
      "outputs": [
        {
          "internalType": "bytes32",
          "name": "",
          "type": "bytes32"
        }
      ],
      "stateMutability": "view",
      "type": "function"
    },
    {
      "inputs": [
        {
          "internalType": "address",
          "name": "account",
          "type": "address"
        },
        {
          "internalType": "uint256",
          "name": "blockNumber",
          "type": "uint256"
        }
      ],
      "name": "getVotes",
      "outputs": [
        {
          "internalType": "uint256",
          "name": "",
          "type": "uint256"
        }
      ],
      "stateMutability": "view",
      "type": "function"
    },
    {
      "inputs": [
        {
          "internalType": "bytes32",
          "name": "role",
          "type": "bytes32"
        },
        {
          "internalType": "address",
          "name": "account",
          "type": "address"
        }
      ],
      "name": "grantRole",
      "outputs": [],
      "stateMutability": "nonpayable",
      "type": "function"
    },
    {
      "inputs": [
        {
          "internalType": "bytes32",
          "name": "role",
          "type": "bytes32"
        },
        {
          "internalType": "address",
          "name": "account",
          "type": "address"
        }
      ],
      "name": "hasRole",
      "outputs": [
        {
          "internalType": "bool",
          "name": "",
          "type": "bool"
        }
      ],
      "stateMutability": "view",
      "type": "function"
    },
    {
      "inputs": [
        {
          "internalType": "address",
          "name": "",
          "type": "address"
        }
      ],
      "name": "latestProposalIds",
      "outputs": [
        {
          "internalType": "uint256",
          "name": "",
          "type": "uint256"
        }
      ],
      "stateMutability": "view",
      "type": "function"
    },
    {
      "inputs": [
        {
          "internalType": "address",
          "name": "",
          "type": "address"
        }
      ],
      "name": "numCheckpoints",
      "outputs": [
        {
          "internalType": "uint256",
          "name": "",
          "type": "uint256"
        }
      ],
      "stateMutability": "view",
      "type": "function"
    },
    {
      "inputs": [],
      "name": "proposalCount",
      "outputs": [
        {
          "internalType": "uint256",
          "name": "",
          "type": "uint256"
        }
      ],
      "stateMutability": "view",
      "type": "function"
    },
    {
      "inputs": [
        {
          "internalType": "uint256",
          "name": "",
          "type": "uint256"
        }
      ],
      "name": "proposals",
      "outputs": [
        {
          "internalType": "uint256",
          "name": "id",
          "type": "uint256"
        },
        {
          "internalType": "address",
          "name": "proposer",
          "type": "address"
        },
        {
          "internalType": "string",
          "name": "title",
          "type": "string"
        },
        {
          "internalType": "string",
          "name": "description",
          "type": "string"
        },
        {
          "internalType": "uint256",
          "name": "startBlock",
          "type": "uint256"
        },
        {
          "internalType": "uint256",
          "name": "endBlock",
          "type": "uint256"
        },
        {
          "internalType": "uint256",
          "name": "forVotes",
          "type": "uint256"
        },
        {
          "internalType": "uint256",
          "name": "againstVotes",
          "type": "uint256"
        },
        {
          "internalType": "uint256",
          "name": "abstainVotes",
          "type": "uint256"
        },
        {
          "internalType": "bool",
          "name": "canceled",
          "type": "bool"
        },
        {
          "internalType": "bool",
          "name": "executed",
          "type": "bool"
        },
        {
          "internalType": "uint256",
          "name": "eta",
          "type": "uint256"
        }
      ],
      "stateMutability": "view",
      "type": "function"
    },
    {
      "inputs": [
        {
          "internalType": "address[]",
          "name": "targets",
          "type": "address[]"
        },
        {
          "internalType": "uint256[]",
          "name": "values",
          "type": "uint256[]"
        },
        {
          "internalType": "bytes[]",
          "name": "calldatas",
          "type": "bytes[]"
        },
        {
          "internalType": "string",
          "name": "title",
          "type": "string"
        },
        {
          "internalType": "string",
          "name": "description",
          "type": "string"
        }
      ],
      "name": "propose",
      "outputs": [
        {
          "internalType": "uint256",
          "name": "",
          "type": "uint256"
        }
      ],
      "stateMutability": "nonpayable",
      "type": "function"
    },
    {
      "inputs": [
        {
          "internalType": "uint256",
          "name": "proposalId",
          "type": "uint256"
        }
      ],
      "name": "queue",
      "outputs": [],
      "stateMutability": "nonpayable",
      "type": "function"
    },
    {
      "inputs": [
        {
          "internalType": "bytes32",
          "name": "role",
          "type": "bytes32"
        },
        {
          "internalType": "address",
          "name": "account",
          "type": "address"
        }
      ],
      "name": "renounceRole",
      "outputs": [],
      "stateMutability": "nonpayable",
      "type": "function"
    },
    {
      "inputs": [
        {
          "internalType": "bytes32",
          "name": "role",
          "type": "bytes32"
        },
        {
          "internalType": "address",
          "name": "account",
          "type": "address"
        }
      ],
      "name": "revokeRole",
      "outputs": [],
      "stateMutability": "nonpayable",
      "type": "function"
    },
    {
      "inputs": [
        {
          "internalType": "uint256",
          "name": "proposalId",
          "type": "uint256"
        }
      ],
      "name": "state",
      "outputs": [
        {
          "internalType": "enum GovernanceModule.ProposalState",
          "name": "",
          "type": "uint8"
        }
      ],
      "stateMutability": "view",
      "type": "function"
    },
    {
      "inputs": [
        {
          "internalType": "bytes4",
          "name": "interfaceId",
          "type": "bytes4"
        }
      ],
      "name": "supportsInterface",
      "outputs": [
        {
          "internalType": "bool",
          "name": "",
          "type": "bool"
        }
      ],
      "stateMutability": "view",
      "type": "function"
    },
    {
      "inputs": [
        {
          "internalType": "address",
          "name": "",
          "type": "address"
        }
      ],
      "name": "treasuryBalances",
      "outputs": [
        {
          "internalType": "uint256",
          "name": "",
          "type": "uint256"
        }
      ],
      "stateMutability": "view",
      "type": "function"
    },
    {
      "inputs": [
        {
          "internalType": "address",
          "name": "token",
          "type": "address"
        },
        {
          "internalType": "uint256",
          "name": "amount",
          "type": "uint256"
        },
        {
          "internalType": "address",
          "name": "to",
          "type": "address"
        }
      ],
      "name": "treasuryWithdraw",
      "outputs": [],
      "stateMutability": "nonpayable",
      "type": "function"
    },
    {
      "inputs": [
        {
          "internalType": "uint256",
          "name": "votingDelay",
          "type": "uint256"
        },
        {
          "internalType": "uint256",
          "name": "votingPeriod",
          "type": "uint256"
        },
        {
          "internalType": "uint256",
          "name": "proposalThreshold",
          "type": "uint256"
        },
        {
          "internalType": "uint256",
          "name": "quorumVotes",
          "type": "uint256"
        },
        {
          "internalType": "uint256",
          "name": "timelockDelay",
          "type": "uint256"
        }
      ],
      "name": "updateConfig",
      "outputs": [],
      "stateMutability": "nonpayable",
      "type": "function"
    }
  ],
  "bytecode": "0x6080346200030b57601f6200336338819003918201601f1916830192916001600160401b03918285118486101762000310578160c092859260409788528339810103126200030b5781516001600160a01b03811692908390036200030b57602080820151858301519060608401519260a06080860151950151956001918280558815620002c8576000918280528282528a8320338452825260ff8b842054161562000291575b7fa49807205ce4d355092ef5a8a18f56e8913cf4a201fbe287825b095693c217758084528383528b8420338552835260ff8c852054161562000258575b507fb09aa5aeb3702cfd50b6b62bc4532604938f21248a27a1d5ca736082b6819cc18084528383528b8420338552835260ff8c85205416156200021f575b507fd8aa0f3194971a2a116679f7c2090f6939c8d4e01a2a8d7e41d55e5351469e638084528383528b8420338552835260ff8c8520541615620001e6575b508a519260e0840191821184831017620001d257508a528382528101849052888101859052606081018690526080810187905260a0810188905260c00152600555600655600755600855600955600a80546001600160a81b031916909117600160a01b1790555161301c9081620003278239f35b634e487b7160e01b81526041600452602490fd5b8084528383528b842033855283528b84208560ff1982541617905533903390600080516020620033438339815191528680a4386200015e565b8084528383528b842033855283528b84208560ff1982541617905533903390600080516020620033438339815191528680a43862000120565b8084528383528b842033855283528b84208560ff1982541617905533903390600080516020620033438339815191528680a438620000e2565b8280528282528a832033845282528a83208460ff19825416179055333384600080516020620033438339815191528180a4620000a5565b6064908a519062461bcd60e51b82526004820152601860248201527f496e76616c696420676f7665726e616e636520746f6b656e00000000000000006044820152fd5b600080fd5b634e487b7160e01b600052604160045260246000fdfe6080604052600436101561001257600080fd5b60003560e01c8063013cf08b1461223257806301ffc9a7146121dc57806307bd0265146121a15780630cdfebfa14612159578063156e101e1461202b57806317977c6114611ff1578063248a9ca314611fc25780632f2ff15d14611f0f578063328dd98214611c9c57806336568abe14611c0a5780633e4f49e614611bdb57806340e58ee514611a665780635051ab31146111c45780635678138814611163578063587cde1e146111285780635c19a95c14610f6e5780636fcfff4514610f3457806375b238fc14610ef957806379502c5514610e9b5780637b3c71d314610e2c5780637efa748114610df25780638c5fcdda14610db85780638f61f4f514610d7d57806391d1485414610d30578063a217fddf14610d14578063b232c18d14610b36578063c7f758a814610a6a578063d547741f14610a2b578063da35c66414610a0d578063ddf0b0091461094e578063e23a9a5214610861578063e4f1f8c114610513578063eb9019d4146104e4578063f6326fb3146104bb5763fe0d94c11461019d57600080fd5b60203660031901126104b6576002600154146104715760026001556101c3600435612bf4565b600881101561045b576005036104165760043560005260026020526040600020600d8101548042106103de576212750081018091116103c857421161038f57600c8101805461ff00191661010017905560005b60048201548110156103615761022f8160048401612bdc565b90549061023f8360058601612bdc565b929054916102508560068801612bdc565b50926040519360009080549061026582612318565b916001811690811561034a5750600114610315575b505091600095939185879694039460031b1c9160018060a01b039160031b1c165af13d15610310573d6102ac816124bf565b906102ba604051928361236d565b8152600060203d92013e5b156102d8576102d390612878565b610216565b60405162461bcd60e51b815260206004820152601060248201526f115e1958dd5d1a5bdb8819985a5b195960821b6044820152606490fd5b6102c5565b90915060005260206000206000905b8282106103365750508401818561027a565b60018160209254848a015201910190610324565b60ff1916885250508015150285019050818561027a565b6004357f712ae1383f79ac853f8d882153778e0260ef8f03b504e2866e0593e04d2b291f600080a260018055005b60405162461bcd60e51b81526020600482015260116024820152705472616e73616374696f6e207374616c6560781b6044820152606490fd5b634e487b7160e01b600052601160045260246000fd5b60405162461bcd60e51b815260206004820152601060248201526f151a5b595b1bd8dac81b9bdd081b595d60821b6044820152606490fd5b60405162461bcd60e51b815260206004820152601b60248201527f50726f706f73616c2063616e6e6f7420626520657865637574656400000000006044820152606490fd5b634e487b7160e01b600052602160045260246000fd5b60405162461bcd60e51b815260206004820152601f60248201527f5265656e7472616e637947756172643a207265656e7472616e742063616c6c006044820152606490fd5b600080fd5b60003660031901126104b65760008052600b60205260406000206104e0348254612751565b9055005b346104b65760403660031901126104b657602061050b61050261247c565b60243590612e2f565b604051908152f35b346104b65760603660031901126104b65761052c61247c565b60248035916044356001600160a01b0381811693918490036104b6573360009081527fdae2aa361dfd1ca020a396615627d436107c35eff9fe7738a3512819782d706960209081526040909120549093907fd8aa0f3194971a2a116679f7c2090f6939c8d4e01a2a8d7e41d55e5351469e639060ff16156106a657501680600052600b835284604060002054106106625780600052600b835260406000206105d586825461286b565b90558061060b5750505060008080938193828215610602575bf1156105f657005b6040513d6000823e3d90fd5b506108fc6105ee565b8294936000604492604051968795869463a9059cbb60e01b865260048601528401525af180156105f65761063c575b005b8161063a92903d1061065b575b610653818361236d565b810190612fae565b503d610649565b60405162461bcd60e51b815260048101849052601d818401527f496e73756666696369656e742074726561737572792062616c616e63650000006044820152606490fd5b8484916106b23361276f565b906040516106bf81612352565b6042815283810191606036843781511561084c5760308353815160019081101561083757607860218401536041905b8082116107c95750506107995760486107959361076a936107799360405195869376020b1b1b2b9b9a1b7b73a3937b61d1030b1b1b7bab73a1604d1b8a860152610741815180928c603789019101612434565b8401917001034b99036b4b9b9b4b733903937b6329607d1b603784015251809386840190612434565b0103602881018452018261236d565b60405193849362461bcd60e51b85526004850152830190612457565b0390fd5b606485856040519162461bcd60e51b8352816004840152820152600080516020612fc78339815191526044820152fd5b9091600f81166010811015610822576f181899199a1a9b1b9c1cb0b131b232b360811b901a6107f8848661275e565b5360041c91801561080d5760001901906106ee565b87634e487b7160e01b60005260116004526000fd5b88634e487b7160e01b60005260326004526000fd5b86634e487b7160e01b60005260326004526000fd5b85634e487b7160e01b60005260326004526000fd5b346104b65760403660031901126104b65761087a612492565b6040519061088782612352565b6000825260608060209360008582015260006040820152015260043560005260028252600e6040600020019060018060a01b031660005281526040600020604051906108d282612352565b60ff81548181161515845260081c169083830190600383101561045b5761094a9282526109336109106002600184015493604088019485520161238e565b92606086019384526040519687968188525115159087015251604086019061252f565b5160608401525160808084015260a0830190612457565b0390f35b346104b65760203660031901126104b65760043561096b81612bf4565b600881101561045b576004036109c8578060005260026020527f9a2e42fd6722813d69113e7d0079d3d940171428df7373df9c7f7617cfda28926020600d60406000206109ba60095442612751565b9182910155604051908152a2005b60405162461bcd60e51b815260206004820152601960248201527f50726f706f73616c2063616e6e6f7420626520717565756564000000000000006044820152606490fd5b346104b65760003660031901126104b6576020600454604051908152f35b346104b65760403660031901126104b65761063a600435610a4a612492565b90806000526000602052610a6560016040600020015461253c565b6126dd565b346104b65760203660031901126104b6576004356000526002602052604060002060018060a01b03600182015416600782015460ff60088401546009850154600a860154600b87015491600c88015493610b01610ad56003610ace60028d0161238e565b9b0161238e565b610af36040519b8c9b8c5260208c61014091829101528c0190612457565b908a820360408c0152612457565b966060890152608088015260a087015260c086015260e0850152818116151561010085015260081c1615156101208301520390f35b346104b65760a03660031901126104b6573360009081527f7d7ffb7a348e1c6a02869081a26547b49160dd3df72d1d75a570eb9b698292ec60209081526040909120547fa49807205ce4d355092ef5a8a18f56e8913cf4a201fbe287825b095693c21775919060ff1615610bc457600435600555602435600655604435600755606435600855608435600955005b610bcd3361276f565b91604051610bda81612352565b60428152828101916060368437815115610cfe57603083538151600190811015610cfe57607860218401536041905b808211610cba575050610c8957610c5993610c689260489260405196879376020b1b1b2b9b9a1b7b73a3937b61d1030b1b1b7bab73a1604d1b88860152610741815180928a603789019101612434565b0103602881018552018361236d565b61079560405192839262461bcd60e51b845260048401526024830190612457565b6064836040519062461bcd60e51b82528060048301526024820152600080516020612fc78339815191526044820152fd5b9091600f81166010811015610cfe576f181899199a1a9b1b9c1cb0b131b232b360811b901a610ce9848661275e565b5360041c9180156103c8576000190190610c09565b634e487b7160e01b600052603260045260246000fd5b346104b65760003660031901126104b657602060405160008152f35b346104b65760403660031901126104b657610d49612492565b600435600052600060205260406000209060018060a01b0316600052602052602060ff604060002054166040519015158152f35b346104b65760003660031901126104b65760206040517fb09aa5aeb3702cfd50b6b62bc4532604938f21248a27a1d5ca736082b6819cc18152f35b346104b65760203660031901126104b6576001600160a01b03610dd961247c565b16600052600d6020526020604060002054604051908152f35b346104b65760203660031901126104b6576001600160a01b03610e1361247c565b16600052600b6020526020604060002054604051908152f35b346104b65760603660031901126104b65760243560038110156104b657604435906001600160401b038083116104b657366023840112156104b65782600401359081116104b65736602482850101116104b65761063a92610e919160243692016124da565b9060043533612906565b346104b65760003660031901126104b65760e060055460ff60065460075460085460095491600a5493604051968752602087015260408601526060850152608084015260018060a01b03811660a084015260a01c16151560c0820152f35b346104b65760003660031901126104b65760206040517fa49807205ce4d355092ef5a8a18f56e8913cf4a201fbe287825b095693c217758152f35b346104b65760203660031901126104b6576001600160a01b03610f5561247c565b16600052600f6020526020604060002054604051908152f35b346104b6576020806003193601126104b657610f8861247c565b33600052600c8252602460018060a01b0380604060002054168482600a5416604051948580926370a0823160e01b82523360048301525afa9283156105f6576000936110f9575b5033600052600c8552604060002091841691826bffffffffffffffffffffffff60a01b8254161790558181337f3134e8a2e6d97e929a7e54011ea5485d7d196dd5f0ba4d4ef95803e8e3fc257f600080a481811415806110f0575b61103057005b80611097575b508061103e57005b6000908152600f84526040902054801561108757600e845260406000206000198201948286116103c85761063a9560005252611081604060002054925b83612751565b92612cff565b61063a935061108160009261107b565b6000818152600f865260409020549081156110e457600e86526040600020600019830192908184116103c8576110de936000528752604060002054905b611081868361286b565b84611036565b6110de916000906110d4565b5082151561102a565b9092508481813d8311611121575b611111818361236d565b810103126104b657519185610fcf565b503d611107565b346104b65760203660031901126104b65760206001600160a01b038061114c61247c565b16600052600c825260406000205416604051908152f35b346104b65760403660031901126104b65760243560038110156104b65760405160208101918183106001600160401b038411176111ae5761063a926040526000825260043533612906565b634e487b7160e01b600052604160045260246000fd5b346104b65760a03660031901126104b6576004356001600160401b0381116104b657366023820112156104b65780600401356111ff816124a8565b9161120d604051938461236d565b81835260208301906024829360051b820101903682116104b657602401915b818310611a46575050506024356001600160401b0381116104b657366023820112156104b657806004013590611261826124a8565b9061126f604051928361236d565b828252602082016024819460051b830101913683116104b657602401905b828210611a3657505050604435936001600160401b0385116104b657366023860112156104b6578460040135906112c3826124a8565b956112d1604051978861236d565b82875260208701906024829460051b820101903682116104b65760248101925b8284106119f6575050505060649182356001600160401b0381116104b65761131d903690600401612511565b966084356001600160401b0381116104b65761133d903690600401612511565b9383518651811490816119eb575b50156119985783511561195f57600a84511161192a5760ff600a5460a01c166118c9575b33600052600360205260406000205480611853575b505061139260055443612751565b9561139f60065488612751565b956113ab600454612878565b98896004558960005260026020526040600020958a875560018701336bffffffffffffffffffffffff60a01b8254161790558b516001600160401b0381116111ae57611407816113fe60028b0154612318565b60028b0161289e565b806020601f82116001146117e3576000916117d8575b508160011b916000199060031b1c19161760028801555b87516001600160401b0381116111ae5761145e8161145560038b0154612318565b60038b0161289e565b806020601f821160011461176a5760009161175f575b508160011b916000199060031b1c19161760038801555b51906001600160401b0382116111ae57600160401b82116111ae5760048701906114ba838354818555846128e3565b90600052602060002060005b838110611742575050505051906001600160401b0382116111ae57600160401b82116111ae576005850190611500838354818555846128e3565b90600052602060002060005b83811061172e57505050505190600160401b82116111ae5760068301548260068501558083106116b6575b5090600683016000526020600020916000905b8282106115d35760208989817ffaa337366f7965edea73e5dda4e27a18008218bee177df73f82fc597a1f4dd088e8c6115ba8d8260088f89600782015501553360005260038952856040600020556115ad60405194608086526080860190612457565b908482038a860152612457565b94604083015260608201528033940390a3604051908152f35b80518051906001600160401b0382116111ae576115fa826115f48854612318565b8861289e565b602090601f831160011461164657928260019493602093869560009261163b575b5050600019600383901b1c191690841b1787555b0194019101909261154a565b015190508f8061161b565b908660005260206000209160005b601f198516811061169e575083602093600196938796938794601f19811610611685575b505050811b01875561162f565b015160001960f88460031b161c191690558f8080611678565b91926020600181928685015181550194019201611654565b600684016000526020600020908382015b81830181106116d7575050611537565b806116e460019254612318565b806116f1575b50016116c7565b601f811183146117075750600081555b8c6116ea565b600090828252611725601f60208420920160051c8201858301612887565b81835555611701565b60019060208451940193818401550161150c565b82516001600160a01b0316818301556020909201916001016114c6565b90508901518e611474565b91506003890160005260206000206000925b8b601f19841685106117c157506001935082601f198116106117a8575b5050811b01600388015561148b565b8b015160001960f88460031b161c191690558e80611799565b81015182556020938401936001909201910161177c565b90508d01518e61141d565b8e925060028a016000526020600020906000935b601f198416851061183b576001945083601f19811610611822575b505050811b016002880155611434565b015160001960f88460031b161c191690558e808f611812565b8101518255602093840193600190920191018f6117f7565b61185c90612bf4565b600881101561045b57600181141590816118bf575b501561187d5780611384565b60405162461bcd60e51b815260206004820152601e60248201527f4f6e65206c6976652070726f706f73616c207065722070726f706f73657200006044820152fd5b905015158a611871565b60001943014381116103c8576118df9033612e2f565b600754111561136f5760405162461bcd60e51b815260206004820152601960248201527f496e73756666696369656e7420766f74696e6720706f776572000000000000006044820152fd5b60405162461bcd60e51b815260206004820152601060248201526f546f6f206d616e7920616374696f6e7360801b6044820152fd5b60405162461bcd60e51b81526020600482015260146024820152734d7573742070726f7669646520616374696f6e7360601b6044820152fd5b608490650e6dac2e8c6d60d31b6040519162461bcd60e51b835260206004840152602660248401527f50726f706f73616c2066756e6374696f6e20696e666f726d6174696f6e206d696044840152820152fd5b90508251148a61134b565b83356001600160401b0381116104b6578201366043820112156104b657602091611a2b839236906044602482013591016124da565b8152019301926112f1565b813581526020918201910161128d565b82356001600160a01b03811681036104b65781526020928301920161122c565b346104b6576020806003193601126104b65760043590816000526002815260406000209060018060a01b03600183015416803314908115611b97575b8115611b76575b5015611b4257611ab883612bf4565b600881101561045b57600714611afe5750600c01805460ff191660011790557f789cf55be980739dad1d0699b93b58e806b51c9d96619bfa8fe0a28abaa7b30c600080a2005b6064906040519062461bcd60e51b82526004820152601f60248201527f43616e6e6f742063616e63656c2065786563757465642070726f706f73616c006044820152fd5b6064906040519062461bcd60e51b82526004820152600d60248201526c10d85b9b9bdd0818d85b98d95b609a1b6044820152fd5b905060001943014381116103c857611b8d91612e2f565b6007541184611aa9565b90507fa49807205ce4d355092ef5a8a18f56e8913cf4a201fbe287825b095693c2177560005260008252604060002033600052825260ff6040600020541690611aa2565b346104b65760203660031901126104b657611bf7600435612bf4565b604051600882101561045b576020918152f35b346104b65760403660031901126104b657611c23612492565b336001600160a01b03821603611c3f5761063a906004356126dd565b60405162461bcd60e51b815260206004820152602f60248201527f416363657373436f6e74726f6c3a2063616e206f6e6c792072656e6f756e636560448201526e103937b632b9903337b91039b2b63360891b6064820152608490fd5b346104b6576020806003193601126104b6576004356000526002815260406000209060048201906005600681850194019160405193848282549182815201908192600052836000209060005b818110611ef25750505085611cfe91038661236d565b60405190818388549182815201908198600052846000209060005b818110611ede5750505082611d2f91038361236d565b845491611d3b836124a8565b92611d49604051948561236d565b80845284840190819760005285600020916000905b828210611e335750505050604051966060880190606089525180915260808801929060005b818110611e16575050508682038785015251808252908301969060005b818110611e0257505050848603604086015251908186528082818801941b87010193926000965b838810611dd45786860387f35b90919293948380611df1600193601f198682030187528951612457565b970193019701969093929193611dc7565b825189529784019791840191600101611da0565b82516001600160a01b031685529386019391860191600101611d83565b888860409d9a9d51926000938754611e4a81612318565b908183526001958682169182600014611ec0575050600114611e87575b50611e7681600196038261236d565b8152019401910190929a979a611d5e565b60008981528481209650905b808210611ea95750810183019450611e76611e67565b8654838301860152958501958d9490910190611e93565b60ff19168685015291151590911b820184019550611e769050611e67565b825484529286019260019283019201611d19565b82546001600160a01b031684529285019260019283019201611ce8565b346104b65760403660031901126104b657600435611f2b612492565b816000526000602052611f4560016040600020015461253c565b81600052600060205260406000209060018060a01b0316908160005260205260ff6040600020541615611f7457005b8160005260006020526040600020816000526020526040600020600160ff1982541617905533917f2f8788117e7eff1d82e926ec794901d17c78024a50270940304540a733656f0d600080a4005b346104b65760203660031901126104b65760043560005260006020526020600160406000200154604051908152f35b346104b65760203660031901126104b6576001600160a01b0361201261247c565b1660005260036020526020604060002054604051908152f35b60403660031901126104b65761203f61247c565b602435906001600160a01b0316806120ac5781340361207057600052600b6020526104e06040600020918254612751565b60405162461bcd60e51b8152602060048201526014602482015273125b98dbdc9c9958dd0811551208185b5bdd5b9d60621b6044820152606490fd5b6040516323b872dd60e01b8152336004820152306024820152604481018390526020816064816000865af19081156105f65760009161213b575b501561210457600052600b6020526104e06040600020918254612751565b60405162461bcd60e51b815260206004820152600f60248201526e151c985b9cd9995c8819985a5b1959608a1b6044820152606490fd5b612153915060203d811161065b57610653818361236d565b836120e6565b346104b65760403660031901126104b6576001600160a01b0361217a61247c565b16600052600e60205260406000206024356000526020526020604060002054604051908152f35b346104b65760003660031901126104b65760206040517fd8aa0f3194971a2a116679f7c2090f6939c8d4e01a2a8d7e41d55e5351469e638152f35b346104b65760203660031901126104b65760043563ffffffff60e01b81168091036104b657602090637965db0b60e01b8114908115612221575b506040519015158152f35b6301ffc9a760e01b14905082612216565b346104b65760203660031901126104b65760043560005260026020526020604060002080549060018060a01b0360018201541660ff6122736002840161238e565b926122806003820161238e565b9360078201549460088301546009840154906122dc600a860154936122ce600b88015496600d600c8a01549901549a6040519e8f9e8f908152015260408d61018091829101528d0190612457565b908b820360608d0152612457565b9760808a015260a089015260c088015260e0870152610100860152818116151561012086015260081c1615156101408401526101608301520390f35b90600182811c92168015612348575b602083101461233257565b634e487b7160e01b600052602260045260246000fd5b91607f1691612327565b608081019081106001600160401b038211176111ae57604052565b90601f801991011681019081106001600160401b038211176111ae57604052565b90604051918260008254926123a284612318565b90818452600194858116908160001461241157506001146123ce575b50506123cc9250038361236d565b565b9093915060005260209081600020936000915b8183106123f95750506123cc935082010138806123be565b855488840185015294850194879450918301916123e1565b9150506123cc94506020925060ff191682840152151560051b82010138806123be565b60005b8381106124475750506000910152565b8181015183820152602001612437565b9060209161247081518092818552858086019101612434565b601f01601f1916010190565b600435906001600160a01b03821682036104b657565b602435906001600160a01b03821682036104b657565b6001600160401b0381116111ae5760051b60200190565b6001600160401b0381116111ae57601f01601f191660200190565b9291926124e6826124bf565b916124f4604051938461236d565b8294818452818301116104b6578281602093846000960137010152565b9080601f830112156104b65781602061252c933591016124da565b90565b90600382101561045b5752565b600090808252602090828252604092838120338252835260ff8482205416156125655750505050565b61256e3361276f565b9184519061257b82612352565b604282528482019260603685378251156126c957603084538251906001918210156126c95790607860218501536041915b81831161265b5750505061262b57604861079593869361260f93612600985198899376020b1b1b2b9b9a1b7b73a3937b61d1030b1b1b7bab73a1604d1b8a860152610741815180928c603789019101612434565b0103602881018752018561236d565b5192839262461bcd60e51b845260048401526024830190612457565b60648486519062461bcd60e51b82528060048301526024820152600080516020612fc78339815191526044820152fd5b909192600f811660108110156126b5576f181899199a1a9b1b9c1cb0b131b232b360811b901a61268b858761275e565b5360041c9280156126a1576000190191906125ac565b634e487b7160e01b82526011600452602482fd5b634e487b7160e01b83526032600452602483fd5b634e487b7160e01b81526032600452602490fd5b9060009180835282602052604083209160018060a01b03169182845260205260ff60408420541661270d57505050565b80835282602052604083208284526020526040832060ff1981541690557ff6391f5c32d9c69d2a47ea670b442974b53935d1edc7fd64eb21e047a839171b339380a4565b919082018092116103c857565b908151811015610cfe570160200190565b60405190606082018281106001600160401b038211176111ae57604052602a8252602082016040368237825115610cfe57603090538151600190811015610cfe57607860218401536029905b8082116127fd5750506127cb5790565b606460405162461bcd60e51b81526020600482015260206024820152600080516020612fc78339815191526044820152fd5b9091600f81166010811015612856576f181899199a1a9b1b9c1cb0b131b232b360811b901a61282c848661275e565b5360041c9180156128415760001901906127bb565b60246000634e487b7160e01b81526011600452fd5b60246000634e487b7160e01b81526032600452fd5b919082039182116103c857565b60001981146103c85760010190565b818110612892575050565b60008155600101612887565b9190601f81116128ad57505050565b6123cc926000526020600020906020601f840160051c830193106128d9575b601f0160051c0190612887565b90915081906128cc565b918181106128f057505050565b6123cc9260005260206000209182019101612887565b91909261291284612bf4565b600881101561045b576001809103612ba4576000938585526020600281526040928387209060018060a01b03841697888152600e8301845285812080549560ff8716612b6a57600785015461296691612e2f565b958615612b345760038a1015612b205761ffff191660088a901b61ff0016178317815582810186905587516002909101916001600160401b038211612b0c576129b9826129b38554612318565b8561289e565b8590601f8311600114612a7f5793612a46979383612a369b9894606098947fb8e138887d0aa13bab447e82de9d5c1777041ecd21ca36ba824ff1e6c07ddda49e9c9891612a74575b50600019600383901b1c191690831b1790555b88612a4b5750600a01612a28838254612751565b90555b82519788809861252f565b8601528401526060830190612457565b0390a3565b8803612a6657600901612a5f838254612751565b9055612a2b565b600b01612a5f838254612751565b905089015138612a01565b90601f198316848352878320925b818110612af75750938584606098947fb8e138887d0aa13bab447e82de9d5c1777041ecd21ca36ba824ff1e6c07ddda49e9c9894612a369e9b97612a469d9910612ade575b5050811b019055612a14565b8b015160001960f88460031b161c191690553880612ad2565b8b830151845592860192918801918801612a8d565b634e487b7160e01b81526041600452602490fd5b634e487b7160e01b83526021600452602483fd5b875162461bcd60e51b815260048101879052600f60248201526e2737903b37ba34b733903837bbb2b960891b6044820152606490fd5b875162461bcd60e51b8152600481018790526013602482015272159bdd195c88185b1c9958591e481d9bdd1959606a1b6044820152606490fd5b60405162461bcd60e51b815260206004820152601060248201526f159bdd1a5b99c81a5cc818db1bdcd95960821b6044820152606490fd5b8054821015610cfe5760005260206000200190600090565b80600454101580612cf6575b15612cbb5760005260026020526040600020600c8101549060ff8216600014612c2a575050600290565b60078101544311612c3c575050600090565b60088101544311612c4e575050600190565b6009810154600a820154811190811591612caf575b5015612c70575050600390565b600d01549081612c81575050600490565b60081c60ff1615612c925750600790565b6212750081018091116103c8574210612caa57600690565b600590565b90506008541138612c63565b60405162461bcd60e51b8152602060048201526013602482015272125b9d985b1a59081c1c9bdc1bdcd85b081a59606a1b6044820152606490fd5b50801515612c00565b91929080151580612df9575b15612d93576001600160a01b0383166000908152600e6020526040812090916000198101908111612d7f5792604083829382967fdec2bacdd2f05b59de34da9b523dff8be42e5e38e818c82fdb0bae774387a72498965260205220555b825194855260208501526001600160a01b031692a2565b634e487b7160e01b83526011600452602483fd5b60018060a01b038316600090808252600e60205260408220838352602052836040832055600183018093116126a157916040827fdec2bacdd2f05b59de34da9b523dff8be42e5e38e818c82fdb0bae774387a724969482969452600f6020522055612d68565b506001600160a01b0383166000908152600e602052604081206000198301838111612d7f57825260205260409020548414612d0b565b43821015612f745760018060a01b03166000908082526020600f815260409384842054928315612f6b57600e9182845286862060001990818701968711612f3a57868852855281888820541115612f59578287528385528787208780528552818888205411612f4e57908695915b868311612eb7575050508452815283832091835252205490565b612ecd612ec4888561286b565b60011c8461286b565b9687858a528688528a8a20818b528852838b8b205414600014612eff5750505050508452815283832091835252205490565b858a9993949599528688528a8a20818b528852848b8b205410600014612f2a575050955b9190612e9d565b9097508083019150811115612f23575b634e487b7160e01b88526011600452602488fd5b505050505050905090565b50508452815283832091835252205490565b50505050905090565b60405162461bcd60e51b8152602060048201526012602482015271139bdd081e595d0819195d195c9b5a5b995960721b6044820152606490fd5b908160209103126104b6575180151581036104b6579056fe537472696e67733a20686578206c656e67746820696e73756666696369656e74a26469706673582212201c6b8ea90422a4cf23c7ada0d4746cd3cfaebf0e26c82ca08430fd531209c22f64736f6c634300081400332f8788117e7eff1d82e926ec794901d17c78024a50270940304540a733656f0d",
  "linkReferences": {},
  "deployedLinkReferences": {}
}