{
  "_format": "hh-sol-artifact-1",
  "contractName": "UniversalWeb3Platform",
  "sourceName": "contracts/UniversalWeb3Platform.sol",
  "abi": [
    {
      "inputs": [
        {
          "internalType": "address",
          "name": "_admin",
          "type": "address"
        },
        {
          "internalType": "uint256",
          "name": "_platformFeePercent",
          "type": "uint256"
        },
        {
          "internalType": "address",
          "name": "_feeRecipient",
          "type": "address"
        }
      ],
      "stateMutability": "nonpayable",
      "type": "constructor"
    },
    {
      "anonymous": false,
      "inputs": [
        {
          "indexed": false,
          "internalType": "address",
          "name": "token",
          "type": "address"
        },
        {
          "indexed": false,
          "internalType": "uint256",
          "name": "amount",
          "type": "uint256"
        },
        {
          "indexed": false,
          "internalType": "address",
          "name": "to",
          "type": "address"
        }
      ],
      "name": "EmergencyWithdraw",
      "type": "event"
    },
    {
      "anonymous": false,
      "inputs": [
        {
          "indexed": false,
          "internalType": "string",
          "name": "moduleName",
          "type": "string"
        },
        {
          "indexed": false,
          "internalType": "address",
          "name": "oldModule",
          "type": "address"
        },
        {
          "indexed": false,
          "internalType": "address",
          "name": "newModule",
          "type": "address"
        }
      ],
      "name": "ModuleUpdated",
      "type": "event"
    },
    {
      "anonymous": false,
      "inputs": [
        {
          "indexed": false,
          "internalType": "address",
          "name": "account",
          "type": "address"
        }
      ],
      "name": "Paused",
      "type": "event"
    },
    {
      "anonymous": false,
      "inputs": [
        {
          "indexed": false,
          "internalType": "uint256",
          "name": "feePercent",
          "type": "uint256"
        },
        {
          "indexed": false,
          "internalType": "address",
          "name": "feeRecipient",
          "type": "address"
        }
      ],
      "name": "PlatformConfigUpdated",
      "type": "event"
    },
    {
      "anonymous": false,
      "inputs": [
        {
          "indexed": true,
          "internalType": "bytes32",
          "name": "role",
          "type": "bytes32"
        },
        {
          "indexed": true,
          "internalType": "bytes32",
          "name": "previousAdminRole",
          "type": "bytes32"
        },
        {
          "indexed": true,
          "internalType": "bytes32",
          "name": "newAdminRole",
          "type": "bytes32"
        }
      ],
      "name": "RoleAdminChanged",
      "type": "event"
    },
    {
      "anonymous": false,
      "inputs": [
        {
          "indexed": true,
          "internalType": "bytes32",
          "name": "role",
          "type": "bytes32"
        },
        {
          "indexed": true,
          "internalType": "address",
          "name": "account",
          "type": "address"
        },
        {
          "indexed": true,
          "internalType": "address",
          "name": "sender",
          "type": "address"
        }
      ],
      "name": "RoleGranted",
      "type": "event"
    },
    {
      "anonymous": false,
      "inputs": [
        {
          "indexed": true,
          "internalType": "bytes32",
          "name": "role",
          "type": "bytes32"
        },
        {
          "indexed": true,
          "internalType": "address",
          "name": "account",
          "type": "address"
        },
        {
          "indexed": true,
          "internalType": "address",
          "name": "sender",
          "type": "address"
        }
      ],
      "name": "RoleRevoked",
      "type": "event"
    },
    {
      "anonymous": false,
      "inputs": [
        {
          "indexed": false,
          "internalType": "address",
          "name": "account",
          "type": "address"
        }
      ],
      "name": "Unpaused",
      "type": "event"
    },
    {
      "stateMutability": "payable",
      "type": "fallback"
    },
    {
      "inputs": [],
      "name": "ADMIN_ROLE",
      "outputs": [
        {
          "internalType": "bytes32",
          "name": "",
          "type": "bytes32"
        }
      ],
      "stateMutability": "view",
      "type": "function"
    },
    {
      "inputs": [],
      "name": "DEFAULT_ADMIN_ROLE",
      "outputs": [
        {
          "internalType": "bytes32",
          "name": "",
          "type": "bytes32"
        }
      ],
      "stateMutability": "view",
      "type": "function"
    },
    {
      "inputs": [],
      "name": "MINTER_ROLE",
      "outputs": [
        {
          "internalType": "bytes32",
          "name": "",
          "type": "bytes32"
        }
      ],
      "stateMutability": "view",
      "type": "function"
    },
    {
      "inputs": [],
      "name": "OPERATOR_ROLE",
      "outputs": [
        {
          "internalType": "bytes32",
          "name": "",
          "type": "bytes32"
        }
      ],
      "stateMutability": "view",
      "type": "function"
    },
    {
      "inputs": [],
      "name": "defiModule",
      "outputs": [
        {
          "internalType": "contract DeFiModule",
          "name": "",
          "type": "address"
        }
      ],
      "stateMutability": "view",
      "type": "function"
    },
    {
      "inputs": [
        {
          "internalType": "address",
          "name": "token",
          "type": "address"
        },
        {
          "internalType": "uint256",
          "name": "amount",
          "type": "uint256"
        },
        {
          "internalType": "address",
          "name": "to",
          "type": "address"
        }
      ],
      "name": "emergencyWithdraw",
      "outputs": [],
      "stateMutability": "nonpayable",
      "type": "function"
    },
    {
      "inputs": [],
      "name": "getModules",
      "outputs": [
        {
          "internalType": "address",
          "name": "token",
          "type": "address"
        },
        {
          "internalType": "address",
          "name": "marketplace",
          "type": "address"
        },
        {
          "internalType": "address",
          "name": "staking",
          "type": "address"
        },
        {
          "internalType": "address",
          "name": "governance",
          "type": "address"
        },
        {
          "internalType": "address",
          "name": "defi",
          "type": "address"
        },
        {
          "internalType": "address",
          "name": "social",
          "type": "address"
        }
      ],
      "stateMutability": "view",
      "type": "function"
    },
    {
      "inputs": [
        {
          "internalType": "bytes32",
          "name": "role",
          "type": "bytes32"
        }
      ],
      "name": "getRoleAdmin",
      "outputs": [
        {
          "internalType": "bytes32",
          "name": "",
          "type": "bytes32"
        }
      ],
      "stateMutability": "view",
      "type": "function"
    },
    {
      "inputs": [],
      "name": "governanceModule",
      "outputs": [
        {
          "internalType": "contract GovernanceModule",
          "name": "",
          "type": "address"
        }
      ],
      "stateMutability": "view",
      "type": "function"
    },
    {
      "inputs": [
        {
          "internalType": "bytes32",
          "name": "role",
          "type": "bytes32"
        },
        {
          "internalType": "address",
          "name": "account",
          "type": "address"
        }
      ],
      "name": "grantRole",
      "outputs": [],
      "stateMutability": "nonpayable",
      "type": "function"
    },
    {
      "inputs": [
        {
          "internalType": "bytes32",
          "name": "role",
          "type": "bytes32"
        },
        {
          "internalType": "address",
          "name": "account",
          "type": "address"
        }
      ],
      "name": "hasRole",
      "outputs": [
        {
          "internalType": "bool",
          "name": "",
          "type": "bool"
        }
      ],
      "stateMutability": "view",
      "type": "function"
    },
    {
      "inputs": [
        {
          "internalType": "address",
          "name": "_tokenModule",
          "type": "address"
        },
        {
          "internalType": "address",
          "name": "_marketplaceModule",
          "type": "address"
        },
        {
          "internalType": "address",
          "name": "_stakingModule",
          "type": "address"
        },
        {
          "internalType": "address payable",
          "name": "_governanceModule",
          "type": "address"
        },
        {
          "internalType": "address",
          "name": "_defiModule",
          "type": "address"
        },
        {
          "internalType": "address payable",
          "name": "_socialModule",
          "type": "address"
        }
      ],
      "name": "initializeModules",
      "outputs": [],
      "stateMutability": "nonpayable",
      "type": "function"
    },
    {
      "inputs": [],
      "name": "isFullyInitialized",
      "outputs": [
        {
          "internalType": "bool",
          "name": "",
          "type": "bool"
        }
      ],
      "stateMutability": "view",
      "type": "function"
    },
    {
      "inputs": [],
      "name": "marketplaceModule",
      "outputs": [
        {
          "internalType": "contract MarketplaceModule",
          "name": "",
          "type": "address"
        }
      ],
      "stateMutability": "view",
      "type": "function"
    },
    {
      "inputs": [],
      "name": "pause",
      "outputs": [],
      "stateMutability": "nonpayable",
      "type": "function"
    },
    {
      "inputs": [],
      "name": "paused",
      "outputs": [
        {
          "internalType": "bool",
          "name": "",
          "type": "bool"
        }
      ],
      "stateMutability": "view",
      "type": "function"
    },
    {
      "inputs": [],
      "name": "platformConfig",
      "outputs": [
        {
          "internalType": "uint256",
          "name": "platformFeePercent",
          "type": "uint256"
        },
        {
          "internalType": "address",
          "name": "feeRecipient",
          "type": "address"
        },
        {
          "internalType": "bool",
          "name": "isInitialized",
          "type": "bool"
        }
      ],
      "stateMutability": "view",
      "type": "function"
    },
    {
      "inputs": [
        {
          "internalType": "bytes32",
          "name": "role",
          "type": "bytes32"
        },
        {
          "internalType": "address",
          "name": "account",
          "type": "address"
        }
      ],
      "name": "renounceRole",
      "outputs": [],
      "stateMutability": "nonpayable",
      "type": "function"
    },
    {
      "inputs": [
        {
          "internalType": "bytes32",
          "name": "role",
          "type": "bytes32"
        },
        {
          "internalType": "address",
          "name": "account",
          "type": "address"
        }
      ],
      "name": "revokeRole",
      "outputs": [],
      "stateMutability": "nonpayable",
      "type": "function"
    },
    {
      "inputs": [],
      "name": "socialModule",
      "outputs": [
        {
          "internalType": "contract SocialModule",
          "name": "",
          "type": "address"
        }
      ],
      "stateMutability": "view",
      "type": "function"
    },
    {
      "inputs": [],
      "name": "stakingModule",
      "outputs": [
        {
          "internalType": "contract StakingModule",
          "name": "",
          "type": "address"
        }
      ],
      "stateMutability": "view",
      "type": "function"
    },
    {
      "inputs": [
        {
          "internalType": "bytes4",
          "name": "interfaceId",
          "type": "bytes4"
        }
      ],
      "name": "supportsInterface",
      "outputs": [
        {
          "internalType": "bool",
          "name": "",
          "type": "bool"
        }
      ],
      "stateMutability": "view",
      "type": "function"
    },
    {
      "inputs": [],
      "name": "tokenModule",
      "outputs": [
        {
          "internalType": "contract TokenModule",
          "name": "",
          "type": "address"
        }
      ],
      "stateMutability": "view",
      "type": "function"
    },
    {
      "inputs": [],
      "name": "unpause",
      "outputs": [],
      "stateMutability": "nonpayable",
      "type": "function"
    },
    {
      "inputs": [
        {
          "internalType": "string",
          "name": "moduleName",
          "type": "string"
        },
        {
          "internalType": "address payable",
          "name": "newModule",
          "type": "address"
        }
      ],
      "name": "updateModule",
      "outputs": [],
      "stateMutability": "nonpayable",
      "type": "function"
    },
    {
      "inputs": [
        {
          "internalType": "uint256",
          "name": "_platformFeePercent",
          "type": "uint256"
        },
        {
          "internalType": "address",
          "name": "_feeRecipient",
          "type": "address"
        }
      ],
      "name": "updatePlatformConfig",
      "outputs": [],
      "stateMutability": "nonpayable",
      "type": "function"
    },
    {
      "stateMutability": "payable",
      "type": "receive"
    }
  ],
  "bytecode": "0x608034620002fa57601f62001a5c38819003918201601f19168301926001600160401b0392909183851183861017620002ff578160609284926040978852833981010312620002fa57620000538162000315565b916020620000678582850151940162000315565b9060019283805560ff1995866002541660025560018060a01b03809116938415620002b6571695861562000272576103e886116200023f57600093848052848452888520818652845260ff8986205416156200020a575b7fa49807205ce4d355092ef5a8a18f56e8913cf4a201fbe287825b095693c21775808652858552898620828752855260ff8a8720541615620001d4575b507f97667070c54ef182b0f5858b034beac1b6f3089aa2d3188bb1e8929f4fa9b92991828652858552898620828752855260ff8a87205416156200019d575b50505086519260608401918483109083111762000189575086528382528101849052840152600855600980546001600160a81b031916909117600160a01b1790555161171190816200032b8239f35b634e487b7160e01b81526041600452602490fd5b8286528585528986208287528552868a872091825416179055339160008051602062001a3c8339815191528680a43880806200013a565b8086528585528986208287528552898620878482541617905581339160008051602062001a3c8339815191528880a438620000fb565b8480528484528885208186528452888520868382541617905533818660008051602062001a3c8339815191528180a4620000be565b875162461bcd60e51b815260048101849052600c60248201526b08ccaca40e8dede40d0d2ced60a31b6044820152606490fd5b875162461bcd60e51b815260048101849052601560248201527f496e76616c69642066656520726563697069656e7400000000000000000000006044820152606490fd5b885162461bcd60e51b815260048101859052601560248201527f496e76616c69642061646d696e206164647265737300000000000000000000006044820152606490fd5b600080fd5b634e487b7160e01b600052604160045260246000fd5b51906001600160a01b0382168203620002fa5756fe608060408181526004918236101561001f575b505050361561001d57005b005b600092833560e01c91826301ffc9a7146110fa57508163248a9ca3146110d05781632b0a7032146110a75781632f2ff15d14610ffe57816336568abe14610f6c5781633e32f25514610f435781633f4ba83a14610ead5781634803c9e314610ddf5781634d24e23614610d9f578163504b82bf14610d775781635240fe9c14610c8357816354262d1614610b31578163551512de146107b75781635c975abb1461079357816375b238fc146107585781638456cb59146106c457816387dac0dd1461069b57816391d14854146106555781639a2c86f614610628578163a217fddf1461060d578163a435fd13146105e4578163a5b1b09714610265578163b2494df314610207578163d5391393146101cc578163d547741f1461018a575063f5b541a61461014d5780610012565b34610186578160031936011261018657602090517f97667070c54ef182b0f5858b034beac1b6f3089aa2d3188bb1e8929f4fa9b9298152f35b5080fd5b919050346101c857806003193601126101c8576101c591356101c060016101af61114d565b93838752866020528620015461138f565b611511565b80f35b8280fd5b505034610186578160031936011261018657602090517f9f2df0fed2c77648de5860a4cc508cd0818c85b8b8a1ab4ceeef8d981c8956a68152f35b9050346101c857826003193601126101c85760c0925060018060a01b038060025460081c16928180600354169354168260055416918360065416936007541694815196875260208701528501526060840152608083015260a0820152f35b83915034610186578260031936011261018657803567ffffffffffffffff918282116105e057366023830112156105e057818101359283116105e057602482019160248436920101116105e0576102ba61114d565b6102c2611194565b6001600160a01b038181169182156105a457601f19601f8701169388516102ec60208701826114ef565b8781526020810190888883378960208a830101525190207f9b9b0454cadcb5884dd3faa6ba975da4d2459aa3f11d31291a25a8358f84946d811460001461039c57505060028054610100600160a81b03198116600893841b610100600160a81b03161790915596976000805160206116bc8339815191529760809695949391921c81165b89878985519a8b9960608b528160608c0152838b0137880101521660208501528301528101030190a180f35b9091507fcef6e888ca344077e889d6d961447b180a6f2c1f8a3a4b954e2385449143c6c881036103fc575050906000805160206116bc8339815191529596608094939260035483828216916001600160601b0360a01b1617600355610370565b7f8f6d06a17e13511155ffa96004c22afae6a03438b8fed74cb1cf441168df3f128103610456575080546001600160a01b03198116841790915595966000805160206116bc83398151915296608095949392908116610370565b7fabea6fd3db56a6e6d0242111b43ebb13d1c42709651c032c7894962023a1f90a81036104b3575050906000805160206116bc8339815191529596608094939260055483828216916001600160601b0360a01b1617600555610370565b7f87ef372fa0bc18c38f3c64ff4da209c8dac3db34cdaf2b35aa10008cbe46579f8103610510575050906000805160206116bc8339815191529596608094939260065483828216916001600160601b0360a01b1617600655610370565b7f3ae7be79adfacb03b53e8631fa030f3a07d1e0805fdcfcbafe24d21fdf6d87d80361056b5750906000805160206116bc8339815191529596608094939260075483828216916001600160601b0360a01b1617600755610370565b606490602089519162461bcd60e51b83528201526013602482015272496e76616c6964206d6f64756c65206e616d6560681b6044820152fd5b875162461bcd60e51b81526020818601526016602482015275496e76616c6964206d6f64756c65206164647265737360501b6044820152606490fd5b8380fd5b50503461018657816003193601126101865760075490516001600160a01b039091168152602090f35b50503461018657816003193601126101865751908152602090f35b505034610186578160031936011261018657600254905160089190911c6001600160a01b03168152602090f35b9050346101c857816003193601126101c8578160209360ff9261067661114d565b903582528186528282206001600160a01b039091168252855220549151911615158152f35b50503461018657816003193601126101865760035490516001600160a01b039091168152602090f35b9050346101c857826003193601126101c8576106de611194565b6002549060ff8216610722575060ff1916600117600255513381527f62e78cea01bee320cd4e420270b5ea74000d11b0c9f74754ebdbfc544b05a25890602090a180f35b606490602084519162461bcd60e51b8352820152601060248201526f14185d5cd8589b194e881c185d5cd95960821b6044820152fd5b505034610186578160031936011261018657602090517fa49807205ce4d355092ef5a8a18f56e8913cf4a201fbe287825b095693c217758152f35b50503461018657816003193601126101865760209060ff6002541690519015158152f35b9050346101c85760603660031901126101c8576107d2611168565b6024918235906107e061117e565b90868052602091878352868820338952835260ff878920541615610957576001600160a01b039081169485156109215716948561087b575050858284828215610872575b839283928392f115610868579360609392917faaeda929aa102e867049528ec7cd2499e3a2f8846e736ae7935f234dfbf500d9955b8251948552840152820152a180f35b84513d87823e3d90fd5b506108fc610824565b928693858298519363a9059cbb60e01b855284015282015281816044818a895af18015610917576108d5575b50907faaeda929aa102e867049528ec7cd2499e3a2f8846e736ae7935f234dfbf500d9946060949392610859565b818181969594933d8311610910575b6108ee81836114ef565b8101031261090c57518015150361090857909192386108a7565b8580fd5b8680fd5b503d6108e4565b83513d89823e3d90fd5b875162461bcd60e51b815280840185905260118189015270125b9d985b1a59081c9958da5c1a595b9d607a1b6044820152606490fd5b50848688610964336115ac565b82519082610971836114bd565b60428352878301936060368637835115610b1f5760308553835190600191821015610b0d5790607860218601536041915b818311610aa457505050610a645783610a35604889610a569660449a9996610a266109fd9776020b1b1b2b9b9a1b7b73a3937b61d1030b1b1b7bab73a1604d1b9b5198858a9687019d8e52825192839160378901910161149a565b8401917001034b99036b4b9b9b4b733903937b6329607d1b60378401525180938684019061149a565b010360288101855201836114ef565b5196879562461bcd60e51b875286015251928380928601528585019061149a565b601f01601f19168101030190fd5b60648688878188519362461bcd60e51b85528401528201527f537472696e67733a20686578206c656e67746820696e73756666696369656e746044820152fd5b909192600f81166010811015610afb576f181899199a1a9b1b9c1cb0b131b232b360811b901a610ad48588611585565b53891c928015610ae9576000190191906109a2565b634e487b7160e01b825260118a528882fd5b634e487b7160e01b835260328b528983fd5b634e487b7160e01b8152603289528790fd5b634e487b7160e01b8152603288528690fd5b9050346101c85760c03660031901126101c857610b4c611168565b90610b5561114d565b90610b5e61117e565b906064356001600160a01b038181169291839003610c7f5760843593818516809503610c7b5760a43596828816809803610c7757610b9a611194565b6009549860ff8a60a01c16158015610c5a575b15610c22575060025490610100600160a81b039060081b1690610100600160a81b03191617600255816001600160601b0360a01b961686600354161760035516848254161790558260055416176005558160065416176006556007541617600755600160a01b9060ff60a01b19161760095580f35b5162461bcd60e51b81526020818601526013602482015272105b1c9958591e481a5b9a5d1a585b1a5e9959606a1b6044820152606490fd5b508a80528a602052808b20338c5260205260ff818c205416610bad565b8980fd5b8880fd5b8780fd5b8383346101865780600319360112610186578235610c9f61114d565b610ca7611194565b6001600160a01b0316938415610d3c576103e88211610d0a57507fce198b0337a4889a4d924bbe0720127f044b63ed5601557b2475ee1d19349a9a929381600855806001600160601b0360a01b600954161760095582519182526020820152a180f35b606490602084519162461bcd60e51b8352820152600c60248201526b08ccaca40e8dede40d0d2ced60a31b6044820152fd5b606490602084519162461bcd60e51b83528201526015602482015274125b9d985b1a5908199959481c9958da5c1a595b9d605a1b6044820152fd5b9050346101c857826003193601126101c8575490516001600160a01b03909116815260209150f35b50503461018657816003193601126101865760085460095482519182526001600160a01b038116602083015260a01c60ff16151591810191909152606090f35b919050346101c857826003193601126101c8576020925060ff60095460a01c169182610e95575b82610e80575b82610e6c575b5081610e57575b81610e42575b81610e2d575b519015158152f35b6007546001600160a01b031615159150610e25565b6006546001600160a01b031615159150610e1f565b6005546001600160a01b031615159150610e19565b546001600160a01b03161515915038610e12565b6003546001600160a01b031615159250610e0c565b60025460081c6001600160a01b031615159250610e06565b9050346101c857826003193601126101c857610ec7611194565b6002549060ff821615610f09575060ff1916600255513381527f5db9ee0a495bf2e6ff9c91a7834c1ba4fdd244a5e8aa4e537bd38aeae4b073aa90602090a180f35b606490602084519162461bcd60e51b8352820152601460248201527314185d5cd8589b194e881b9bdd081c185d5cd95960621b6044820152fd5b50503461018657816003193601126101865760065490516001600160a01b039091168152602090f35b83915034610186578260031936011261018657610f8761114d565b90336001600160a01b03831603610fa357906101c59135611511565b608490602085519162461bcd60e51b8352820152602f60248201527f416363657373436f6e74726f6c3a2063616e206f6e6c792072656e6f756e636560448201526e103937b632b9903337b91039b2b63360891b6064820152fd5b9050346101c857816003193601126101c857359061101a61114d565b90828452836020526110316001828620015461138f565b82845260208481528185206001600160a01b039093168086529290528084205460ff161561105d578380f35b828452836020528084208285526020528320600160ff1982541617905533917f2f8788117e7eff1d82e926ec794901d17c78024a50270940304540a733656f0d8480a43880808380f35b50503461018657816003193601126101865760055490516001600160a01b039091168152602090f35b9050346101c85760203660031901126101c857816020936001923581528085522001549051908152f35b8491346101c85760203660031901126101c8573563ffffffff60e01b81168091036101c85760209250637965db0b60e01b811490811561113c575b5015158152f35b6301ffc9a760e01b14905083611135565b602435906001600160a01b038216820361116357565b600080fd5b600435906001600160a01b038216820361116357565b604435906001600160a01b038216820361116357565b3360009081527f7d7ffb7a348e1c6a02869081a26547b49160dd3df72d1d75a570eb9b698292ec6020908152604080832054909291907fa49807205ce4d355092ef5a8a18f56e8913cf4a201fbe287825b095693c217759060ff16156111fa5750505050565b611203336115ac565b90845190611210826114bd565b6042825283820194606036873782511561137b576030865382519060019182101561137b5790607860218501536041915b81831161130d575050506112cb57846112a76048610a569360449798519889916112988984019876020b1b1b2b9b9a1b7b73a3937b61d1030b1b1b7bab73a1604d1b8a526109fd815180928d60378901910161149a565b010360288101895201876114ef565b5194859362461bcd60e51b855260048501525180928160248601528585019061149a565b60648386519062461bcd60e51b825280600483015260248201527f537472696e67733a20686578206c656e67746820696e73756666696369656e746044820152fd5b909192600f81166010811015611367576f181899199a1a9b1b9c1cb0b131b232b360811b901a61133d8587611585565b5360041c92801561135357600019019190611241565b634e487b7160e01b82526011600452602482fd5b634e487b7160e01b83526032600452602483fd5b634e487b7160e01b81526032600452602490fd5b60008181526020818152604092838320338452825260ff8484205416156113b65750505050565b6113bf336115ac565b908451906113cc826114bd565b6042825283820194606036873782511561137b576030865382519060019182101561137b5790607860218501536041915b818311611454575050506112cb57846112a76048610a569360449798519889916112988984019876020b1b1b2b9b9a1b7b73a3937b61d1030b1b1b7bab73a1604d1b8a526109fd815180928d60378901910161149a565b909192600f81166010811015611367576f181899199a1a9b1b9c1cb0b131b232b360811b901a6114848587611585565b5360041c928015611353576000190191906113fd565b60005b8381106114ad5750506000910152565b818101518382015260200161149d565b6080810190811067ffffffffffffffff8211176114d957604052565b634e487b7160e01b600052604160045260246000fd5b90601f8019910116810190811067ffffffffffffffff8211176114d957604052565b9060009180835282602052604083209160018060a01b03169182845260205260ff60408420541661154157505050565b80835282602052604083208284526020526040832060ff1981541690557ff6391f5c32d9c69d2a47ea670b442974b53935d1edc7fd64eb21e047a839171b339380a4565b908151811015611596570160200190565b634e487b7160e01b600052603260045260246000fd5b604051906060820182811067ffffffffffffffff8211176114d957604052602a82526020820160403682378251156115965760309053815160019081101561159657607860218401536029905b80821161164d5750506116095790565b606460405162461bcd60e51b815260206004820152602060248201527f537472696e67733a20686578206c656e67746820696e73756666696369656e746044820152fd5b9091600f811660108110156116a6576f181899199a1a9b1b9c1cb0b131b232b360811b901a61167c8486611585565b5360041c9180156116915760001901906115f9565b60246000634e487b7160e01b81526011600452fd5b60246000634e487b7160e01b81526032600452fdfee5340bb646fa554a3082f7baa2b415eb1874ff7d4c3f118686180386e71f738ea2646970667358221220b41059c9c716aeef8cd11746a46f3ca8f077b78da89f944a4f3efbc61c38800064736f6c634300081400332f8788117e7eff1d82e926ec794901d17c78024a50270940304540a733656f0d",
  "linkReferences": {},
  "deployedLinkReferences": {}
}