{
  "_format": "hh-sol-artifact-1",
  "contractName": "DeFiModule",
  "sourceName": "contracts/modules/DeFiModule.sol",
  "abi": [
    {
      "inputs": [
        {
          "internalType": "address",
          "name": "_feeRecipient",
          "type": "address"
        }
      ],
      "stateMutability": "nonpayable",
      "type": "constructor"
    },
    {
      "anonymous": false,
      "inputs": [
        {
          "indexed": true,
          "internalType": "uint256",
          "name": "poolId",
          "type": "uint256"
        },
        {
          "indexed": true,
          "internalType": "address",
          "name": "user",
          "type": "address"
        },
        {
          "indexed": false,
          "internalType": "uint256",
          "name": "amount",
          "type": "uint256"
        }
      ],
      "name": "Borrowed",
      "type": "event"
    },
    {
      "anonymous": false,
      "inputs": [
        {
          "indexed": true,
          "internalType": "uint256",
          "name": "poolId",
          "type": "uint256"
        },
        {
          "indexed": true,
          "internalType": "address",
          "name": "user",
          "type": "address"
        },
        {
          "indexed": false,
          "internalType": "uint256",
          "name": "amount",
          "type": "uint256"
        }
      ],
      "name": "Deposited",
      "type": "event"
    },
    {
      "anonymous": false,
      "inputs": [
        {
          "indexed": true,
          "internalType": "uint256",
          "name": "farmId",
          "type": "uint256"
        },
        {
          "indexed": true,
          "internalType": "address",
          "name": "user",
          "type": "address"
        },
        {
          "indexed": false,
          "internalType": "uint256",
          "name": "amount",
          "type": "uint256"
        }
      ],
      "name": "FarmDeposit",
      "type": "event"
    },
    {
      "anonymous": false,
      "inputs": [
        {
          "indexed": true,
          "internalType": "uint256",
          "name": "farmId",
          "type": "uint256"
        },
        {
          "indexed": true,
          "internalType": "address",
          "name": "user",
          "type": "address"
        },
        {
          "indexed": false,
          "internalType": "uint256",
          "name": "amount",
          "type": "uint256"
        }
      ],
      "name": "FarmWithdraw",
      "type": "event"
    },
    {
      "anonymous": false,
      "inputs": [
        {
          "indexed": true,
          "internalType": "uint256",
          "name": "poolId",
          "type": "uint256"
        },
        {
          "indexed": true,
          "internalType": "address",
          "name": "asset",
          "type": "address"
        }
      ],
      "name": "LendingPoolCreated",
      "type": "event"
    },
    {
      "anonymous": false,
      "inputs": [
        {
          "indexed": true,
          "internalType": "uint256",
          "name": "poolId",
          "type": "uint256"
        },
        {
          "indexed": true,
          "internalType": "address",
          "name": "provider",
          "type": "address"
        },
        {
          "indexed": false,
          "internalType": "uint256",
          "name": "amount0",
          "type": "uint256"
        },
        {
          "indexed": false,
          "internalType": "uint256",
          "name": "amount1",
          "type": "uint256"
        }
      ],
      "name": "LiquidityAdded",
      "type": "event"
    },
    {
      "anonymous": false,
      "inputs": [
        {
          "indexed": true,
          "internalType": "uint256",
          "name": "poolId",
          "type": "uint256"
        },
        {
          "indexed": true,
          "internalType": "address",
          "name": "provider",
          "type": "address"
        },
        {
          "indexed": false,
          "internalType": "uint256",
          "name": "amount0",
          "type": "uint256"
        },
        {
          "indexed": false,
          "internalType": "uint256",
          "name": "amount1",
          "type": "uint256"
        }
      ],
      "name": "LiquidityRemoved",
      "type": "event"
    },
    {
      "anonymous": false,
      "inputs": [
        {
          "indexed": true,
          "internalType": "uint256",
          "name": "poolId",
          "type": "uint256"
        },
        {
          "indexed": true,
          "internalType": "address",
          "name": "token0",
          "type": "address"
        },
        {
          "indexed": true,
          "internalType": "address",
          "name": "token1",
          "type": "address"
        }
      ],
      "name": "PoolCreated",
      "type": "event"
    },
    {
      "anonymous": false,
      "inputs": [
        {
          "indexed": true,
          "internalType": "uint256",
          "name": "poolId",
          "type": "uint256"
        },
        {
          "indexed": true,
          "internalType": "address",
          "name": "user",
          "type": "address"
        },
        {
          "indexed": false,
          "internalType": "uint256",
          "name": "amount",
          "type": "uint256"
        }
      ],
      "name": "Repaid",
      "type": "event"
    },
    {
      "anonymous": false,
      "inputs": [
        {
          "indexed": true,
          "internalType": "uint256",
          "name": "farmId",
          "type": "uint256"
        },
        {
          "indexed": true,
          "internalType": "address",
          "name": "user",
          "type": "address"
        },
        {
          "indexed": false,
          "internalType": "uint256",
          "name": "rewards",
          "type": "uint256"
        }
      ],
      "name": "RewardsClaimed",
      "type": "event"
    },
    {
      "anonymous": false,
      "inputs": [
        {
          "indexed": true,
          "internalType": "bytes32",
          "name": "role",
          "type": "bytes32"
        },
        {
          "indexed": true,
          "internalType": "bytes32",
          "name": "previousAdminRole",
          "type": "bytes32"
        },
        {
          "indexed": true,
          "internalType": "bytes32",
          "name": "newAdminRole",
          "type": "bytes32"
        }
      ],
      "name": "RoleAdminChanged",
      "type": "event"
    },
    {
      "anonymous": false,
      "inputs": [
        {
          "indexed": true,
          "internalType": "bytes32",
          "name": "role",
          "type": "bytes32"
        },
        {
          "indexed": true,
          "internalType": "address",
          "name": "account",
          "type": "address"
        },
        {
          "indexed": true,
          "internalType": "address",
          "name": "sender",
          "type": "address"
        }
      ],
      "name": "RoleGranted",
      "type": "event"
    },
    {
      "anonymous": false,
      "inputs": [
        {
          "indexed": true,
          "internalType": "bytes32",
          "name": "role",
          "type": "bytes32"
        },
        {
          "indexed": true,
          "internalType": "address",
          "name": "account",
          "type": "address"
        },
        {
          "indexed": true,
          "internalType": "address",
          "name": "sender",
          "type": "address"
        }
      ],
      "name": "RoleRevoked",
      "type": "event"
    },
    {
      "anonymous": false,
      "inputs": [
        {
          "indexed": true,
          "internalType": "uint256",
          "name": "poolId",
          "type": "uint256"
        },
        {
          "indexed": true,
          "internalType": "address",
          "name": "user",
          "type": "address"
        },
        {
          "indexed": false,
          "internalType": "address",
          "name": "tokenIn",
          "type": "address"
        },
        {
          "indexed": false,
          "internalType": "uint256",
          "name": "amountIn",
          "type": "uint256"
        },
        {
          "indexed": false,
          "internalType": "uint256",
          "name": "amountOut",
          "type": "uint256"
        }
      ],
      "name": "TokensSwapped",
      "type": "event"
    },
    {
      "anonymous": false,
      "inputs": [
        {
          "indexed": true,
          "internalType": "uint256",
          "name": "poolId",
          "type": "uint256"
        },
        {
          "indexed": true,
          "internalType": "address",
          "name": "user",
          "type": "address"
        },
        {
          "indexed": false,
          "internalType": "uint256",
          "name": "amount",
          "type": "uint256"
        }
      ],
      "name": "Withdrawn",
      "type": "event"
    },
    {
      "anonymous": false,
      "inputs": [
        {
          "indexed": true,
          "internalType": "uint256",
          "name": "farmId",
          "type": "uint256"
        },
        {
          "indexed": true,
          "internalType": "address",
          "name": "lpToken",
          "type": "address"
        },
        {
          "indexed": true,
          "internalType": "address",
          "name": "rewardToken",
          "type": "address"
        }
      ],
      "name": "YieldFarmCreated",
      "type": "event"
    },
    {
      "inputs": [],
      "name": "ADMIN_ROLE",
      "outputs": [
        {
          "internalType": "bytes32",
          "name": "",
          "type": "bytes32"
        }
      ],
      "stateMutability": "view",
      "type": "function"
    },
    {
      "inputs": [],
      "name": "DEFAULT_ADMIN_ROLE",
      "outputs": [
        {
          "internalType": "bytes32",
          "name": "",
          "type": "bytes32"
        }
      ],
      "stateMutability": "view",
      "type": "function"
    },
    {
      "inputs": [],
      "name": "OPERATOR_ROLE",
      "outputs": [
        {
          "internalType": "bytes32",
          "name": "",
          "type": "bytes32"
        }
      ],
      "stateMutability": "view",
      "type": "function"
    },
    {
      "inputs": [
        {
          "internalType": "uint256",
          "name": "poolId",
          "type": "uint256"
        },
        {
          "internalType": "uint256",
          "name": "amount0Desired",
          "type": "uint256"
        },
        {
          "internalType": "uint256",
          "name": "amount1Desired",
          "type": "uint256"
        },
        {
          "internalType": "uint256",
          "name": "amount0Min",
          "type": "uint256"
        },
        {
          "internalType": "uint256",
          "name": "amount1Min",
          "type": "uint256"
        }
      ],
      "name": "addLiquidity",
      "outputs": [
        {
          "internalType": "uint256",
          "name": "liquidity",
          "type": "uint256"
        }
      ],
      "stateMutability": "nonpayable",
      "type": "function"
    },
    {
      "inputs": [
        {
          "internalType": "address",
          "name": "",
          "type": "address"
        }
      ],
      "name": "assetToLendingPool",
      "outputs": [
        {
          "internalType": "uint256",
          "name": "",
          "type": "uint256"
        }
      ],
      "stateMutability": "view",
      "type": "function"
    },
    {
      "inputs": [
        {
          "internalType": "uint256",
          "name": "poolId",
          "type": "uint256"
        },
        {
          "internalType": "address",
          "name": "user",
          "type": "address"
        }
      ],
      "name": "calculateInterest",
      "outputs": [
        {
          "internalType": "uint256",
          "name": "",
          "type": "uint256"
        }
      ],
      "stateMutability": "view",
      "type": "function"
    },
    {
      "inputs": [
        {
          "internalType": "uint256",
          "name": "farmId",
          "type": "uint256"
        }
      ],
      "name": "claimFarmRewards",
      "outputs": [],
      "stateMutability": "nonpayable",
      "type": "function"
    },
    {
      "inputs": [
        {
          "internalType": "address",
          "name": "asset",
          "type": "address"
        },
        {
          "internalType": "uint256",
          "name": "interestRate",
          "type": "uint256"
        },
        {
          "internalType": "uint256",
          "name": "collateralFactor",
          "type": "uint256"
        }
      ],
      "name": "createLendingPool",
      "outputs": [
        {
          "internalType": "uint256",
          "name": "",
          "type": "uint256"
        }
      ],
      "stateMutability": "nonpayable",
      "type": "function"
    },
    {
      "inputs": [
        {
          "internalType": "address",
          "name": "token0",
          "type": "address"
        },
        {
          "internalType": "address",
          "name": "token1",
          "type": "address"
        },
        {
          "internalType": "uint256",
          "name": "fee",
          "type": "uint256"
        }
      ],
      "name": "createPool",
      "outputs": [
        {
          "internalType": "uint256",
          "name": "",
          "type": "uint256"
        }
      ],
      "stateMutability": "nonpayable",
      "type": "function"
    },
    {
      "inputs": [
        {
          "internalType": "address",
          "name": "lpToken",
          "type": "address"
        },
        {
          "internalType": "address",
          "name": "rewardToken",
          "type": "address"
        },
        {
          "internalType": "uint256",
          "name": "rewardPerBlock",
          "type": "uint256"
        },
        {
          "internalType": "uint256",
          "name": "startBlock",
          "type": "uint256"
        },
        {
          "internalType": "uint256",
          "name": "duration",
          "type": "uint256"
        }
      ],
      "name": "createYieldFarm",
      "outputs": [
        {
          "internalType": "uint256",
          "name": "",
          "type": "uint256"
        }
      ],
      "stateMutability": "nonpayable",
      "type": "function"
    },
    {
      "inputs": [
        {
          "internalType": "uint256",
          "name": "farmId",
          "type": "uint256"
        },
        {
          "internalType": "uint256",
          "name": "amount",
          "type": "uint256"
        }
      ],
      "name": "farmDeposit",
      "outputs": [],
      "stateMutability": "nonpayable",
      "type": "function"
    },
    {
      "inputs": [
        {
          "internalType": "uint256",
          "name": "farmId",
          "type": "uint256"
        },
        {
          "internalType": "uint256",
          "name": "amount",
          "type": "uint256"
        }
      ],
      "name": "farmWithdraw",
      "outputs": [],
      "stateMutability": "nonpayable",
      "type": "function"
    },
    {
      "inputs": [],
      "name": "feeRecipient",
      "outputs": [
        {
          "internalType": "address",
          "name": "",
          "type": "address"
        }
      ],
      "stateMutability": "view",
      "type": "function"
    },
    {
      "inputs": [
        {
          "internalType": "uint256",
          "name": "farmId",
          "type": "uint256"
        }
      ],
      "name": "getFarmInfo",
      "outputs": [
        {
          "components": [
            {
              "internalType": "uint256",
              "name": "farmId",
              "type": "uint256"
            },
            {
              "internalType": "address",
              "name": "lpToken",
              "type": "address"
            },
            {
              "internalType": "address",
              "name": "rewardToken",
              "type": "address"
            },
            {
              "internalType": "uint256",
              "name": "rewardPerBlock",
              "type": "uint256"
            },
            {
              "internalType": "uint256",
              "name": "startBlock",
              "type": "uint256"
            },
            {
              "internalType": "uint256",
              "name": "endBlock",
              "type": "uint256"
            },
            {
              "internalType": "uint256",
              "name": "totalStaked",
              "type": "uint256"
            },
            {
              "internalType": "uint256",
              "name": "accRewardPerShare",
              "type": "uint256"
            },
            {
              "internalType": "uint256",
              "name": "lastRewardBlock",
              "type": "uint256"
            },
            {
              "internalType": "bool",
              "name": "active",
              "type": "bool"
            }
          ],
          "internalType": "struct DeFiModule.YieldFarm",
          "name": "",
          "type": "tuple"
        }
      ],
      "stateMutability": "view",
      "type": "function"
    },
    {
      "inputs": [
        {
          "internalType": "address",
          "name": "",
          "type": "address"
        },
        {
          "internalType": "address",
          "name": "",
          "type": "address"
        }
      ],
      "name": "getPoolId",
      "outputs": [
        {
          "internalType": "uint256",
          "name": "",
          "type": "uint256"
        }
      ],
      "stateMutability": "view",
      "type": "function"
    },
    {
      "inputs": [
        {
          "internalType": "uint256",
          "name": "poolId",
          "type": "uint256"
        }
      ],
      "name": "getPoolInfo",
      "outputs": [
        {
          "internalType": "address",
          "name": "token0",
          "type": "address"
        },
        {
          "internalType": "address",
          "name": "token1",
          "type": "address"
        },
        {
          "internalType": "uint256",
          "name": "reserve0",
          "type": "uint256"
        },
        {
          "internalType": "uint256",
          "name": "reserve1",
          "type": "uint256"
        },
        {
          "internalType": "uint256",
          "name": "totalLiquidity",
          "type": "uint256"
        },
        {
          "internalType": "uint256",
          "name": "fee",
          "type": "uint256"
        },
        {
          "internalType": "bool",
          "name": "active",
          "type": "bool"
        }
      ],
      "stateMutability": "view",
      "type": "function"
    },
    {
      "inputs": [
        {
          "internalType": "bytes32",
          "name": "role",
          "type": "bytes32"
        }
      ],
      "name": "getRoleAdmin",
      "outputs": [
        {
          "internalType": "bytes32",
          "name": "",
          "type": "bytes32"
        }
      ],
      "stateMutability": "view",
      "type": "function"
    },
    {
      "inputs": [
        {
          "internalType": "uint256",
          "name": "farmId",
          "type": "uint256"
        },
        {
          "internalType": "address",
          "name": "user",
          "type": "address"
        }
      ],
      "name": "getUserFarmInfo",
      "outputs": [
        {
          "components": [
            {
              "internalType": "uint256",
              "name": "amount",
              "type": "uint256"
            },
            {
              "internalType": "uint256",
              "name": "rewardDebt",
              "type": "uint256"
            },
            {
              "internalType": "uint256",
              "name": "pendingRewards",
              "type": "uint256"
            }
          ],
          "internalType": "struct DeFiModule.UserFarmInfo",
          "name": "",
          "type": "tuple"
        }
      ],
      "stateMutability": "view",
      "type": "function"
    },
    {
      "inputs": [
        {
          "internalType": "uint256",
          "name": "poolId",
          "type": "uint256"
        },
        {
          "internalType": "address",
          "name": "user",
          "type": "address"
        }
      ],
      "name": "getUserLiquidity",
      "outputs": [
        {
          "internalType": "uint256",
          "name": "",
          "type": "uint256"
        }
      ],
      "stateMutability": "view",
      "type": "function"
    },
    {
      "inputs": [
        {
          "internalType": "bytes32",
          "name": "role",
          "type": "bytes32"
        },
        {
          "internalType": "address",
          "name": "account",
          "type": "address"
        }
      ],
      "name": "grantRole",
      "outputs": [],
      "stateMutability": "nonpayable",
      "type": "function"
    },
    {
      "inputs": [
        {
          "internalType": "bytes32",
          "name": "role",
          "type": "bytes32"
        },
        {
          "internalType": "address",
          "name": "account",
          "type": "address"
        }
      ],
      "name": "hasRole",
      "outputs": [
        {
          "internalType": "bool",
          "name": "",
          "type": "bool"
        }
      ],
      "stateMutability": "view",
      "type": "function"
    },
    {
      "inputs": [
        {
          "internalType": "uint256",
          "name": "poolId",
          "type": "uint256"
        },
        {
          "internalType": "uint256",
          "name": "amount",
          "type": "uint256"
        }
      ],
      "name": "lendingDeposit",
      "outputs": [],
      "stateMutability": "nonpayable",
      "type": "function"
    },
    {
      "inputs": [
        {
          "internalType": "uint256",
          "name": "",
          "type": "uint256"
        }
      ],
      "name": "lendingPools",
      "outputs": [
        {
          "internalType": "uint256",
          "name": "poolId",
          "type": "uint256"
        },
        {
          "internalType": "address",
          "name": "asset",
          "type": "address"
        },
        {
          "internalType": "uint256",
          "name": "totalDeposits",
          "type": "uint256"
        },
        {
          "internalType": "uint256",
          "name": "totalBorrows",
          "type": "uint256"
        },
        {
          "internalType": "uint256",
          "name": "interestRate",
          "type": "uint256"
        },
        {
          "internalType": "uint256",
          "name": "collateralFactor",
          "type": "uint256"
        },
        {
          "internalType": "bool",
          "name": "active",
          "type": "bool"
        }
      ],
      "stateMutability": "view",
      "type": "function"
    },
    {
      "inputs": [
        {
          "internalType": "uint256",
          "name": "poolId",
          "type": "uint256"
        },
        {
          "internalType": "uint256",
          "name": "amount",
          "type": "uint256"
        }
      ],
      "name": "lendingWithdraw",
      "outputs": [],
      "stateMutability": "nonpayable",
      "type": "function"
    },
    {
      "inputs": [
        {
          "internalType": "uint256",
          "name": "",
          "type": "uint256"
        }
      ],
      "name": "liquidityPools",
      "outputs": [
        {
          "internalType": "uint256",
          "name": "poolId",
          "type": "uint256"
        },
        {
          "internalType": "address",
          "name": "token0",
          "type": "address"
        },
        {
          "internalType": "address",
          "name": "token1",
          "type": "address"
        },
        {
          "internalType": "uint256",
          "name": "reserve0",
          "type": "uint256"
        },
        {
          "internalType": "uint256",
          "name": "reserve1",
          "type": "uint256"
        },
        {
          "internalType": "uint256",
          "name": "totalLiquidity",
          "type": "uint256"
        },
        {
          "internalType": "uint256",
          "name": "fee",
          "type": "uint256"
        },
        {
          "internalType": "bool",
          "name": "active",
          "type": "bool"
        }
      ],
      "stateMutability": "view",
      "type": "function"
    },
    {
      "inputs": [],
      "name": "nextFarmId",
      "outputs": [
        {
          "internalType": "uint256",
          "name": "",
          "type": "uint256"
        }
      ],
      "stateMutability": "view",
      "type": "function"
    },
    {
      "inputs": [],
      "name": "nextLendingPoolId",
      "outputs": [
        {
          "internalType": "uint256",
          "name": "",
          "type": "uint256"
        }
      ],
      "stateMutability": "view",
      "type": "function"
    },
    {
      "inputs": [],
      "name": "nextPoolId",
      "outputs": [
        {
          "internalType": "uint256",
          "name": "",
          "type": "uint256"
        }
      ],
      "stateMutability": "view",
      "type": "function"
    },
    {
      "inputs": [],
      "name": "platformFeePercent",
      "outputs": [
        {
          "internalType": "uint256",
          "name": "",
          "type": "uint256"
        }
      ],
      "stateMutability": "view",
      "type": "function"
    },
    {
      "inputs": [
        {
          "internalType": "uint256",
          "name": "poolId",
          "type": "uint256"
        },
        {
          "internalType": "uint256",
          "name": "liquidity",
          "type": "uint256"
        },
        {
          "internalType": "uint256",
          "name": "amount0Min",
          "type": "uint256"
        },
        {
          "internalType": "uint256",
          "name": "amount1Min",
          "type": "uint256"
        }
      ],
      "name": "removeLiquidity",
      "outputs": [
        {
          "internalType": "uint256",
          "name": "amount0",
          "type": "uint256"
        },
        {
          "internalType": "uint256",
          "name": "amount1",
          "type": "uint256"
        }
      ],
      "stateMutability": "nonpayable",
      "type": "function"
    },
    {
      "inputs": [
        {
          "internalType": "bytes32",
          "name": "role",
          "type": "bytes32"
        },
        {
          "internalType": "address",
          "name": "account",
          "type": "address"
        }
      ],
      "name": "renounceRole",
      "outputs": [],
      "stateMutability": "nonpayable",
      "type": "function"
    },
    {
      "inputs": [
        {
          "internalType": "bytes32",
          "name": "role",
          "type": "bytes32"
        },
        {
          "internalType": "address",
          "name": "account",
          "type": "address"
        }
      ],
      "name": "revokeRole",
      "outputs": [],
      "stateMutability": "nonpayable",
      "type": "function"
    },
    {
      "inputs": [
        {
          "internalType": "address",
          "name": "token",
          "type": "address"
        },
        {
          "internalType": "uint256",
          "name": "price",
          "type": "uint256"
        }
      ],
      "name": "setTokenPrice",
      "outputs": [],
      "stateMutability": "nonpayable",
      "type": "function"
    },
    {
      "inputs": [
        {
          "internalType": "bytes4",
          "name": "interfaceId",
          "type": "bytes4"
        }
      ],
      "name": "supportsInterface",
      "outputs": [
        {
          "internalType": "bool",
          "name": "",
          "type": "bool"
        }
      ],
      "stateMutability": "view",
      "type": "function"
    },
    {
      "inputs": [
        {
          "internalType": "uint256",
          "name": "poolId",
          "type": "uint256"
        },
        {
          "internalType": "address",
          "name": "tokenIn",
          "type": "address"
        },
        {
          "internalType": "uint256",
          "name": "amountIn",
          "type": "uint256"
        },
        {
          "internalType": "uint256",
          "name": "amountOutMin",
          "type": "uint256"
        },
        {
          "internalType": "address",
          "name": "to",
          "type": "address"
        }
      ],
      "name": "swapTokens",
      "outputs": [
        {
          "internalType": "uint256",
          "name": "amountOut",
          "type": "uint256"
        }
      ],
      "stateMutability": "nonpayable",
      "type": "function"
    },
    {
      "inputs": [
        {
          "internalType": "address",
          "name": "",
          "type": "address"
        }
      ],
      "name": "tokenPrices",
      "outputs": [
        {
          "internalType": "uint256",
          "name": "",
          "type": "uint256"
        }
      ],
      "stateMutability": "view",
      "type": "function"
    },
    {
      "inputs": [
        {
          "internalType": "uint256",
          "name": "newFeePercent",
          "type": "uint256"
        }
      ],
      "name": "updatePlatformFee",
      "outputs": [],
      "stateMutability": "nonpayable",
      "type": "function"
    },
    {
      "inputs": [
        {
          "internalType": "uint256",
          "name": "",
          "type": "uint256"
        },
        {
          "internalType": "address",
          "name": "",
          "type": "address"
        }
      ],
      "name": "userFarmInfo",
      "outputs": [
        {
          "internalType": "uint256",
          "name": "amount",
          "type": "uint256"
        },
        {
          "internalType": "uint256",
          "name": "rewardDebt",
          "type": "uint256"
        },
        {
          "internalType": "uint256",
          "name": "pendingRewards",
          "type": "uint256"
        }
      ],
      "stateMutability": "view",
      "type": "function"
    },
    {
      "inputs": [
        {
          "internalType": "uint256",
          "name": "",
          "type": "uint256"
        }
      ],
      "name": "yieldFarms",
      "outputs": [
        {
          "internalType": "uint256",
          "name": "farmId",
          "type": "uint256"
        },
        {
          "internalType": "address",
          "name": "lpToken",
          "type": "address"
        },
        {
          "internalType": "address",
          "name": "rewardToken",
          "type": "address"
        },
        {
          "internalType": "uint256",
          "name": "rewardPerBlock",
          "type": "uint256"
        },
        {
          "internalType": "uint256",
          "name": "startBlock",
          "type": "uint256"
        },
        {
          "internalType": "uint256",
          "name": "endBlock",
          "type": "uint256"
        },
        {
          "internalType": "uint256",
          "name": "totalStaked",
          "type": "uint256"
        },
        {
          "internalType": "uint256",
          "name": "accRewardPerShare",
          "type": "uint256"
        },
        {
          "internalType": "uint256",
          "name": "lastRewardBlock",
          "type": "uint256"
        },
        {
          "internalType": "bool",
          "name": "active",
          "type": "bool"
        }
      ],
      "stateMutability": "view",
      "type": "function"
    }
  ],
  "bytecode": "0x6080346200022457601f62002f3238819003918201601f1916830192916001600160401b038411838510176200022957808392604095865283396020928391810103126200022457516001600160a01b038116919082900362000224576001808055806008558060095580600a556005600b558215620001e057600090818052818352848220338352835260ff858320541615620001a9575b7fa49807205ce4d355092ef5a8a18f56e8913cf4a201fbe287825b095693c21775808352828452858320338452845260ff86842054161562000170575b507f97667070c54ef182b0f5858b034beac1b6f3089aa2d3188bb1e8929f4fa9b92992838352828152858320338452815260ff86842054161562000135575b600c80546001600160a01b031916861790558551612cd29081620002408239f35b83835282815285832090338452528482209060ff19825416179055339160008051602062002f12833981519152339280a43880808062000114565b80835282845285832033845284528583208260ff198254161790553390339060008051602062002f128339815191528580a438620000d5565b81805281835284822033835283528482208160ff1982541617905533338360008051602062002f128339815191528180a462000098565b835162461bcd60e51b815260048101839052601560248201527f496e76616c69642066656520726563697069656e7400000000000000000000006044820152606490fd5b600080fd5b634e487b7160e01b600052604160045260246000fdfe6080604052600436101561001257600080fd5b60003560e01c806301897cce1461218b57806301ffc9a7146121355780630658f495146120bb5780630998bb4014611f7057806318e5613114611f525780631fe9efcc14611df1578063204120bc14611db7578063248a9ca314611d885780632ef61c2114611d375780632f2ff15d14611c845780632f380b3514611c0457806336568abe14611b7257806339986b8814611a065780633a2a017f146119a7578063431f63c91461176e57806346904840146117455780634ca8076a1461171757806351810fb5146115605780636844e85a146115425780636a4c3264146114f757806375b238fc146114bc57806379d747be146114335780638c639a85146114155780638d47d579146112ad57806391d1485414611260578063a217fddf14611244578063a360501c14610f14578063a3d6264614610d35578063aa0b598814610d07578063bb9613f314610c70578063d547741f14610c2f578063d55de0b9146107f8578063e7eaf05514610645578063e9a654ce146104fc578063eb348b21146104c2578063ee758c19146104a4578063f5b541a614610469578063f88bf15a1461026e5763fd42c897146101c957600080fd5b34610269576020366003190112610269576004356000526003602052610140604060002080549060018060a01b039081600182015416916002820154166003820154600483015460058401549060068501549260078601549460ff600960088901549801541697604051998a5260208a015260408901526060880152608087015260a086015260c085015260e08401526101008301521515610120820152f35b600080fd5b346102695760803660031901126102695760043560243561028d612a4a565b81600052602091600283526040600020926008840191336000528282526102bb846040600020541015612aa0565b600385016102ca815486612819565b906005870161032c6102de82548095612a12565b976102f760048b01956102f2875484612819565b612a12565b976044358a10158061045d575b61030d90612ae5565b3360005287526040600020610323828254612b31565b90558254612b31565b9055610339868254612b31565b9055610346848254612b31565b9055600185015460405163a9059cbb60e01b808252336004830152602482018790529690916001600160a01b03919085908490604490829060009087165af1908115610434578593600292610440575b5001546040519788523360048901526024880186905287916044918391600091165af194851561043457604095610407575b5084519084825283838301527f196a4bf617b45641f176c4e6d288ccf7498f1699f68b1cc1e4daadf92779703b863393a3600180558351928352820152f35b61042690833d851161042d575b61041e8183612783565b810190612a32565b50856103c8565b503d610414565b6040513d6000823e3d90fd5b61045690853d871161042d5761041e8183612783565b5089610396565b50606435891015610304565b346102695760003660031901126102695760206040517f97667070c54ef182b0f5858b034beac1b6f3089aa2d3188bb1e8929f4fa9b9298152f35b34610269576000366003190112610269576020600a54604051908152f35b34610269576020366003190112610269576001600160a01b036104e36123c3565b1660005260076020526020604060002054604051908152f35b346102695761050a366123ad565b90610513612a4a565b8060005260206005815260406000209061053360ff6006840154166129d4565b83156106105760018201546040516323b872dd60e01b81523360048201523060248201526044810186905292908290849060649082906000906001600160a01b03165af1908115610434577f1599c0fcf897af5babc2bfcf707f5dc050f841b044d97c3251ecec35b9abf80b936009926105f3575b503360005260078101835260406000206105c387825461282c565b9055600281016105d487825461282c565b905533600052018152426040600020556040519384523393a360018055005b61060990843d861161042d5761041e8183612783565b50866105a8565b6064906040519062461bcd60e51b82526004820152600e60248201526d125b9d985b1a5908185b5bdd5b9d60921b6044820152fd5b346102695760a03660031901126102695761065e6123c3565b6106666123d9565b60443560643592608435916106796123ef565b6001600160a01b0391821693841515806107ed575b156107b757811561077c578315610744576020956009926106bc8454966106b4886129c5565b86558361282c565b90866000526003895260406000209387855560018501966001600160601b0360a01b978a89825416179055600286019116809782541617905560038401558160048401556005830155600882015501600160ff1982541617905560405192827f34a8e3758b82e6e6de3fa07beff078c445009d5124735273e4970332bfe3441b600080a48152f35b60405162461bcd60e51b815260206004820152601060248201526f24b73b30b634b210323ab930ba34b7b760811b6044820152606490fd5b60405162461bcd60e51b8152602060048201526013602482015272496e76616c696420726577617264207261746560681b6044820152606490fd5b60405162461bcd60e51b815260206004820152600e60248201526d496e76616c696420746f6b656e7360901b6044820152606490fd5b50828116151561068e565b346102695760a0366003190112610269576108116123d9565b6084356001600160a01b038116908190036102695761082e612a4a565b6004356000526002602052604060002061084e60ff6007830154166129d4565b60018101546001600160a01b0384811691161491828015610c16575b15610be15715610ba8578115610b9d576003810154915b8015610b92576004820154925b6006830154612710908103818111610b7c576108ac90604435612819565b916108b78684612819565b908083810204831481151715610b7c576108f5936108df936108d9920261282c565b90612a12565b936108ee606435861015612ae5565b8410612aa0565b6040516323b872dd60e01b8152336004820152306024820152604480359082015260208160648160006001600160a01b038a165af1801561043457610b5d575b5015610abb576003810161094c604435825461282c565b90556004810161095d838254612b31565b9055600281015460405163a9059cbb60e01b81526001600160a01b03608435811660048301526024820185905290929160209184916044918391600091165af19182156104345760066109cd926109c492620f424095610a9c575b505b0154604435612819565b600b5490612819565b049182610a2a575b602092506040519060018060a01b031681526044358382015281604082015233907f3fa1092b83b3207fa51fa784cbe03d9b690c573396c03c75ee2b76eaeaae44d7606060043592a360018055604051908152f35b600c5460405163a9059cbb60e01b81526001600160a01b03909116600482015260248101939093526020838060448101038160006001600160a01b0386165af192831561043457602093610a7f575b506109d5565b610a9590843d861161042d5761041e8183612783565b5083610a79565b610ab49060203d60201161042d5761041e8183612783565b50876109b8565b60048101610acc604435825461282c565b905560038101610add838254612b31565b9055600181015460405163a9059cbb60e01b81526001600160a01b03608435811660048301526024820185905290929160209184916044918391600091165af19182156104345760066109cd926109c492620f424095610b3e575b506109ba565b610b569060203d60201161042d5761041e8183612783565b5087610b38565b610b759060203d60201161042d5761041e8183612783565b5084610935565b634e487b7160e01b600052601160045260246000fd5b60038201549261088e565b600481015491610881565b60405162461bcd60e51b8152602060048201526011602482015270125b9d985b1a59081c9958da5c1a595b9d607a1b6044820152606490fd5b60405162461bcd60e51b815260206004820152600d60248201526c24b73b30b634b2103a37b5b2b760991b6044820152606490fd5b5060028201546001600160a01b0385811691161461086a565b3461026957604036600319011261026957610c6e600435610c4e6123d9565b90806000526000602052610c696001604060002001546125ea565b6127a5565b005b3461026957604036600319011261026957610c896123d9565b600060408051610c988161274b565b8281528260208201520152600435600052600460205260406000209060018060a01b031660005260205260606040600020604051610cd58161274b565b815491828252604060026001830154926020850193845201549201918252604051928352516020830152516040820152f35b3461026957602036600319011261026957600435610d236123ef565b610d306064821115612948565b600b55005b3461026957610d43366123ad565b90610d4c612a4a565b806000526020600581526040600020926007840190336000528183528060406000205410610ed8576024610d89610d833387612bf4565b8361282c565b95600181019260018060a01b03948686865416604051958680926370a0823160e01b82523060048301525afa8015610434578994600091610ea4575b50600994610dd4911015612aa0565b3360005286526040600020610dea828254612b31565b9055610dfb60028301918254612b31565b9055336000520183524260406000205554169080604051809363a9059cbb60e01b825281600081610e458a336004840160209093929193604081019460018060a01b031681520152565b03925af1918215610434577fcf7d23a3cbe4e8b36ff82fd1b05b1b17373dc7804b4ebbd6e2356716ef20237292610e87575b506040519384523393a360018055005b610e9d90823d841161042d5761041e8183612783565b5084610e77565b809550888092503d8311610ed1575b610ebd8183612783565b810103126102695792518893906009610dc5565b503d610eb3565b60405162461bcd60e51b8152600481018490526014602482015273125b9cdd59999a58da595b9d0819195c1bdcda5d60621b6044820152606490fd5b346102695760a036600319011261026957600435602435604435610f36612a4a565b8260005260209260028452604060002092610f5760ff6007860154166129d4565b60038401938454801580611238575b156111175750610f80610f7b83958094612819565b612c52565b945b85156110d25760018201546040516323b872dd60e01b808252336004830152306024830152604482018890529392916001600160a01b03908a908390606490829060009086165af1918215610434578a926110b5575b5060028401546040519586523360048701523060248701526044860187905285916064918391600091165af192831561043457600893611098575b5061101f86825461282c565b90556004810161103084825461282c565b90556005810161104187825461282c565b905533600052018552604060002061105a85825461282c565b9055604051928352848301527f4f523f2d8e587b404d27e399464f42a7ffc415da39a6130a6e0e6d3be912832660403393a360018055604051908152f35b6110ae90893d8b1161042d5761041e8183612783565b5088611013565b6110cb90833d851161042d5761041e8183612783565b508a610fd8565b60405162461bcd60e51b815260048101889052601d60248201527f496e73756666696369656e74206c6971756964697479206d696e7465640000006044820152606490fd5b60048201549261112b826102f28684612819565b958087116111bd57506084358610611178576111619095935b6102f261115a6005860154946102f2868b612819565b9386612819565b8082101561117157505b94610f82565b905061116b565b60405162461bcd60e51b815260048101899052601a60248201527f496e73756666696369656e7420746f6b656e3120616d6f756e740000000000006044820152606490fd5b95506111cd846102f28489612819565b908111158061122c575b156111e757611161909593611144565b60405162461bcd60e51b815260048101899052601a60248201527f496e73756666696369656e7420746f6b656e3020616d6f756e740000000000006044820152606490fd5b506064358110156111d7565b50600482015415610f66565b3461026957600036600319011261026957602060405160008152f35b34610269576040366003190112610269576112796123d9565b600435600052600060205260406000209060018060a01b0316600052602052602060ff604060002054166040519015158152f35b34610269576020366003190112610269576101406040516112cd81612718565b6000815260006020820152600060408201526000606082015260006080820152600060a0820152600060c0820152600060e08201526000610120610100928284820152015260043560005260036020526101206040600020916040519061133382612718565b60ff600985549586855260018060a01b03600182015416602086015260018060a01b0360028201541660408601526003810154606086015260048101546080860152600581015460a0860152600681015460c0860152600781015460e086015260088101548486015201541615158383015260405193845260018060a01b03602083015116602085015260018060a01b036040830151166040850152606082015160608501526080820151608085015260a082015160a085015260c082015160c085015260e082015160e0850152808201519084015201511515610120820152f35b34610269576000366003190112610269576020600b54604051908152f35b34610269576020366003190112610269576004356000526002602052610100604060002080549060018060a01b03908160018201541691600282015416600382015460048301549060058401549260ff600760068701549601541695604051978852602088015260408701526060860152608085015260a084015260c0830152151560e0820152f35b346102695760003660031901126102695760206040517fa49807205ce4d355092ef5a8a18f56e8913cf4a201fbe287825b095693c217758152f35b34610269576040366003190112610269576115106123d9565b600435600052600260205260086040600020019060018060a01b03166000526020526020604060002054604051908152f35b34610269576000366003190112610269576020600954604051908152f35b34610269576060366003190112610269576115796123c3565b6115816123d9565b9060443561158d6123ef565b6001600160a01b0392918381169083818682168481146116df57841515806116d6575b156116a25787946115c5612710881115612948565b11611697575b50501691826000526020936006855260406000209116908160005284526115f760406000205415612983565b600760085492611606846129c5565b6008558360005260028652604060002090848255600182016001600160601b0360a01b908782825416179055846002840191825416179055600682015501600160ff19825416179055826000526006845260406000208160005284528160406000205560405192827f1a7a1d16c3ec9167827a7be3534be26288720a0bdd3de56d290f415db3d3e0a6600080a48152f35b9450905085806115cb565b60405162461bcd60e51b815260206004820152600c60248201526b5a65726f206164647265737360a01b6044820152606490fd5b508015156115b0565b60405162461bcd60e51b815260206004820152601060248201526f4964656e746963616c20746f6b656e7360801b6044820152606490fd5b3461026957604036600319011261026957602061173d6117356123d9565b600435612bf4565b604051908152f35b3461026957600036600319011261026957600c546040516001600160a01b039091168152602090f35b34610269576040366003190112610269576117876123c3565b3360009081527fee57cd81e84075558e8fcc182a1f4393f91fc97f963a136e66b7f949a62f319f60209081526040909120547f97667070c54ef182b0f5858b034beac1b6f3089aa2d3188bb1e8929f4fa9b929929060ff1615611802576001600160a01b03166000908152600d909152604090206024359055005b5061180c3361284a565b60405161181881612767565b604281528281019360603686378151156119915760308553815160019081101561199157607860218401536041905b80821161194d57505061190a57906118d36048604494936040519687916118c48784019676020b1b1b2b9b9a1b7b73a3937b61d1030b1b1b7bab73a1604d1b885261189b815180928b6037890191016126f5565b8401917001034b99036b4b9b9b4b733903937b6329607d1b6037840152518093868401906126f5565b01036028810187520185612783565b6118fc60405194859362461bcd60e51b85526004850152518092816024860152858501906126f5565b601f01601f19168101030190fd5b6064836040519062461bcd60e51b825280600483015260248201527f537472696e67733a20686578206c656e67746820696e73756666696369656e746044820152fd5b9091600f81166010811015611991576f181899199a1a9b1b9c1cb0b131b232b360811b901a61197c8486612839565b5360041c918015610b7c576000190190611847565b634e487b7160e01b600052603260045260246000fd5b34610269576040366003190112610269576119c06123d9565b600435600052600460205260406000209060018060a01b031660005260205260606040600020805490600260018201549101549060405192835260208301526040820152f35b3461026957611a14366123ad565b90611a1d612a4a565b806000526020600381526040600020600482526040600020336000528252604060002084815410611b2d57611a5184612b3e565b805490611ab66007840164e8d4a5100092611a9a8985611a72855489612819565b0496611a846001850198895490612b31565b611a936002860191825461282c565b9055612b31565b815560068601611aab8a8254612b31565b905554905490612819565b0490556001015460405163a9059cbb60e01b81523360048201526024810185905291908190839060449082906000906001600160a01b03165af1918215610434577f16c1a1bacd63dc939235e3e88d47c1fd96b384c12c556d347690bedd15163c6992610e8757506040519384523393a360018055005b60405162461bcd60e51b815260048101849052601a60248201527f496e73756666696369656e74207374616b656420616d6f756e740000000000006044820152606490fd5b3461026957604036600319011261026957611b8b6123d9565b336001600160a01b03821603611ba757610c6e906004356127a5565b60405162461bcd60e51b815260206004820152602f60248201527f416363657373436f6e74726f6c3a2063616e206f6e6c792072656e6f756e636560448201526e103937b632b9903337b91039b2b63360891b6064820152608490fd5b3461026957602036600319011261026957600435600052600260205260e0604060002060018060a01b03908160018201541691600282015416906003810154600482015460058301549160ff600760068601549501541694604051968752602087015260408601526060850152608084015260a0830152151560c0820152f35b3461026957604036600319011261026957600435611ca06123d9565b816000526000602052611cba6001604060002001546125ea565b81600052600060205260406000209060018060a01b0316908160005260205260ff6040600020541615611ce957005b8160005260006020526040600020816000526020526040600020600160ff1982541617905533917f2f8788117e7eff1d82e926ec794901d17c78024a50270940304540a733656f0d600080a4005b3461026957604036600319011261026957611d506123c3565b611d586123d9565b9060018060a01b038091166000526006602052604060002091166000526020526020604060002054604051908152f35b346102695760203660031901126102695760043560005260006020526020600160406000200154604051908152f35b34610269576020366003190112610269576001600160a01b03611dd86123c3565b16600052600d6020526020604060002054604051908152f35b3461026957606036600319011261026957611e0a6123c3565b60443590611e166123ef565b6001600160a01b03168015611f1d57806000526007602052611e3d60406000205415612983565b6123288211611ed8576020916006600a5491611e58836129c5565b600a55826000526005855260406000209083825560018201856001600160601b0360a01b8254161790556024356004830155600582015501600160ff1982541617905581600052600783528060406000205560405191817fb4aebbc195ac71eaa822ef90c7ec346a1c3a4372b8d1c8b269800e15270b741a600080a38152f35b60405162461bcd60e51b815260206004820152601a60248201527f436f6c6c61746572616c20666163746f7220746f6f20686967680000000000006044820152606490fd5b60405162461bcd60e51b815260206004820152600d60248201526c125b9d985b1a5908185cdcd95d609a1b6044820152606490fd5b34610269576000366003190112610269576020600854604051908152f35b346102695760208060031936011261026957600435611f8d612a4a565b8060005260038252604060002091600481526040600020336000528152604060002092611fb983612b3e565b8354600782019064e8d4a510009081611fd3845483612819565b0492611ff46002611fea60018b0196875490612b31565b990198895461282c565b97881561208057600090555461200991612819565b0490556002015460405163a9059cbb60e01b81523360048201526024810185905291908190839060449082906000906001600160a01b03165af1918215610434577f3300bdb359cfb956935bca32e9db727413eab1ca84341f2e36caea85bb79696892610e8757506040519384523393a360018055005b60405162461bcd60e51b81526004810188905260136024820152724e6f207265776172647320746f20636c61696d60681b6044820152606490fd5b3461026957602036600319011261026957600435600052600560205260e0604060002080549060018060a01b03600182015416906002810154600382015460048301549160ff600660058601549501541694604051968752602087015260408601526060850152608084015260a0830152151560c0820152f35b346102695760203660031901126102695760043563ffffffff60e01b811680910361026957602090637965db0b60e01b811490811561217a575b506040519015158152f35b6301ffc9a760e01b1490508261216f565b3461026957612199366123ad565b906121a2612a4a565b80600052602060038152604060002090600481526040600020336000528152604060002060ff60098401541615612376576004830154431061233e57600583015443101561230c576121f384612b3e565b8054806122d1575b5060018301546040516323b872dd60e01b81523360048201523060248201526044810187905293908390859060649082906000906001600160a01b03165af1938415610434576122a160019264e8d4a51000927f88b56586f9146bcaf4dc5da3adbb2231b0b4e9885b21eee313e16c0eb4cf9666976122b4575b5061228189865461282c565b8555600681016122928a825461282c565b90556007855491015490612819565b049101556040519384523393a360018055005b6122ca90873d891161042d5761041e8183612783565b5089612275565b64e8d4a510006122e96122f592600787015490612819565b04600183015490612b31565b6123046002830191825461282c565b9055856121fb565b60405162461bcd60e51b815260048101839052600a60248201526911985c9b48195b99195960b21b6044820152606490fd5b60405162461bcd60e51b815260048101839052601060248201526f11985c9b481b9bdd081cdd185c9d195960821b6044820152606490fd5b60405162461bcd60e51b815260048101839052600f60248201526e4661726d206e6f742061637469766560881b6044820152606490fd5b6040906003190112610269576004359060243590565b600435906001600160a01b038216820361026957565b602435906001600160a01b038216820361026957565b3360009081527f7d7ffb7a348e1c6a02869081a26547b49160dd3df72d1d75a570eb9b698292ec6020908152604080832054909291907fa49807205ce4d355092ef5a8a18f56e8913cf4a201fbe287825b095693c217759060ff16156124555750505050565b61245e3361284a565b9084519061246b82612767565b604282528382019460603687378251156125d657603086538251906001918210156125d65790607860218501536041915b81831161256857505050612526578461250260486118fc9360449798519889916124f38984019876020b1b1b2b9b9a1b7b73a3937b61d1030b1b1b7bab73a1604d1b8a5261189b815180928d6037890191016126f5565b01036028810189520187612783565b5194859362461bcd60e51b85526004850152518092816024860152858501906126f5565b60648386519062461bcd60e51b825280600483015260248201527f537472696e67733a20686578206c656e67746820696e73756666696369656e746044820152fd5b909192600f811660108110156125c2576f181899199a1a9b1b9c1cb0b131b232b360811b901a6125988587612839565b5360041c9280156125ae5760001901919061249c565b634e487b7160e01b82526011600452602482fd5b634e487b7160e01b83526032600452602483fd5b634e487b7160e01b81526032600452602490fd5b60008181526020818152604092838320338452825260ff8484205416156126115750505050565b61261a3361284a565b9084519061262782612767565b604282528382019460603687378251156125d657603086538251906001918210156125d65790607860218501536041915b8183116126af57505050612526578461250260486118fc9360449798519889916124f38984019876020b1b1b2b9b9a1b7b73a3937b61d1030b1b1b7bab73a1604d1b8a5261189b815180928d6037890191016126f5565b909192600f811660108110156125c2576f181899199a1a9b1b9c1cb0b131b232b360811b901a6126df8587612839565b5360041c9280156125ae57600019019190612658565b60005b8381106127085750506000910152565b81810151838201526020016126f8565b610140810190811067ffffffffffffffff82111761273557604052565b634e487b7160e01b600052604160045260246000fd5b6060810190811067ffffffffffffffff82111761273557604052565b6080810190811067ffffffffffffffff82111761273557604052565b90601f8019910116810190811067ffffffffffffffff82111761273557604052565b9060009180835282602052604083209160018060a01b03169182845260205260ff6040842054166127d557505050565b80835282602052604083208284526020526040832060ff1981541690557ff6391f5c32d9c69d2a47ea670b442974b53935d1edc7fd64eb21e047a839171b339380a4565b81810292918115918404141715610b7c57565b91908201809211610b7c57565b908151811015611991570160200190565b604051906128578261274b565b602a82526020820160403682378251156119915760309053815160019081101561199157607860218401536029905b8082116128da5750506128965790565b606460405162461bcd60e51b815260206004820152602060248201527f537472696e67733a20686578206c656e67746820696e73756666696369656e746044820152fd5b9091600f81166010811015612933576f181899199a1a9b1b9c1cb0b131b232b360811b901a6129098486612839565b5360041c91801561291e576000190190612886565b60246000634e487b7160e01b81526011600452fd5b60246000634e487b7160e01b81526032600452fd5b1561294f57565b60405162461bcd60e51b815260206004820152600c60248201526b08ccaca40e8dede40d0d2ced60a31b6044820152606490fd5b1561298a57565b60405162461bcd60e51b8152602060048201526013602482015272506f6f6c20616c72656164792065786973747360681b6044820152606490fd5b6000198114610b7c5760010190565b156129db57565b60405162461bcd60e51b815260206004820152600f60248201526e506f6f6c206e6f742061637469766560881b6044820152606490fd5b8115612a1c570490565b634e487b7160e01b600052601260045260246000fd5b90816020910312610269575180151581036102695790565b600260015414612a5b576002600155565b60405162461bcd60e51b815260206004820152601f60248201527f5265656e7472616e637947756172643a207265656e7472616e742063616c6c006044820152606490fd5b15612aa757565b60405162461bcd60e51b8152602060048201526016602482015275496e73756666696369656e74206c697175696469747960501b6044820152606490fd5b15612aec57565b60405162461bcd60e51b815260206004820152601a60248201527f496e73756666696369656e74206f757470757420616d6f756e740000000000006044820152606490fd5b91908203918211610b7c57565b6000526003602052604060002060088101908154431115612bc35760068101548015612bbc57612b84612b7984546005850154904390612bc7565b600384015490612819565b9064e8d4a5100091828102928184041490151715610b7c57612bab600791612bb593612a12565b920191825461282c565b9055439055565b5050439055565b5050565b90828111612bdc57612bd99250612b31565b90565b50818110612beb575050600090565b612bd991612b31565b612c4e90612c4964496cebb8009360009283526005602052600460408085209260018060a01b03169485815260098401602052612c348282205442612b31565b95815260078401602052205491015490612819565b612819565b0490565b8015612c96576001808201808311610b7c57811c90825b838310612c765750505090565b90919250612c8d83612c888184612a12565b61282c565b821c9190612c69565b5060009056fea2646970667358221220fb9e3b6aebc7079f2ac787ae81cfa43d12dbee5f839f90aa9c24925f38938ac364736f6c634300081400332f8788117e7eff1d82e926ec794901d17c78024a50270940304540a733656f0d",
  "linkReferences": {},
  "deployedLinkReferences": {}
}