{
  "_format": "hh-sol-artifact-1",
  "contractName": "TokenModule",
  "sourceName": "contracts/modules/TokenModule.sol",
  "abi": [
    {
      "inputs": [
        {
          "internalType": "string",
          "name": "_name",
          "type": "string"
        },
        {
          "internalType": "string",
          "name": "_version",
          "type": "string"
        },
        {
          "internalType": "address",
          "name": "_platformAddress",
          "type": "address"
        }
      ],
      "stateMutability": "nonpayable",
      "type": "constructor"
    },
    {
      "inputs": [],
      "name": "InvalidShortString",
      "type": "error"
    },
    {
      "inputs": [
        {
          "internalType": "string",
          "name": "str",
          "type": "string"
        }
      ],
      "name": "StringTooLong",
      "type": "error"
    },
    {
      "anonymous": false,
      "inputs": [
        {
          "indexed": true,
          "internalType": "address",
          "name": "account",
          "type": "address"
        },
        {
          "indexed": true,
          "internalType": "address",
          "name": "operator",
          "type": "address"
        },
        {
          "indexed": false,
          "internalType": "bool",
          "name": "approved",
          "type": "bool"
        }
      ],
      "name": "ApprovalForAll",
      "type": "event"
    },
    {
      "anonymous": false,
      "inputs": [
        {
          "indexed": false,
          "internalType": "uint256[]",
          "name": "tokenIds",
          "type": "uint256[]"
        },
        {
          "indexed": false,
          "internalType": "address",
          "name": "to",
          "type": "address"
        },
        {
          "indexed": false,
          "internalType": "uint256[]",
          "name": "amounts",
          "type": "uint256[]"
        }
      ],
      "name": "BatchMinted",
      "type": "event"
    },
    {
      "anonymous": false,
      "inputs": [],
      "name": "EIP712DomainChanged",
      "type": "event"
    },
    {
      "anonymous": false,
      "inputs": [
        {
          "indexed": true,
          "internalType": "bytes32",
          "name": "role",
          "type": "bytes32"
        },
        {
          "indexed": true,
          "internalType": "bytes32",
          "name": "previousAdminRole",
          "type": "bytes32"
        },
        {
          "indexed": true,
          "internalType": "bytes32",
          "name": "newAdminRole",
          "type": "bytes32"
        }
      ],
      "name": "RoleAdminChanged",
      "type": "event"
    },
    {
      "anonymous": false,
      "inputs": [
        {
          "indexed": true,
          "internalType": "bytes32",
          "name": "role",
          "type": "bytes32"
        },
        {
          "indexed": true,
          "internalType": "address",
          "name": "account",
          "type": "address"
        },
        {
          "indexed": true,
          "internalType": "address",
          "name": "sender",
          "type": "address"
        }
      ],
      "name": "RoleGranted",
      "type": "event"
    },
    {
      "anonymous": false,
      "inputs": [
        {
          "indexed": true,
          "internalType": "bytes32",
          "name": "role",
          "type": "bytes32"
        },
        {
          "indexed": true,
          "internalType": "address",
          "name": "account",
          "type": "address"
        },
        {
          "indexed": true,
          "internalType": "address",
          "name": "sender",
          "type": "address"
        }
      ],
      "name": "RoleRevoked",
      "type": "event"
    },
    {
      "anonymous": false,
      "inputs": [
        {
          "indexed": true,
          "internalType": "uint256",
          "name": "tokenId",
          "type": "uint256"
        },
        {
          "indexed": false,
          "internalType": "address",
          "name": "recipient",
          "type": "address"
        },
        {
          "indexed": false,
          "internalType": "uint96",
          "name": "royaltyFraction",
          "type": "uint96"
        }
      ],
      "name": "RoyaltySet",
      "type": "event"
    },
    {
      "anonymous": false,
      "inputs": [
        {
          "indexed": true,
          "internalType": "uint256",
          "name": "tokenId",
          "type": "uint256"
        },
        {
          "indexed": false,
          "internalType": "enum TokenModule.TokenType",
          "name": "tokenType",
          "type": "uint8"
        },
        {
          "indexed": false,
          "internalType": "address",
          "name": "creator",
          "type": "address"
        },
        {
          "indexed": false,
          "internalType": "string",
          "name": "name",
          "type": "string"
        }
      ],
      "name": "TokenCreated",
      "type": "event"
    },
    {
      "anonymous": false,
      "inputs": [
        {
          "indexed": true,
          "internalType": "uint256",
          "name": "tokenId",
          "type": "uint256"
        },
        {
          "indexed": false,
          "internalType": "address",
          "name": "to",
          "type": "address"
        },
        {
          "indexed": false,
          "internalType": "uint256",
          "name": "amount",
          "type": "uint256"
        }
      ],
      "name": "TokenMinted",
      "type": "event"
    },
    {
      "anonymous": false,
      "inputs": [
        {
          "indexed": true,
          "internalType": "address",
          "name": "operator",
          "type": "address"
        },
        {
          "indexed": true,
          "internalType": "address",
          "name": "from",
          "type": "address"
        },
        {
          "indexed": true,
          "internalType": "address",
          "name": "to",
          "type": "address"
        },
        {
          "indexed": false,
          "internalType": "uint256[]",
          "name": "ids",
          "type": "uint256[]"
        },
        {
          "indexed": false,
          "internalType": "uint256[]",
          "name": "values",
          "type": "uint256[]"
        }
      ],
      "name": "TransferBatch",
      "type": "event"
    },
    {
      "anonymous": false,
      "inputs": [
        {
          "indexed": true,
          "internalType": "address",
          "name": "operator",
          "type": "address"
        },
        {
          "indexed": true,
          "internalType": "address",
          "name": "from",
          "type": "address"
        },
        {
          "indexed": true,
          "internalType": "address",
          "name": "to",
          "type": "address"
        },
        {
          "indexed": false,
          "internalType": "uint256",
          "name": "id",
          "type": "uint256"
        },
        {
          "indexed": false,
          "internalType": "uint256",
          "name": "value",
          "type": "uint256"
        }
      ],
      "name": "TransferSingle",
      "type": "event"
    },
    {
      "anonymous": false,
      "inputs": [
        {
          "indexed": false,
          "internalType": "string",
          "name": "value",
          "type": "string"
        },
        {
          "indexed": true,
          "internalType": "uint256",
          "name": "id",
          "type": "uint256"
        }
      ],
      "name": "URI",
      "type": "event"
    },
    {
      "inputs": [],
      "name": "ADMIN_ROLE",
      "outputs": [
        {
          "internalType": "bytes32",
          "name": "",
          "type": "bytes32"
        }
      ],
      "stateMutability": "view",
      "type": "function"
    },
    {
      "inputs": [],
      "name": "DEFAULT_ADMIN_ROLE",
      "outputs": [
        {
          "internalType": "bytes32",
          "name": "",
          "type": "bytes32"
        }
      ],
      "stateMutability": "view",
      "type": "function"
    },
    {
      "inputs": [],
      "name": "MINTER_ROLE",
      "outputs": [
        {
          "internalType": "bytes32",
          "name": "",
          "type": "bytes32"
        }
      ],
      "stateMutability": "view",
      "type": "function"
    },
    {
      "inputs": [
        {
          "internalType": "address",
          "name": "account",
          "type": "address"
        },
        {
          "internalType": "uint256",
          "name": "id",
          "type": "uint256"
        }
      ],
      "name": "balanceOf",
      "outputs": [
        {
          "internalType": "uint256",
          "name": "",
          "type": "uint256"
        }
      ],
      "stateMutability": "view",
      "type": "function"
    },
    {
      "inputs": [
        {
          "internalType": "address[]",
          "name": "accounts",
          "type": "address[]"
        },
        {
          "internalType": "uint256[]",
          "name": "ids",
          "type": "uint256[]"
        }
      ],
      "name": "balanceOfBatch",
      "outputs": [
        {
          "internalType": "uint256[]",
          "name": "",
          "type": "uint256[]"
        }
      ],
      "stateMutability": "view",
      "type": "function"
    },
    {
      "inputs": [
        {
          "internalType": "address",
          "name": "to",
          "type": "address"
        },
        {
          "internalType": "uint256[]",
          "name": "tokenIds",
          "type": "uint256[]"
        },
        {
          "internalType": "uint256[]",
          "name": "amounts",
          "type": "uint256[]"
        },
        {
          "internalType": "bytes",
          "name": "data",
          "type": "bytes"
        }
      ],
      "name": "batchMint",
      "outputs": [],
      "stateMutability": "payable",
      "type": "function"
    },
    {
      "inputs": [
        {
          "internalType": "string",
          "name": "name",
          "type": "string"
        },
        {
          "internalType": "string",
          "name": "symbol",
          "type": "string"
        },
        {
          "internalType": "string",
          "name": "tokenUri",
          "type": "string"
        },
        {
          "internalType": "enum TokenModule.TokenType",
          "name": "tokenType",
          "type": "uint8"
        },
        {
          "internalType": "uint256",
          "name": "maxSupply",
          "type": "uint256"
        },
        {
          "internalType": "uint256",
          "name": "mintPrice",
          "type": "uint256"
        },
        {
          "internalType": "address",
          "name": "royaltyRecipient",
          "type": "address"
        },
        {
          "internalType": "uint96",
          "name": "royaltyFraction",
          "type": "uint96"
        }
      ],
      "name": "createToken",
      "outputs": [
        {
          "internalType": "uint256",
          "name": "",
          "type": "uint256"
        }
      ],
      "stateMutability": "nonpayable",
      "type": "function"
    },
    {
      "inputs": [],
      "name": "eip712Domain",
      "outputs": [
        {
          "internalType": "bytes1",
          "name": "fields",
          "type": "bytes1"
        },
        {
          "internalType": "string",
          "name": "name",
          "type": "string"
        },
        {
          "internalType": "string",
          "name": "version",
          "type": "string"
        },
        {
          "internalType": "uint256",
          "name": "chainId",
          "type": "uint256"
        },
        {
          "internalType": "address",
          "name": "verifyingContract",
          "type": "address"
        },
        {
          "internalType": "bytes32",
          "name": "salt",
          "type": "bytes32"
        },
        {
          "internalType": "uint256[]",
          "name": "extensions",
          "type": "uint256[]"
        }
      ],
      "stateMutability": "view",
      "type": "function"
    },
    {
      "inputs": [
        {
          "internalType": "bytes32",
          "name": "role",
          "type": "bytes32"
        }
      ],
      "name": "getRoleAdmin",
      "outputs": [
        {
          "internalType": "bytes32",
          "name": "",
          "type": "bytes32"
        }
      ],
      "stateMutability": "view",
      "type": "function"
    },
    {
      "inputs": [
        {
          "internalType": "uint256",
          "name": "tokenId",
          "type": "uint256"
        }
      ],
      "name": "getTokenInfo",
      "outputs": [
        {
          "components": [
            {
              "internalType": "string",
              "name": "name",
              "type": "string"
            },
            {
              "internalType": "string",
              "name": "symbol",
              "type": "string"
            },
            {
              "internalType": "string",
              "name": "uri",
              "type": "string"
            },
            {
              "internalType": "enum TokenModule.TokenType",
              "name": "tokenType",
              "type": "uint8"
            },
            {
              "internalType": "uint256",
              "name": "totalSupply",
              "type": "uint256"
            },
            {
              "internalType": "uint256",
              "name": "maxSupply",
              "type": "uint256"
            },
            {
              "internalType": "uint256",
              "name": "mintPrice",
              "type": "uint256"
            },
            {
              "internalType": "bool",
              "name": "exists",
              "type": "bool"
            },
            {
              "internalType": "bool",
              "name": "mintingEnabled",
              "type": "bool"
            },
            {
              "internalType": "address",
              "name": "creator",
              "type": "address"
            }
          ],
          "internalType": "struct TokenModule.TokenInfo",
          "name": "",
          "type": "tuple"
        }
      ],
      "stateMutability": "view",
      "type": "function"
    },
    {
      "inputs": [
        {
          "internalType": "bytes32",
          "name": "role",
          "type": "bytes32"
        },
        {
          "internalType": "address",
          "name": "account",
          "type": "address"
        }
      ],
      "name": "grantRole",
      "outputs": [],
      "stateMutability": "nonpayable",
      "type": "function"
    },
    {
      "inputs": [
        {
          "internalType": "bytes32",
          "name": "role",
          "type": "bytes32"
        },
        {
          "internalType": "address",
          "name": "account",
          "type": "address"
        }
      ],
      "name": "hasRole",
      "outputs": [
        {
          "internalType": "bool",
          "name": "",
          "type": "bool"
        }
      ],
      "stateMutability": "view",
      "type": "function"
    },
    {
      "inputs": [
        {
          "internalType": "address",
          "name": "account",
          "type": "address"
        },
        {
          "internalType": "address",
          "name": "operator",
          "type": "address"
        }
      ],
      "name": "isApprovedForAll",
      "outputs": [
        {
          "internalType": "bool",
          "name": "",
          "type": "bool"
        }
      ],
      "stateMutability": "view",
      "type": "function"
    },
    {
      "inputs": [
        {
          "internalType": "address",
          "name": "to",
          "type": "address"
        },
        {
          "internalType": "uint256",
          "name": "tokenId",
          "type": "uint256"
        },
        {
          "internalType": "uint256",
          "name": "amount",
          "type": "uint256"
        },
        {
          "internalType": "bytes",
          "name": "data",
          "type": "bytes"
        }
      ],
      "name": "mint",
      "outputs": [],
      "stateMutability": "payable",
      "type": "function"
    },
    {
      "inputs": [],
      "name": "nextTokenId",
      "outputs": [
        {
          "internalType": "uint256",
          "name": "",
          "type": "uint256"
        }
      ],
      "stateMutability": "view",
      "type": "function"
    },
    {
      "inputs": [
        {
          "internalType": "address",
          "name": "",
          "type": "address"
        }
      ],
      "name": "nonces",
      "outputs": [
        {
          "internalType": "uint256",
          "name": "",
          "type": "uint256"
        }
      ],
      "stateMutability": "view",
      "type": "function"
    },
    {
      "inputs": [],
      "name": "platformAddress",
      "outputs": [
        {
          "internalType": "address",
          "name": "",
          "type": "address"
        }
      ],
      "stateMutability": "view",
      "type": "function"
    },
    {
      "inputs": [],
      "name": "platformFeePercent",
      "outputs": [
        {
          "internalType": "uint256",
          "name": "",
          "type": "uint256"
        }
      ],
      "stateMutability": "view",
      "type": "function"
    },
    {
      "inputs": [
        {
          "internalType": "bytes32",
          "name": "role",
          "type": "bytes32"
        },
        {
          "internalType": "address",
          "name": "account",
          "type": "address"
        }
      ],
      "name": "renounceRole",
      "outputs": [],
      "stateMutability": "nonpayable",
      "type": "function"
    },
    {
      "inputs": [
        {
          "internalType": "bytes32",
          "name": "role",
          "type": "bytes32"
        },
        {
          "internalType": "address",
          "name": "account",
          "type": "address"
        }
      ],
      "name": "revokeRole",
      "outputs": [],
      "stateMutability": "nonpayable",
      "type": "function"
    },
    {
      "inputs": [
        {
          "internalType": "uint256",
          "name": "",
          "type": "uint256"
        }
      ],
      "name": "royalties",
      "outputs": [
        {
          "internalType": "address",
          "name": "recipient",
          "type": "address"
        },
        {
          "internalType": "uint96",
          "name": "royaltyFraction",
          "type": "uint96"
        }
      ],
      "stateMutability": "view",
      "type": "function"
    },
    {
      "inputs": [
        {
          "internalType": "uint256",
          "name": "tokenId",
          "type": "uint256"
        },
        {
          "internalType": "uint256",
          "name": "salePrice",
          "type": "uint256"
        }
      ],
      "name": "royaltyInfo",
      "outputs": [
        {
          "internalType": "address",
          "name": "",
          "type": "address"
        },
        {
          "internalType": "uint256",
          "name": "",
          "type": "uint256"
        }
      ],
      "stateMutability": "view",
      "type": "function"
    },
    {
      "inputs": [
        {
          "internalType": "address",
          "name": "from",
          "type": "address"
        },
        {
          "internalType": "address",
          "name": "to",
          "type": "address"
        },
        {
          "internalType": "uint256[]",
          "name": "ids",
          "type": "uint256[]"
        },
        {
          "internalType": "uint256[]",
          "name": "amounts",
          "type": "uint256[]"
        },
        {
          "internalType": "bytes",
          "name": "data",
          "type": "bytes"
        }
      ],
      "name": "safeBatchTransferFrom",
      "outputs": [],
      "stateMutability": "nonpayable",
      "type": "function"
    },
    {
      "inputs": [
        {
          "internalType": "address",
          "name": "from",
          "type": "address"
        },
        {
          "internalType": "address",
          "name": "to",
          "type": "address"
        },
        {
          "internalType": "uint256",
          "name": "id",
          "type": "uint256"
        },
        {
          "internalType": "uint256",
          "name": "amount",
          "type": "uint256"
        },
        {
          "internalType": "bytes",
          "name": "data",
          "type": "bytes"
        }
      ],
      "name": "safeTransferFrom",
      "outputs": [],
      "stateMutability": "nonpayable",
      "type": "function"
    },
    {
      "inputs": [
        {
          "internalType": "address",
          "name": "operator",
          "type": "address"
        },
        {
          "internalType": "bool",
          "name": "approved",
          "type": "bool"
        }
      ],
      "name": "setApprovalForAll",
      "outputs": [],
      "stateMutability": "nonpayable",
      "type": "function"
    },
    {
      "inputs": [
        {
          "internalType": "uint256",
          "name": "tokenId",
          "type": "uint256"
        },
        {
          "internalType": "address",
          "name": "recipient",
          "type": "address"
        },
        {
          "internalType": "uint96",
          "name": "feeNumerator",
          "type": "uint96"
        }
      ],
      "name": "setTokenRoyalty",
      "outputs": [],
      "stateMutability": "nonpayable",
      "type": "function"
    },
    {
      "inputs": [
        {
          "internalType": "uint256",
          "name": "tokenId",
          "type": "uint256"
        },
        {
          "internalType": "string",
          "name": "newUri",
          "type": "string"
        }
      ],
      "name": "setTokenURI",
      "outputs": [],
      "stateMutability": "nonpayable",
      "type": "function"
    },
    {
      "inputs": [
        {
          "components": [
            {
              "internalType": "address",
              "name": "to",
              "type": "address"
            },
            {
              "internalType": "uint256",
              "name": "tokenId",
              "type": "uint256"
            },
            {
              "internalType": "uint256",
              "name": "amount",
              "type": "uint256"
            },
            {
              "internalType": "uint256",
              "name": "price",
              "type": "uint256"
            },
            {
              "internalType": "string",
              "name": "uri",
              "type": "string"
            },
            {
              "internalType": "uint256",
              "name": "nonce",
              "type": "uint256"
            },
            {
              "internalType": "uint256",
              "name": "deadline",
              "type": "uint256"
            }
          ],
          "internalType": "struct TokenModule.MintRequest",
          "name": "req",
          "type": "tuple"
        },
        {
          "internalType": "bytes",
          "name": "signature",
          "type": "bytes"
        }
      ],
      "name": "signatureMint",
      "outputs": [],
      "stateMutability": "payable",
      "type": "function"
    },
    {
      "inputs": [
        {
          "internalType": "bytes4",
          "name": "interfaceId",
          "type": "bytes4"
        }
      ],
      "name": "supportsInterface",
      "outputs": [
        {
          "internalType": "bool",
          "name": "",
          "type": "bool"
        }
      ],
      "stateMutability": "view",
      "type": "function"
    },
    {
      "inputs": [
        {
          "internalType": "uint256",
          "name": "tokenId",
          "type": "uint256"
        }
      ],
      "name": "toggleMinting",
      "outputs": [],
      "stateMutability": "nonpayable",
      "type": "function"
    },
    {
      "inputs": [
        {
          "internalType": "uint256",
          "name": "",
          "type": "uint256"
        }
      ],
      "name": "tokenInfo",
      "outputs": [
        {
          "internalType": "string",
          "name": "name",
          "type": "string"
        },
        {
          "internalType": "string",
          "name": "symbol",
          "type": "string"
        },
        {
          "internalType": "string",
          "name": "uri",
          "type": "string"
        },
        {
          "internalType": "enum TokenModule.TokenType",
          "name": "tokenType",
          "type": "uint8"
        },
        {
          "internalType": "uint256",
          "name": "totalSupply",
          "type": "uint256"
        },
        {
          "internalType": "uint256",
          "name": "maxSupply",
          "type": "uint256"
        },
        {
          "internalType": "uint256",
          "name": "mintPrice",
          "type": "uint256"
        },
        {
          "internalType": "bool",
          "name": "exists",
          "type": "bool"
        },
        {
          "internalType": "bool",
          "name": "mintingEnabled",
          "type": "bool"
        },
        {
          "internalType": "address",
          "name": "creator",
          "type": "address"
        }
      ],
      "stateMutability": "view",
      "type": "function"
    },
    {
      "inputs": [
        {
          "internalType": "address",
          "name": "newPlatformAddress",
          "type": "address"
        },
        {
          "internalType": "uint256",
          "name": "newFeePercent",
          "type": "uint256"
        }
      ],
      "name": "updatePlatformSettings",
      "outputs": [],
      "stateMutability": "nonpayable",
      "type": "function"
    },
    {
      "inputs": [
        {
          "internalType": "uint256",
          "name": "tokenId",
          "type": "uint256"
        }
      ],
      "name": "uri",
      "outputs": [
        {
          "internalType": "string",
          "name": "",
          "type": "string"
        }
      ],
      "stateMutability": "view",
      "type": "function"
    },
    {
      "inputs": [
        {
          "internalType": "uint256",
          "name": "",
          "type": "uint256"
        }
      ],
      "name": "usedNonces",
      "outputs": [
        {
          "internalType": "bool",
          "name": "",
          "type": "bool"
        }
      ],
      "stateMutability": "view",
      "type": "function"
    }
  ],
  "bytecode": "0x6101606040818152346200039657620048ea80380380916200002282866200039b565b84398201606083820312620003965782516001600160401b03929083811162000396578262000053918601620003e4565b91602090818601518581116200039657839162000072918801620003e4565b9501516001600160a01b038116919082900362000396578251818101818110878211176200038057845260008091526002546001908181811c9116801562000375575b848210146200036157601f811162000332575b508160025580600455620000dc866200043f565b94610120958652620000ee89620005fa565b96610140978852848151910120988960e0528481519101209861010099808b524660a052825190868201927f8b73c3c69bb8fe3d512ecc4cf759cc79239f7b179b0ffacaa9a75d522b39400f84528483015260608201524660808201523060a082015260a0815260c0810199818b10908b11176200031e578983525190206080523060c05281600b5560fa600d55828052600393848152818420338552815260ff828520541615620002e7575b7fa49807205ce4d355092ef5a8a18f56e8913cf4a201fbe287825b095693c21775808552858252828520338652825260ff838620541615620002ae575b507f9f2df0fed2c77648de5860a4cc508cd0818c85b8b8a1ab4ceeef8d981c8956a694858552808252828520338652825260ff83862054161562000273575b50505050505060018060a01b0319600c541617600c55614178938462000752853960805184613f37015260a05184614002015260c05184613f01015260e05184613f8601525183613fac015251826116c4015251816116f00152f35b8585528152818420903385525282209060ff198254161790553391600080516020620048ca833981519152339280a438808080808062000217565b80855285825282852033865282528285208460ff1982541617905533903390600080516020620048ca8339815191528780a438620001d8565b83805284815281842033855281528184208360ff19825416179055333385600080516020620048ca8339815191528180a46200019b565b634e487b7160e01b85526041600452602485fd5b6002835281601f858520920160051c8201915b82811062000355575050620000c8565b84815501829062000345565b634e487b7160e01b83526022600452602483fd5b90607f1690620000b5565b634e487b7160e01b600052604160045260246000fd5b600080fd5b601f909101601f19168101906001600160401b038211908210176200038057604052565b60005b838110620003d35750506000910152565b8181015183820152602001620003c2565b81601f82011215620003965780516001600160401b0381116200038057604051926200041b601f8301601f1916602001856200039b565b8184526020828401011162000396576200043c9160208085019101620003bf565b90565b80516020919082811015620004bf575090601f8251116200047d57808251920151908083106200046e57501790565b82600019910360031b1b161790565b604490620004b19260405193849263305a27a960e01b845280600485015282519283918260248701528686019101620003bf565b601f01601f19168101030190fd5b6001600160401b03811162000380576005928354926001938481811c91168015620005ef575b83821014620005d957601f8111620005a2575b5081601f84116001146200053857509282939183926000946200052c575b50501b916000199060031b1c191617905560ff90565b01519250388062000516565b919083601f1981168760005284600020946000905b888383106200058757505050106200056d575b505050811b01905560ff90565b015160001960f88460031b161c1916905538808062000560565b8587015188559096019594850194879350908101906200054d565b8560005284601f846000209201871c820191601f8601881c015b828110620005cc575050620004f8565b60008155018590620005bc565b634e487b7160e01b600052602260045260246000fd5b90607f1690620004e5565b805160209081811015620006275750601f8251116200047d57808251920151908083106200046e57501790565b906001600160401b0382116200038057600654926001938481811c9116801562000746575b83821014620005d957601f81116200070c575b5081601f8411600114620006a0575092829391839260009462000694575b50501b916000199060031b1c19161760065560ff90565b0151925038806200067d565b919083601f198116600660005284600020946000905b88838310620006f15750505010620006d7575b505050811b0160065560ff90565b015160001960f88460031b161c19169055388080620006c9565b858701518855909601959485019487935090810190620006b6565b600660005284601f84600020920160051c820191601f860160051c015b828110620007395750506200065f565b6000815501859062000729565b90607f16906200064c56fe6080604052600436101561001257600080fd5b60003560e01c8062fdd58e14612c4057806301ffc9a714612b9e5780630e89341c14612b34578063162094c4146129c2578063248a9ca3146129935780632a55205a146129225780632eb2c2d6146126e25780632f06eed214611e335780632f2ff15d14611d8057806336568abe14611cee5780634e1273f414611b505780635944c75314611ab05780636717e41c14611a7f578063731133e91461185057806375794a3c1461183257806375b238fc146117f75780637ecebe00146117bd5780637f77f5741461177957806384b0196e146116ab5780638c639a851461168d5780638c7a63ae146114b557806391d1485414611468578063a157cc5714610f7d578063a217fddf14610f61578063a22cb46514610e74578063b48ab8b614610966578063cc33c8751461084f578063d539139314610814578063d547741f146107d5578063dbe55e56146107ac578063de92d068146106fc578063def204d514610455578063e985e9c5146103ff5763f242432a1461019157600080fd5b346103fa5760a03660031901126103fa576101aa612c6f565b6101b2612c85565b906064356044356084356001600160401b0381116103fa576101d8903690600401612e67565b6001600160a01b039384169333851480156103d1575b6101f7906132ab565b851661020481151561330e565b61020d836135a0565b50610217846135a0565b50826000526020956000875260406000208660005287528460406000205461024182821015613368565b856000526000895260406000208860005289520360406000205583600052600087526040600020826000528752604060002061027e8682546133c7565b90558186604051868152878a8201527fc3d58168c5ae7397731d063d5bbf3d657854427343f4c083240f7aacaa2d0f6260403392a43b6102ba57005b6102fe93600087946040519687958694859363f23a6e6160e01b9b8c865233600487015260248601526044850152606484015260a0608484015260a4830190612cbe565b03925af1600091816103a2575b5061037657826103196134bf565b6308c379a014610341575b60405162461bcd60e51b81528061033d6004820161354b565b0390fd5b6103496134dd565b90816103555750610324565b61033d60405192839262461bcd60e51b845260048401526024830190612cbe565b6001600160e01b03191603905061038957005b60405162461bcd60e51b81528061033d60048201613476565b6103c3919250843d86116103ca575b6103bb8183612d7d565b810190613456565b903861030b565b503d6103b1565b508460005260016020526040600020336000526020526101f760ff6040600020541690506101ee565b600080fd5b346103fa5760403660031901126103fa57610418612c6f565b610420612c85565b9060018060a01b03809116600052600160205260406000209116600052602052602060ff604060002054166040519015158152f35b346103fa5760403660031901126103fa5761046e612c6f565b3360009081527fa665d3385c074a5fa4bcec2a570c94dbdb08d6b09bca4e08f8c3951c94a3d9986020908152604090912054602480359392917fa49807205ce4d355092ef5a8a18f56e8913cf4a201fbe287825b095693c217759060ff161561053457506103e88411610502575050600c80546001600160a01b0319166001600160a01b0392909216919091179055600d55005b90600c6064926040519262461bcd60e51b845260048401528201526b08ccaca40e8dede40d0d2ced60a31b6044820152fd5b829061053f336135e9565b9060405161054c81612d62565b604281528381019160603684378151156106e7576030835381516001908110156106d257607860218401536041905b80821161066457505061062257604861033d936105f7936106069360405195869376020b1b1b2b9b9a1b7b73a3937b61d1030b1b1b7bab73a1604d1b8a8601526105ce815180928c603789019101612c9b565b8401917001034b99036b4b9b9b4b733903937b6329607d1b603784015251809386840190612c9b565b01036028810184520182612d7d565b60405193849362461bcd60e51b85526004850152830190612cbe565b606485856040519162461bcd60e51b83528160048401528201527f537472696e67733a20686578206c656e67746820696e73756666696369656e746044820152fd5b9091600f811660108110156106bd576f181899199a1a9b1b9c1cb0b131b232b360811b901a61069384866135d8565b5360041c9180156106a857600019019061057b565b87634e487b7160e01b60005260116004526000fd5b88634e487b7160e01b60005260326004526000fd5b86634e487b7160e01b60005260326004526000fd5b85634e487b7160e01b60005260326004526000fd5b346103fa5760203660031901126103fa5760043580600052600760205260018060a01b0360076040600020015460101c1633148015610774575b61073f90614105565b6000526007602052610772600760406000200160ff815460081c161561ff00825491151560081b169061ff001916179055565b005b503360009081527fa665d3385c074a5fa4bcec2a570c94dbdb08d6b09bca4e08f8c3951c94a3d998602052604090205460ff16610736565b346103fa5760003660031901126103fa57600c546040516001600160a01b039091168152602090f35b346103fa5760403660031901126103fa576107726004356107f4612c85565b9080600052600360205261080f600160406000200154612fc3565b613177565b346103fa5760003660031901126103fa5760206040517f9f2df0fed2c77648de5860a4cc508cd0818c85b8b8a1ab4ceeef8d981c8956a68152f35b346103fa5760203660031901126103fa57600435600052600760205261090060406000206040519061088c826108858184612f2d565b0383612d7d565b6040516108a7816108a08160018601612f2d565b0382612d7d565b604051916108c3836108bc8160028501612f2d565b0384612d7d565b60ff60038201541692600482015461092761091c60058501549361090e60076006880154970154976040519b8c9b8c6101408091528d0190612cbe565b908b820360208d0152612cbe565b9089820360408b0152612cbe565b956060880190612eb6565b608086015260a085015260c084015260ff818116151560e0850152600882901c16151561010084015260101c6001600160a01b03166101208301520390f35b6003196080368201126103fa5761097b612c6f565b6001600160401b036024358181116103fa5761099b903690600401612ec3565b93906044358381116103fa576109b5903690600401612ec3565b9190936064359081116103fa576109d0903690600401612ce3565b9690946109db613a69565b838203610e37576001600160a01b0387811695861515916109fb8361398c565b60009060005b868110610d7f575081610c75575b5050610a3c610a36610a22368789612db5565b99610a2e368a88612db5565b9c3691612e21565b92613abf565b610a4988518b51146133d4565b60005b8851811015610a9f5780610a63610a9a928d613297565b51610a6e828c613297565b516000526020600081526040600020908b60005252610a9360406000209182546133c7565b9055613272565b610a4c565b508692918a89928b8660006040517f4a39dc06d4c0dbc64b70af90fd698a233a518aa5d07e595d983b8c0526c8f7fb339180610adc898c83613431565b0390a43b610b42575b7fd269eccf527a0533c3bfb3eff9d233b34489acf2576503b098b20a9f218541308888610b38898d8a610b25604051968796606088526060880191613cc9565b9260208601528483036040860152613cc9565b0390a16001600455005b602091610ba3610b94926040989798519586948594610b8463bc197c8160e01b9a8b88523360048901526000602489015260a0604489015260a4880190612e82565b9084878303016064880152612e82565b91848303016084850152612cbe565b03816000875af160009181610c55575b50610c1a57610bc06134bf565b6308c379a014610be35760405162461bcd60e51b81528061033d6004820161354b565b610beb6134dd565b80610bf65750610324565b60405162461bcd60e51b81526020600482015290819061033d906024830190612cbe565b6001600160e01b03191603610389579084610b387fd269eccf527a0533c3bfb3eff9d233b34489acf2576503b098b20a9f2185413088610ae5565b610c6e91925060203d81116103ca576103bb8183612d7d565b9088610bb3565b610c8182341015613a19565b612710610c90600d54846135c5565b04610c9b8184613a5c565b9080158015610d55575b505080158015610cfb575b505050803411610cc1575b80610a0f565b60008080610cd0819434613a5c565b818115610cf2575b3390f115610ce6578a610cbb565b6040513d6000823e3d90fd5b506108fc610cd8565b8715610d3f57600080939281939282938c3584526007602052600760408520015460101c16908390610d36575bf115610ce6578b8080610cb0565b506108fc610d28565b634e487b7160e01b600052603260045260246000fd5b6000808093819387600c5416908390610d76575bf115610ce6578d80610ca5565b506108fc610d69565b80610d8e610e1492898b613cb9565b35610d9a828c8a613cb9565b359080600052600790602090828252610dd860ff610dc08186604060002001541661390a565b82600052848452846040600020015460081c1661394d565b60005252610a936004610e0a604060002097600589015480610e19575b50610e048560068b01546135c5565b906133c7565b96019182546133c7565b610a01565b610e3190610e2a87868d01546133c7565b11156139d8565b38610df5565b60405162461bcd60e51b8152602060048201526015602482015274082e4e4c2f240d8cadccee8d040dad2e6dac2e8c6d605b1b6044820152606490fd5b346103fa5760403660031901126103fa57610e8d612c6f565b60243590811515908183036103fa576001600160a01b031691338314610f0a57610edc9033600052600160205260406000208460005260205260406000209060ff801983541691151516179055565b6040519081527f17307eab39ab6107e8899845ad3d59bd9653f200f220920489ca2b5937696c3160203392a3005b60405162461bcd60e51b815260206004820152602960248201527f455243313135353a2073657474696e6720617070726f76616c20737461747573604482015268103337b91039b2b63360b91b6064820152608490fd5b346103fa5760003660031901126103fa57602060405160008152f35b346103fa576101003660031901126103fa576004356001600160401b0381116103fa57610fae903690600401612ce3565b6024356001600160401b0381116103fa57610fcd903690600401612ce3565b90916044356001600160401b0381116103fa57610fee903690600401612ce3565b90600360643510156103fa5760c4356001600160a01b03811690036103fa576001600160601b0360e4351660e435036103fa5761106591611059600b549661103588613272565b600b556040519661104588612d2b565b61105036888c612e21565b88523691612e21565b60208601523691612e21565b6040830152611079606435606084016138aa565b6000608083015260843560a083015260a43560c0830152600160e083015260016101008301523361012083015282600052600760205260406000209082518051906001600160401b0382116113705781906110de826110d88754612ef3565b876138b6565b602090601f8311600114611402576000926113f7575b50508160011b916000199060031b1c19161782555b602083015180516001600160401b03811161137057806001850192611138826111328654612ef3565b866138b6565b602090601f831160011461139157600092611386575b50508160011b916000199060031b1c19161790555b604083015180516001600160401b0381116113705780600285019261118c826111328654612ef3565b602090601f831160011461130a576000926112ff575b50508160011b916000199060031b1c19161790555b606083015160038110156112e957602095859461012060078660809560037fd34454bb7e46e6d0cb9c7c970d063856f9c3a256b34653716ad2ff54f213676d99019060ff8019835416911617905585840151600482015560a0840151600582015560c08401516006820155019161124060e08201511515849060ff801983541691151516179055565b610100810151835461ff00191690151560081b61ff00161783550151815462010000600160b01b03191660109190911b62010000600160b01b031617905560c4356001600160a01b03166112d5575b826040519384926112a284606435612eb6565b338a85015260606040850152816060850152848401376000828201840152601f01601f19168101030190a2604051908152f35b6112e460e43560c43587614028565b61128f565b634e487b7160e01b600052602160045260246000fd5b0151905088806111a2565b6000858152602081209350601f198516905b818110611358575090846001959493921061133f575b505050811b0190556111b7565b015160001960f88460031b161c19169055888080611332565b9293602060018192878601518155019501930161131c565b634e487b7160e01b600052604160045260246000fd5b01519050888061114e565b6000858152602081209350601f198516905b8181106113df57509084600195949392106113c6575b505050811b019055611163565b015160001960f88460031b161c191690558880806113b9565b929360206001819287860151815501950193016113a3565b0151905087806110f4565b6000868152602081209350601f198516905b8181106114505750908460019594939210611437575b505050811b018255611109565b015160001960f88460031b161c1916905587808061142a565b92936020600181928786015181550195019301611414565b346103fa5760403660031901126103fa57611481612c85565b600435600052600360205260406000209060018060a01b0316600052602052602060ff604060002054166040519015158152f35b346103fa5760203660031901126103fa5760006101206040516114d781612d2b565b6060815260606020820152606060408201528260608201528260808201528260a08201528260c08201528260e08201528261010082015201526004356000526007602052604060002060076040519161152f83612d2b565b604051611540816108a08185612f2d565b8352604051611556816108a08160018601612f2d565b602084015260405161156f816108a08160028601612f2d565b604084015261158860ff600383015416606085016138aa565b60048101546080840152600581015460a0840152600681015460c0840152015460ff8116151560e083015260ff8160081c16151561010083015260018060a01b039060101c166101208201526040518091602082526116296115f882516101406020860152610160850190612cbe565b611614602084015191601f199283878303016040880152612cbe565b90604084015190858303016060860152612cbe565b9061163c60608201516080850190612eb6565b608081015160a084015260a081015160c084015260c081015160e084015260e08101511515610100840152610100810151151561012084015261012060018060a01b03910151166101408301520390f35b346103fa5760003660031901126103fa576020600d54604051908152f35b346103fa5760003660031901126103fa576117466116e87f00000000000000000000000000000000000000000000000000000000000000006136f7565b6117756117147f00000000000000000000000000000000000000000000000000000000000000006137f0565b6117546040519161172483612d47565b60008352604051958695600f60f81b875260e0602088015260e0870190612cbe565b908582036040870152612cbe565b90466060850152306080850152600060a085015283820360c0850152612e82565b0390f35b346103fa5760203660031901126103fa576004356000908152600860209081526040918290205482516001600160a01b038216815260a09190911c91810191909152f35b346103fa5760203660031901126103fa576001600160a01b036117de612c6f565b1660005260096020526020604060002054604051908152f35b346103fa5760003660031901126103fa5760206040517fa49807205ce4d355092ef5a8a18f56e8913cf4a201fbe287825b095693c217758152f35b346103fa5760003660031901126103fa576020600b54604051908152f35b60803660031901126103fa57611864612c6f565b602435906044356064356001600160401b0381116103fa5761188a903690600401612ce3565b611895939193613a69565b84600052600790816020526118b360ff83604060002001541661390a565b85600052816020526118d160ff836040600020015460081c1661394d565b6001600160a01b03916118e7848416151561398c565b8660005280602052604060002092600584015480611a67575b5061190f8660068601546135c5565b918261198b575b5050509061195461194c7f2d03118aa776f7008445f6ca8490a6782ede2db364d741513555ba656ab1879f966004943691612e21565b858886613b15565b016119608382546133c7565b9055604080516001600160a01b039092168252602082019290925290819081015b0390a26001600455005b61199783341015613a19565b6127106119a6600d54856135c5565b04916119b28385613a5c565b9280158015611a3d575b50508215918215611a0d575b505050508034116119db575b8080611916565b600080806119ed819496959634613a5c565b818115611a04575b3390f115610ce65790866119d4565b506108fc6119f5565b6000938493849384938a015460101c16908390611a34575bf115610ce657878080806119c8565b506108fc611a25565b6000808093819386600c5416908390611a5e575bf115610ce6578a806119bc565b506108fc611a51565b611a7990610e2a8860048801546133c7565b88611900565b346103fa5760203660031901126103fa57600435600052600a602052602060ff604060002054166040519015158152f35b346103fa5760603660031901126103fa57600435611acc612c85565b604435906001600160601b03821682036103fa578261077293600052600760205260018060a01b0360076040600020015460101c1633148015611b18575b611b1390614105565b614028565b503360009081527fa665d3385c074a5fa4bcec2a570c94dbdb08d6b09bca4e08f8c3951c94a3d998602052604090205460ff16611b0a565b346103fa5760403660031901126103fa576004356001600160401b038082116103fa57366023830112156103fa57816004013590611b8d82612d9e565b92611b9b6040519485612d7d565b82845260209260248486019160051b830101913683116103fa57602401905b828210611ccf575050506024359081116103fa57611bdc903690600401612e03565b8251815103611c7857825192611bf184612d9e565b93611bff6040519586612d7d565b808552611c0e601f1991612d9e565b01368486013760005b8151811015611c6157611c5c90611c4c6001600160a01b03611c398386613297565b5116611c458387613297565b51906131ed565b611c568288613297565b52613272565b611c17565b505050611775604051928284938452830190612e82565b60405162461bcd60e51b815260048101839052602960248201527f455243313135353a206163636f756e747320616e6420696473206c656e677468604482015268040dad2e6dac2e8c6d60bb1b6064820152608490fd5b81356001600160a01b03811681036103fa578152908401908401611bba565b346103fa5760403660031901126103fa57611d07612c85565b336001600160a01b03821603611d235761077290600435613177565b60405162461bcd60e51b815260206004820152602f60248201527f416363657373436f6e74726f6c3a2063616e206f6e6c792072656e6f756e636560448201526e103937b632b9903337b91039b2b63360891b6064820152608490fd5b346103fa5760403660031901126103fa57600435611d9c612c85565b816000526003602052611db6600160406000200154612fc3565b81600052600360205260406000209060018060a01b0316908160005260205260ff6040600020541615611de557005b8160005260036020526040600020816000526020526040600020600160ff1982541617905533917f2f8788117e7eff1d82e926ec794901d17c78024a50270940304540a733656f0d600080a4005b6003196040368201126103fa576001600160401b03600435116103fa5760e090600435360301126103fa576024356001600160401b0381116103fa57611e7d903690600401612ce3565b90611e86613a69565b60c4600435013542116126a95760a46004350135600052600a60205260ff6040600020541661266f57611ecf6001600160a01b03611ec76004803501613ced565b16151561398c565b611edd600435600401613ced565b91611efc611ef5608460043501600435600401613d01565b3691612e21565b60208151910120604051937f6b3cc0ad67dccd31feecb981216bfd054ef916e257ebfbd89c68f6c1ce56a6ac602086015260018060a01b031660408501526024600435013560608501526044600435013560808501526064600435013560a085015260c084015260a4600435013560e084015260c460043501356101008401526101008352826101208101106001600160401b036101208501111761137057611fdf611fe592604285610120611fed970160405260208151910120611fbf613efe565b906040519161190160f01b83526002830152602282015220923691612e21565b90613e37565b919091613d33565b6001600160a01b03811660009081527f5562e70da342db81569f3094d36be279beaca7ad8e08f434ea188e79d2bfe10c602052604090205460ff16156126365760a46004350135600052600a6020526040600020600160ff1982541617905560646004350135612532575b60246004350135600052600760205260ff6007604060002001541615612137575b6120b061208a600435600401613ced565b6040519061209782612d47565b6000825260446004350135906024600435013590613b15565b60246004350135600052600760205260046040600020016120d86044600435013582546133c7565b90556120e8600435600401613ced565b604080516001600160a01b039092168252604460043590810135602084015260240135917f2d03118aa776f7008445f6ca8490a6782ede2db364d741513555ba656ab1879f9181908101611981565b6121b79061214f608460043501600435600401613d01565b92906040519361215e85612d2b565b60405161216a81612d10565b601681527529b4b3b730ba3ab9329026b4b73a32b2102a37b5b2b760511b6020820152855260405161219b81612d10565b600381526214d35560ea1b602082015260208601523691612e21565b60408301526002606083015260006080830152600060a08301526064600435013560c0830152600160e0830152600161010083015260018060a01b031661012082015260246004350135600052600760205260406000209080519182516001600160401b03811161137057612236816122308454612ef3565b846138b6565b6020601f82116001146124ca57819293946000926124bf575b50508160011b916000199060031b1c19161781555b60208201519182516001600160401b038111611370576122948161228b6001860154612ef3565b600186016138b6565b6020601f82116001146124515781929394600092612446575b50508160011b916000199060031b1c19161760018301555b60408101519182516001600160401b038111611370576122f5816122ec6002850154612ef3565b600285016138b6565b6020601f82116001146123d857819293946000926123cd575b50508160011b916000199060031b1c19161760028201555b600381019060608301519060038210156112e9576101209260079260ff801983541691161790556080840151600482015560a0840151600582015560c08401516006820155019161238960e08201511515849060ff801983541691151516179055565b610100810151835461ff00191690151560081b61ff00161783550151815462010000600160b01b03191660109190911b62010000600160b01b031617905580612079565b01519050848061230e565b6002830160005260206000209060005b601f198416811061242e5750600193949583601f19811610612415575b505050811b016002820155612326565b015160001960f88460031b161c19169055848080612405565b9091602060018192858a0151815501930191016123e8565b0151905084806122ad565b6001840160005260206000209060005b601f19841681106124a75750600193949583601f1981161061248e575b505050811b0160018301556122c5565b015160001960f88460031b161c1916905584808061247e565b9091602060018192858a015181550193019101612461565b01519050848061224f565b8260005260206000209060005b601f198416811061251a5750600193949583601f19811610612501575b505050811b018155612264565b015160001960f88460031b161c191690558480806124f4565b9091602060018192858a0151815501930191016124d7565b61254460646004350135341015613a19565b612710612559600d54606460043501356135c5565b0461256a8160646004350135613a5c565b9080612604575b50806125c0575b506064600435013534111561205857600080808061259c6064600435013534613a5c565b8181156125b7575b3390f1612058576040513d6000823e3d90fd5b506108fc6125a4565b600080808093602460043501358252600760205260018060a01b03600760408420015460101c168282156125fb575bf115610ce65781612578565b506108fc6125ef565b600c546000918291829182916001600160a01b031682821561262d575bf115610ce65782612571565b506108fc612621565b60405162461bcd60e51b8152602060048201526011602482015270496e76616c6964207369676e617475726560781b6044820152606490fd5b60405162461bcd60e51b8152602060048201526012602482015271139bdb98d948185b1c9958591e481d5cd95960721b6044820152606490fd5b60405162461bcd60e51b815260206004820152601160248201527014da59db985d1d5c9948195e1c1a5c9959607a1b6044820152606490fd5b346103fa5760031960a0368201126103fa576126fc612c6f565b90612705612c85565b906001600160401b03906044358281116103fa57612727903690600401612e03565b6064358381116103fa5761273f903690600401612e03565b926084359081116103fa57612758903690600401612e67565b6001600160a01b039586169590929033871480156128f9575b61277a906132ab565b61278783518651146133d4565b85169261279584151561330e565b60005b835181101561282757806127af6128229286613297565b516127ba8289613297565b5190806000526020906000825260406000208c6000528252826040600020546127e582821015613368565b82600052600084528d604060002090600052845203604060002055600052600081526040600020908860005252610a9360406000209182546133c7565b612798565b5090949392919382876040517f4a39dc06d4c0dbc64b70af90fd698a233a518aa5d07e595d983b8c0526c8f7fb3391806128628a8c83613431565b0390a43b61286c57005b60006020946128ae610b9497610b8494604051998a988997889663bc197c8160e01b9e8f89523360048a0152602489015260a0604489015260a4880190612e82565b03925af1600091816128d9575b506128c857610bc06134bf565b6001600160e01b0319160361038957005b6128f291925060203d81116103ca576103bb8183612d7d565b90836128bb565b5086600052600160205260406000203360005260205261277a60ff604060002054169050612771565b346103fa5760403660031901126103fa57600435600052600860205260406000206040519061295082612d10565b5461271061297560018060a01b0392838116855260a01c8060208601526024356135c5565b925160408051939091166001600160a01b0316835292046020820152f35b346103fa5760203660031901126103fa5760043560005260036020526020600160406000200154604051908152f35b346103fa5760403660031901126103fa576004356001600160401b036024358181116103fa576129f6903690600401612ce3565b90836000526020936007855260018060a01b0360076040600020015460101c1633148015612af4575b612a2890614105565b60005260078452600260406000200192821161137057612a5282612a4c8554612ef3565b856138b6565b600093601f8311600114612a90575092819293600092612a85575b5050600019600383901b1c191660019190911b179055005b013590508380612a6d565b90601f198316948460005282600020926000905b878210612adc575050836001959610612ac2575b505050811b019055005b0135600019600384901b60f8161c19169055838080612ab8565b80600184968294958701358155019501920190612aa4565b507fa49807205ce4d355092ef5a8a18f56e8913cf4a201fbe287825b095693c217756000908152600386526040808220338352875290205460ff16612a1f565b346103fa5760203660031901126103fa57600435806000526007602052612b6560ff6007604060002001541661390a565b60005260076020526117756108a0612b8a600260406000200160405192838092612f2d565b604051918291602083526020830190612cbe565b346103fa5760203660031901126103fa5760043563ffffffff60e01b81168091036103fa5760209063152a902d60e11b8114908115612be3575b506040519015158152f35b637965db0b60e01b811491508115612bfd575b5082612bd8565b636cdb3d1360e11b811491508115612c2f575b8115612c1e575b5082612bf6565b6301ffc9a760e01b14905082612c17565b6303a24d0760e21b81149150612c10565b346103fa5760403660031901126103fa576020612c67612c5e612c6f565b602435906131ed565b604051908152f35b600435906001600160a01b03821682036103fa57565b602435906001600160a01b03821682036103fa57565b60005b838110612cae5750506000910152565b8181015183820152602001612c9e565b90602091612cd781518092818552858086019101612c9b565b601f01601f1916010190565b9181601f840112156103fa578235916001600160401b0383116103fa57602083818601950101116103fa57565b604081019081106001600160401b0382111761137057604052565b61014081019081106001600160401b0382111761137057604052565b602081019081106001600160401b0382111761137057604052565b608081019081106001600160401b0382111761137057604052565b90601f801991011681019081106001600160401b0382111761137057604052565b6001600160401b0381116113705760051b60200190565b9291612dc082612d9e565b91612dce6040519384612d7d565b829481845260208094019160051b81019283116103fa57905b828210612df45750505050565b81358152908301908301612de7565b9080601f830112156103fa57816020612e1e93359101612db5565b90565b9291926001600160401b0382116113705760405191612e4a601f8201601f191660200184612d7d565b8294818452818301116103fa578281602093846000960137010152565b9080601f830112156103fa57816020612e1e93359101612e21565b90815180825260208080930193019160005b828110612ea2575050505090565b835185529381019392810192600101612e94565b9060038210156112e95752565b9181601f840112156103fa578235916001600160401b0383116103fa576020808501948460051b0101116103fa57565b90600182811c92168015612f23575b6020831014612f0d57565b634e487b7160e01b600052602260045260246000fd5b91607f1691612f02565b9060009291805491612f3e83612ef3565b918282526001938481169081600014612fa05750600114612f60575b50505050565b90919394506000526020928360002092846000945b838610612f8c575050505001019038808080612f5a565b805485870183015294019385908201612f75565b9294505050602093945060ff191683830152151560051b01019038808080612f5a565b60009080825260209060038252604092838120338252835260ff848220541615612fed5750505050565b612ff6336135e9565b9184519061300382612d62565b6042825284820192606036853782511561316357603084538251906001918210156131635790607860218501536041915b8183116130f5575050506130b357604861033d93869361309793613088985198899376020b1b1b2b9b9a1b7b73a3937b61d1030b1b1b7bab73a1604d1b8a8601526105ce815180928c603789019101612c9b565b01036028810187520185612d7d565b5192839262461bcd60e51b845260048401526024830190612cbe565b60648486519062461bcd60e51b825280600483015260248201527f537472696e67733a20686578206c656e67746820696e73756666696369656e746044820152fd5b909192600f8116601081101561314f576f181899199a1a9b1b9c1cb0b131b232b360811b901a61312585876135d8565b5360041c92801561313b57600019019190613034565b634e487b7160e01b82526011600452602482fd5b634e487b7160e01b83526032600452602483fd5b634e487b7160e01b81526032600452602490fd5b906000918083526003602052604083209160018060a01b03169182845260205260ff6040842054166131a857505050565b8083526003602052604083208284526020526040832060ff1981541690557ff6391f5c32d9c69d2a47ea670b442974b53935d1edc7fd64eb21e047a839171b339380a4565b6001600160a01b031690811561321a57600052600060205260406000209060005260205260406000205490565b60405162461bcd60e51b815260206004820152602a60248201527f455243313135353a2061646472657373207a65726f206973206e6f742061207660448201526930b634b21037bbb732b960b11b6064820152608490fd5b60001981146132815760010190565b634e487b7160e01b600052601160045260246000fd5b8051821015610d3f5760209160051b010190565b156132b257565b60405162461bcd60e51b815260206004820152602e60248201527f455243313135353a2063616c6c6572206973206e6f7420746f6b656e206f776e60448201526d195c881bdc88185c1c1c9bdd995960921b6064820152608490fd5b1561331557565b60405162461bcd60e51b815260206004820152602560248201527f455243313135353a207472616e7366657220746f20746865207a65726f206164604482015264647265737360d81b6064820152608490fd5b1561336f57565b60405162461bcd60e51b815260206004820152602a60248201527f455243313135353a20696e73756666696369656e742062616c616e636520666f60448201526939103a3930b739b332b960b11b6064820152608490fd5b9190820180921161328157565b156133db57565b60405162461bcd60e51b815260206004820152602860248201527f455243313135353a2069647320616e6420616d6f756e7473206c656e677468206044820152670dad2e6dac2e8c6d60c31b6064820152608490fd5b9091613448612e1e93604084526040840190612e82565b916020818403910152612e82565b908160209103126103fa57516001600160e01b0319811681036103fa5790565b60809060208152602860208201527f455243313135353a204552433131353552656365697665722072656a656374656040820152676420746f6b656e7360c01b60608201520190565b60009060033d116134cc57565b905060046000803e60005160e01c90565b600060443d10612e1e57604051600319913d83016004833e81516001600160401b03918282113d60248401111761353a57818401948551938411613542573d8501016020848701011161353a5750612e1e92910160200190612d7d565b949350505050565b50949350505050565b60809060208152603460208201527f455243313135353a207472616e7366657220746f206e6f6e2d455243313135356040820152732932b1b2b4bb32b91034b6b83632b6b2b73a32b960611b60608201520190565b604051906135ad82612d10565b60018252602082016020368237825115610d3f575290565b8181029291811591840414171561328157565b908151811015610d3f570160200190565b60405190606082018281106001600160401b0382111761137057604052602a8252602082016040368237825115610d3f57603090538151600190811015610d3f57607860218401536029905b8082116136895750506136455790565b606460405162461bcd60e51b815260206004820152602060248201527f537472696e67733a20686578206c656e67746820696e73756666696369656e746044820152fd5b9091600f811660108110156136e2576f181899199a1a9b1b9c1cb0b131b232b360811b901a6136b884866135d8565b5360041c9180156136cd576000190190613635565b60246000634e487b7160e01b81526011600452fd5b60246000634e487b7160e01b81526032600452fd5b60ff81146137355760ff811690601f8211613723576040519161371983612d10565b8252602082015290565b604051632cd44ac360e21b8152600490fd5b5060405160055481600061374883612ef3565b808352926001908181169081156137ce575060011461376f575b50612e1e92500382612d7d565b6005600090815291507f036b6384b5eca791c62761152d0c79bb0604c104a5fb6f4eb0703f3154bb3db05b8483106137b35750612e1e935050810160200138613762565b8193509081602092548385890101520191019091849261379a565b905060209250612e1e94915060ff191682840152151560051b82010138613762565b60ff81146138125760ff811690601f8211613723576040519161371983612d10565b5060405160065481600061382583612ef3565b808352926001908181169081156137ce575060011461384b5750612e1e92500382612d7d565b6006600090815291507ff652222313e28459528d920b65115c16c04f3efc82aaedc97be59f3f377c0d3f5b84831061388f5750612e1e935050810160200138613762565b81935090816020925483858901015201910190918492613876565b60038210156112e95752565b90601f81116138c457505050565b600091825260208220906020601f850160051c83019410613900575b601f0160051c01915b8281106138f557505050565b8181556001016138e9565b90925082906138e0565b1561391157565b60405162461bcd60e51b8152602060048201526014602482015273151bdad95b88191bd95cc81b9bdd08195e1a5cdd60621b6044820152606490fd5b1561395457565b60405162461bcd60e51b815260206004820152601060248201526f135a5b9d1a5b99c8191a5cd8589b195960821b6044820152606490fd5b1561399357565b60405162461bcd60e51b815260206004820152601b60248201527f43616e6e6f74206d696e7420746f207a65726f206164647265737300000000006044820152606490fd5b156139df57565b60405162461bcd60e51b815260206004820152601260248201527145786365656473206d617820737570706c7960701b6044820152606490fd5b15613a2057565b60405162461bcd60e51b8152602060048201526014602482015273125b9cdd59999a58da595b9d081c185e5b595b9d60621b6044820152606490fd5b9190820391821161328157565b600260045414613a7a576002600455565b60405162461bcd60e51b815260206004820152601f60248201527f5265656e7472616e637947756172643a207265656e7472616e742063616c6c006044820152606490fd5b15613ac657565b60405162461bcd60e51b815260206004820152602160248201527f455243313135353a206d696e7420746f20746865207a65726f206164647265736044820152607360f81b6064820152608490fd5b926001600160a01b03841690613b2c821515613abf565b613b35836135a0565b50613b3f846135a0565b506000918383526020948386526040968785208386528752878520613b658382546133c7565b905582858951888152848a8201527fc3d58168c5ae7397731d063d5bbf3d657854427343f4c083240f7aacaa2d0f628b3392a43b613ba7575b50505050505050565b9185969795918493613bee958a5180978195829463f23a6e6160e01b9b8c85523360048601528560248601526044850152606484015260a0608484015260a4830190612cbe565b03925af1909181613c9a575b50613c6157505050613c0a6134bf565b6308c379a014613c2d575b505162461bcd60e51b81528061033d6004820161354b565b613c356134dd565b9081613c415750613c15565b61033d835192839262461bcd60e51b845260048401526024830190612cbe565b919392506001600160e01b031990911603613c83575038808080808080613b9e565b5162461bcd60e51b81528061033d60048201613476565b613cb2919250853d87116103ca576103bb8183612d7d565b9038613bfa565b9190811015610d3f5760051b0190565b81835290916001600160fb1b0383116103fa5760209260051b809284830137010190565b356001600160a01b03811681036103fa5790565b903590601e19813603018212156103fa57018035906001600160401b0382116103fa576020019181360383136103fa57565b60058110156112e95780613d445750565b60018103613d915760405162461bcd60e51b815260206004820152601860248201527f45434453413a20696e76616c6964207369676e617475726500000000000000006044820152606490fd5b60028103613dde5760405162461bcd60e51b815260206004820152601f60248201527f45434453413a20696e76616c6964207369676e6174757265206c656e677468006044820152606490fd5b600314613de757565b60405162461bcd60e51b815260206004820152602260248201527f45434453413a20696e76616c6964207369676e6174757265202773272076616c604482015261756560f01b6064820152608490fd5b906041815114600014613e6557613e61916020820151906060604084015193015160001a90613e6f565b9091565b5050600090600290565b9291907f7fffffffffffffffffffffffffffffff5d576e7357a4501ddfe92f46681b20a08311613ef25791608094939160ff602094604051948552168484015260408301526060820152600093849182805260015afa15613ee55781516001600160a01b03811615613edf579190565b50600190565b50604051903d90823e3d90fd5b50505050600090600390565b307f00000000000000000000000000000000000000000000000000000000000000006001600160a01b03161480613fff575b15613f59577f000000000000000000000000000000000000000000000000000000000000000090565b60405160208101907f8b73c3c69bb8fe3d512ecc4cf759cc79239f7b179b0ffacaa9a75d522b39400f82527f000000000000000000000000000000000000000000000000000000000000000060408201527f000000000000000000000000000000000000000000000000000000000000000060608201524660808201523060a082015260a0815260c081018181106001600160401b038211176113705760405251902090565b507f00000000000000000000000000000000000000000000000000000000000000004614613f30565b916001600160601b038116916103e883116140cd576040517f93c3d3c02f3e5b8ff28a98e2ff5dc3d9395f4f02af3a830c3789c8af254202539361406b82612d10565b6001600160a01b0392831680835260208084019283526000888152600882526040908190209451935160a01b6001600160a01b031916939095169290921790925582519182526001600160601b039390931692810192909252819081010390a2565b60405162461bcd60e51b815260206004820152601060248201526f0a4def2c2d8e8f240e8dede40d0d2ced60831b6044820152606490fd5b1561410c57565b60405162461bcd60e51b815260206004820152600e60248201526d139bdd08185d5d1a1bdc9a5e995960921b6044820152606490fdfea26469706673582212206db84deea244e4189fa5315bf8222d88272db134ccb1d8c1ff804df509b1c10664736f6c634300081400332f8788117e7eff1d82e926ec794901d17c78024a50270940304540a733656f0d",
  "linkReferences": {},
  "deployedLinkReferences": {}
}