{
  "_format": "hh-sol-artifact-1",
  "contractName": "StakingModule",
  "sourceName": "contracts/modules/StakingModule.sol",
  "abi": [
    {
      "inputs": [
        {
          "internalType": "address",
          "name": "_platformAddress",
          "type": "address"
        }
      ],
      "stateMutability": "nonpayable",
      "type": "constructor"
    },
    {
      "anonymous": false,
      "inputs": [
        {
          "indexed": true,
          "internalType": "uint256",
          "name": "poolId",
          "type": "uint256"
        }
      ],
      "name": "EmergencyWithdrawEnabled",
      "type": "event"
    },
    {
      "anonymous": false,
      "inputs": [
        {
          "indexed": true,
          "internalType": "uint256",
          "name": "poolId",
          "type": "uint256"
        },
        {
          "indexed": true,
          "internalType": "address",
          "name": "stakingToken",
          "type": "address"
        },
        {
          "indexed": true,
          "internalType": "address",
          "name": "rewardToken",
          "type": "address"
        },
        {
          "indexed": false,
          "internalType": "uint256",
          "name": "rewardRate",
          "type": "uint256"
        }
      ],
      "name": "PoolCreated",
      "type": "event"
    },
    {
      "anonymous": false,
      "inputs": [
        {
          "indexed": true,
          "internalType": "uint256",
          "name": "poolId",
          "type": "uint256"
        },
        {
          "indexed": false,
          "internalType": "uint256",
          "name": "newRewardRate",
          "type": "uint256"
        }
      ],
      "name": "PoolUpdated",
      "type": "event"
    },
    {
      "anonymous": false,
      "inputs": [
        {
          "indexed": true,
          "internalType": "uint256",
          "name": "poolId",
          "type": "uint256"
        },
        {
          "indexed": true,
          "internalType": "address",
          "name": "user",
          "type": "address"
        },
        {
          "indexed": false,
          "internalType": "uint256",
          "name": "amount",
          "type": "uint256"
        },
        {
          "indexed": false,
          "internalType": "uint256",
          "name": "timestamp",
          "type": "uint256"
        }
      ],
      "name": "RewardsClaimed",
      "type": "event"
    },
    {
      "anonymous": false,
      "inputs": [
        {
          "indexed": true,
          "internalType": "bytes32",
          "name": "role",
          "type": "bytes32"
        },
        {
          "indexed": true,
          "internalType": "bytes32",
          "name": "previousAdminRole",
          "type": "bytes32"
        },
        {
          "indexed": true,
          "internalType": "bytes32",
          "name": "newAdminRole",
          "type": "bytes32"
        }
      ],
      "name": "RoleAdminChanged",
      "type": "event"
    },
    {
      "anonymous": false,
      "inputs": [
        {
          "indexed": true,
          "internalType": "bytes32",
          "name": "role",
          "type": "bytes32"
        },
        {
          "indexed": true,
          "internalType": "address",
          "name": "account",
          "type": "address"
        },
        {
          "indexed": true,
          "internalType": "address",
          "name": "sender",
          "type": "address"
        }
      ],
      "name": "RoleGranted",
      "type": "event"
    },
    {
      "anonymous": false,
      "inputs": [
        {
          "indexed": true,
          "internalType": "bytes32",
          "name": "role",
          "type": "bytes32"
        },
        {
          "indexed": true,
          "internalType": "address",
          "name": "account",
          "type": "address"
        },
        {
          "indexed": true,
          "internalType": "address",
          "name": "sender",
          "type": "address"
        }
      ],
      "name": "RoleRevoked",
      "type": "event"
    },
    {
      "anonymous": false,
      "inputs": [
        {
          "indexed": true,
          "internalType": "uint256",
          "name": "poolId",
          "type": "uint256"
        },
        {
          "indexed": true,
          "internalType": "address",
          "name": "user",
          "type": "address"
        },
        {
          "indexed": false,
          "internalType": "uint256",
          "name": "amount",
          "type": "uint256"
        },
        {
          "indexed": false,
          "internalType": "uint256",
          "name": "timestamp",
          "type": "uint256"
        }
      ],
      "name": "Staked",
      "type": "event"
    },
    {
      "anonymous": false,
      "inputs": [
        {
          "indexed": true,
          "internalType": "uint256",
          "name": "poolId",
          "type": "uint256"
        },
        {
          "indexed": true,
          "internalType": "address",
          "name": "user",
          "type": "address"
        },
        {
          "indexed": false,
          "internalType": "uint256",
          "name": "amount",
          "type": "uint256"
        },
        {
          "indexed": false,
          "internalType": "uint256",
          "name": "timestamp",
          "type": "uint256"
        }
      ],
      "name": "Unstaked",
      "type": "event"
    },
    {
      "inputs": [],
      "name": "ADMIN_ROLE",
      "outputs": [
        {
          "internalType": "bytes32",
          "name": "",
          "type": "bytes32"
        }
      ],
      "stateMutability": "view",
      "type": "function"
    },
    {
      "inputs": [],
      "name": "DEFAULT_ADMIN_ROLE",
      "outputs": [
        {
          "internalType": "bytes32",
          "name": "",
          "type": "bytes32"
        }
      ],
      "stateMutability": "view",
      "type": "function"
    },
    {
      "inputs": [],
      "name": "OPERATOR_ROLE",
      "outputs": [
        {
          "internalType": "bytes32",
          "name": "",
          "type": "bytes32"
        }
      ],
      "stateMutability": "view",
      "type": "function"
    },
    {
      "inputs": [
        {
          "internalType": "uint256",
          "name": "poolId",
          "type": "uint256"
        }
      ],
      "name": "claimRewards",
      "outputs": [],
      "stateMutability": "nonpayable",
      "type": "function"
    },
    {
      "inputs": [
        {
          "internalType": "string",
          "name": "name",
          "type": "string"
        },
        {
          "internalType": "address",
          "name": "stakingToken",
          "type": "address"
        },
        {
          "internalType": "uint256",
          "name": "stakingTokenId",
          "type": "uint256"
        },
        {
          "internalType": "address",
          "name": "rewardToken",
          "type": "address"
        },
        {
          "internalType": "enum StakingModule.PoolType",
          "name": "poolType",
          "type": "uint8"
        },
        {
          "internalType": "enum StakingModule.RewardType",
          "name": "rewardType",
          "type": "uint8"
        },
        {
          "internalType": "uint256",
          "name": "rewardRate",
          "type": "uint256"
        },
        {
          "internalType": "uint256",
          "name": "lockPeriod",
          "type": "uint256"
        },
        {
          "internalType": "uint256",
          "name": "maxStake",
          "type": "uint256"
        },
        {
          "internalType": "uint256",
          "name": "minStake",
          "type": "uint256"
        },
        {
          "internalType": "uint256",
          "name": "duration",
          "type": "uint256"
        }
      ],
      "name": "createPool",
      "outputs": [
        {
          "internalType": "uint256",
          "name": "",
          "type": "uint256"
        }
      ],
      "stateMutability": "nonpayable",
      "type": "function"
    },
    {
      "inputs": [
        {
          "internalType": "uint256",
          "name": "poolId",
          "type": "uint256"
        }
      ],
      "name": "enableEmergencyWithdraw",
      "outputs": [],
      "stateMutability": "nonpayable",
      "type": "function"
    },
    {
      "inputs": [
        {
          "internalType": "uint256",
          "name": "poolId",
          "type": "uint256"
        },
        {
          "internalType": "address",
          "name": "user",
          "type": "address"
        }
      ],
      "name": "getPendingRewards",
      "outputs": [
        {
          "internalType": "uint256",
          "name": "",
          "type": "uint256"
        }
      ],
      "stateMutability": "view",
      "type": "function"
    },
    {
      "inputs": [
        {
          "internalType": "uint256",
          "name": "poolId",
          "type": "uint256"
        }
      ],
      "name": "getPoolInfo",
      "outputs": [
        {
          "components": [
            {
              "internalType": "uint256",
              "name": "poolId",
              "type": "uint256"
            },
            {
              "internalType": "string",
              "name": "name",
              "type": "string"
            },
            {
              "internalType": "address",
              "name": "stakingToken",
              "type": "address"
            },
            {
              "internalType": "uint256",
              "name": "stakingTokenId",
              "type": "uint256"
            },
            {
              "internalType": "address",
              "name": "rewardToken",
              "type": "address"
            },
            {
              "internalType": "enum StakingModule.PoolType",
              "name": "poolType",
              "type": "uint8"
            },
            {
              "internalType": "enum StakingModule.RewardType",
              "name": "rewardType",
              "type": "uint8"
            },
            {
              "internalType": "uint256",
              "name": "rewardRate",
              "type": "uint256"
            },
            {
              "internalType": "uint256",
              "name": "lockPeriod",
              "type": "uint256"
            },
            {
              "internalType": "uint256",
              "name": "totalStaked",
              "type": "uint256"
            },
            {
              "internalType": "uint256",
              "name": "maxStake",
              "type": "uint256"
            },
            {
              "internalType": "uint256",
              "name": "minStake",
              "type": "uint256"
            },
            {
              "internalType": "uint256",
              "name": "startTime",
              "type": "uint256"
            },
            {
              "internalType": "uint256",
              "name": "endTime",
              "type": "uint256"
            },
            {
              "internalType": "bool",
              "name": "active",
              "type": "bool"
            },
            {
              "internalType": "bool",
              "name": "emergencyWithdraw",
              "type": "bool"
            }
          ],
          "internalType": "struct StakingModule.StakingPool",
          "name": "",
          "type": "tuple"
        }
      ],
      "stateMutability": "view",
      "type": "function"
    },
    {
      "inputs": [
        {
          "internalType": "bytes32",
          "name": "role",
          "type": "bytes32"
        }
      ],
      "name": "getRoleAdmin",
      "outputs": [
        {
          "internalType": "bytes32",
          "name": "",
          "type": "bytes32"
        }
      ],
      "stateMutability": "view",
      "type": "function"
    },
    {
      "inputs": [
        {
          "internalType": "address",
          "name": "user",
          "type": "address"
        }
      ],
      "name": "getUserPools",
      "outputs": [
        {
          "internalType": "uint256[]",
          "name": "",
          "type": "uint256[]"
        }
      ],
      "stateMutability": "view",
      "type": "function"
    },
    {
      "inputs": [
        {
          "internalType": "uint256",
          "name": "poolId",
          "type": "uint256"
        },
        {
          "internalType": "address",
          "name": "user",
          "type": "address"
        }
      ],
      "name": "getUserStake",
      "outputs": [
        {
          "components": [
            {
              "internalType": "uint256",
              "name": "amount",
              "type": "uint256"
            },
            {
              "internalType": "uint256",
              "name": "stakedAt",
              "type": "uint256"
            },
            {
              "internalType": "uint256",
              "name": "lastClaimAt",
              "type": "uint256"
            },
            {
              "internalType": "uint256",
              "name": "totalRewardsClaimed",
              "type": "uint256"
            },
            {
              "internalType": "uint256",
              "name": "pendingRewards",
              "type": "uint256"
            }
          ],
          "internalType": "struct StakingModule.UserStake",
          "name": "",
          "type": "tuple"
        }
      ],
      "stateMutability": "view",
      "type": "function"
    },
    {
      "inputs": [
        {
          "internalType": "bytes32",
          "name": "role",
          "type": "bytes32"
        },
        {
          "internalType": "address",
          "name": "account",
          "type": "address"
        }
      ],
      "name": "grantRole",
      "outputs": [],
      "stateMutability": "nonpayable",
      "type": "function"
    },
    {
      "inputs": [
        {
          "internalType": "bytes32",
          "name": "role",
          "type": "bytes32"
        },
        {
          "internalType": "address",
          "name": "account",
          "type": "address"
        }
      ],
      "name": "hasRole",
      "outputs": [
        {
          "internalType": "bool",
          "name": "",
          "type": "bool"
        }
      ],
      "stateMutability": "view",
      "type": "function"
    },
    {
      "inputs": [],
      "name": "nextPoolId",
      "outputs": [
        {
          "internalType": "uint256",
          "name": "",
          "type": "uint256"
        }
      ],
      "stateMutability": "view",
      "type": "function"
    },
    {
      "inputs": [
        {
          "internalType": "address",
          "name": "",
          "type": "address"
        },
        {
          "internalType": "address",
          "name": "",
          "type": "address"
        },
        {
          "internalType": "uint256",
          "name": "",
          "type": "uint256"
        },
        {
          "internalType": "uint256",
          "name": "",
          "type": "uint256"
        },
        {
          "internalType": "bytes",
          "name": "",
          "type": "bytes"
        }
      ],
      "name": "onERC1155Received",
      "outputs": [
        {
          "internalType": "bytes4",
          "name": "",
          "type": "bytes4"
        }
      ],
      "stateMutability": "nonpayable",
      "type": "function"
    },
    {
      "inputs": [],
      "name": "platformAddress",
      "outputs": [
        {
          "internalType": "address",
          "name": "",
          "type": "address"
        }
      ],
      "stateMutability": "view",
      "type": "function"
    },
    {
      "inputs": [
        {
          "internalType": "bytes32",
          "name": "role",
          "type": "bytes32"
        },
        {
          "internalType": "address",
          "name": "account",
          "type": "address"
        }
      ],
      "name": "renounceRole",
      "outputs": [],
      "stateMutability": "nonpayable",
      "type": "function"
    },
    {
      "inputs": [
        {
          "internalType": "bytes32",
          "name": "role",
          "type": "bytes32"
        },
        {
          "internalType": "address",
          "name": "account",
          "type": "address"
        }
      ],
      "name": "revokeRole",
      "outputs": [],
      "stateMutability": "nonpayable",
      "type": "function"
    },
    {
      "inputs": [
        {
          "internalType": "uint256",
          "name": "period",
          "type": "uint256"
        },
        {
          "internalType": "uint256",
          "name": "multiplier",
          "type": "uint256"
        }
      ],
      "name": "setStakingMultiplier",
      "outputs": [],
      "stateMutability": "nonpayable",
      "type": "function"
    },
    {
      "inputs": [
        {
          "internalType": "uint256",
          "name": "poolId",
          "type": "uint256"
        },
        {
          "internalType": "uint256",
          "name": "amount",
          "type": "uint256"
        }
      ],
      "name": "stake",
      "outputs": [],
      "stateMutability": "nonpayable",
      "type": "function"
    },
    {
      "inputs": [
        {
          "internalType": "uint256",
          "name": "",
          "type": "uint256"
        }
      ],
      "name": "stakingMultipliers",
      "outputs": [
        {
          "internalType": "uint256",
          "name": "",
          "type": "uint256"
        }
      ],
      "stateMutability": "view",
      "type": "function"
    },
    {
      "inputs": [
        {
          "internalType": "uint256",
          "name": "",
          "type": "uint256"
        }
      ],
      "name": "stakingPools",
      "outputs": [
        {
          "internalType": "uint256",
          "name": "poolId",
          "type": "uint256"
        },
        {
          "internalType": "string",
          "name": "name",
          "type": "string"
        },
        {
          "internalType": "address",
          "name": "stakingToken",
          "type": "address"
        },
        {
          "internalType": "uint256",
          "name": "stakingTokenId",
          "type": "uint256"
        },
        {
          "internalType": "address",
          "name": "rewardToken",
          "type": "address"
        },
        {
          "internalType": "enum StakingModule.PoolType",
          "name": "poolType",
          "type": "uint8"
        },
        {
          "internalType": "enum StakingModule.RewardType",
          "name": "rewardType",
          "type": "uint8"
        },
        {
          "internalType": "uint256",
          "name": "rewardRate",
          "type": "uint256"
        },
        {
          "internalType": "uint256",
          "name": "lockPeriod",
          "type": "uint256"
        },
        {
          "internalType": "uint256",
          "name": "totalStaked",
          "type": "uint256"
        },
        {
          "internalType": "uint256",
          "name": "maxStake",
          "type": "uint256"
        },
        {
          "internalType": "uint256",
          "name": "minStake",
          "type": "uint256"
        },
        {
          "internalType": "uint256",
          "name": "startTime",
          "type": "uint256"
        },
        {
          "internalType": "uint256",
          "name": "endTime",
          "type": "uint256"
        },
        {
          "internalType": "bool",
          "name": "active",
          "type": "bool"
        },
        {
          "internalType": "bool",
          "name": "emergencyWithdraw",
          "type": "bool"
        }
      ],
      "stateMutability": "view",
      "type": "function"
    },
    {
      "inputs": [
        {
          "internalType": "bytes4",
          "name": "interfaceId",
          "type": "bytes4"
        }
      ],
      "name": "supportsInterface",
      "outputs": [
        {
          "internalType": "bool",
          "name": "",
          "type": "bool"
        }
      ],
      "stateMutability": "view",
      "type": "function"
    },
    {
      "inputs": [
        {
          "internalType": "uint256",
          "name": "poolId",
          "type": "uint256"
        }
      ],
      "name": "togglePool",
      "outputs": [],
      "stateMutability": "nonpayable",
      "type": "function"
    },
    {
      "inputs": [
        {
          "internalType": "uint256",
          "name": "poolId",
          "type": "uint256"
        },
        {
          "internalType": "uint256",
          "name": "amount",
          "type": "uint256"
        }
      ],
      "name": "unstake",
      "outputs": [],
      "stateMutability": "nonpayable",
      "type": "function"
    },
    {
      "inputs": [
        {
          "internalType": "uint256",
          "name": "poolId",
          "type": "uint256"
        },
        {
          "internalType": "uint256",
          "name": "newRewardRate",
          "type": "uint256"
        },
        {
          "internalType": "uint256",
          "name": "newEndTime",
          "type": "uint256"
        }
      ],
      "name": "updatePool",
      "outputs": [],
      "stateMutability": "nonpayable",
      "type": "function"
    },
    {
      "inputs": [
        {
          "internalType": "address",
          "name": "",
          "type": "address"
        },
        {
          "internalType": "uint256",
          "name": "",
          "type": "uint256"
        }
      ],
      "name": "userPoolIds",
      "outputs": [
        {
          "internalType": "uint256",
          "name": "",
          "type": "uint256"
        }
      ],
      "stateMutability": "view",
      "type": "function"
    },
    {
      "inputs": [
        {
          "internalType": "uint256",
          "name": "",
          "type": "uint256"
        },
        {
          "internalType": "address",
          "name": "",
          "type": "address"
        }
      ],
      "name": "userStakes",
      "outputs": [
        {
          "internalType": "uint256",
          "name": "amount",
          "type": "uint256"
        },
        {
          "internalType": "uint256",
          "name": "stakedAt",
          "type": "uint256"
        },
        {
          "internalType": "uint256",
          "name": "lastClaimAt",
          "type": "uint256"
        },
        {
          "internalType": "uint256",
          "name": "totalRewardsClaimed",
          "type": "uint256"
        },
        {
          "internalType": "uint256",
          "name": "pendingRewards",
          "type": "uint256"
        }
      ],
      "stateMutability": "view",
      "type": "function"
    }
  ],
  "bytecode": "0x6080346200025057601f620026ce38819003918201601f1916830192916001600160401b038411838510176200025557808392604095865283396020928391810103126200025057516001600160a01b038116919082900362000250576001918280558260055580156200020c579160078492614e2094600093848052848352858520338652835260ff868620541615620001d5575b7fa49807205ce4d355092ef5a8a18f56e8913cf4a201fbe287825b095693c21775808652858452868620338752845260ff8787205416156200019c575b507f97667070c54ef182b0f5858b034beac1b6f3089aa2d3188bb1e8929f4fa9b92990818652858452868620338752845260ff87872054161562000162575b505060018060a01b0319600654161760065562278d00835252612af8828220556276a70081526130d48282205562ed4e008152613a98828220556301e13380815220555161244290816200026c8239f35b81865285845286862033875284528686209060ff1982541617905533903390600080516020620026ae8339815191528780a4388062000111565b80865285845286862033875284528686208260ff1982541617905533903390600080516020620026ae8339815191528880a438620000d2565b84805284835285852033865283528585208160ff19825416179055333386600080516020620026ae8339815191528180a462000095565b835162461bcd60e51b815260048101839052601860248201527f496e76616c696420706c6174666f726d206164647265737300000000000000006044820152606490fd5b600080fd5b634e487b7160e01b600052604160045260246000fdfe608080604052600436101561001357600080fd5b600090813560e01c90816301ffc9a714611810575080630962ef79146117d857806318e56131146117ba5780631cb197151461177a578063248a9ca31461174e5780632f2ff15d146116a05780632f380b351461144157806336568abe146113ae5780635aad6cf01461128e57806370f6455214611264578063742a3d7a146111fa57806375b238fc146111bf5780637b0472f014610e3c57806385dc0aaf14610e0d5780638aabb08214610db75780638b7c048414610d575780638f2235f11461080957806391d14854146107be5780639626a230146106f95780639816af581461064b5780639e2c8a5b1461037c578063a217fddf14610360578063d547741f14610320578063d86c04441461029a578063dbe55e5614610271578063e8990524146101fe578063f23a6e61146101925763f5b541a61461015557600080fd5b3461018f578060031936011261018f5760206040517f97667070c54ef182b0f5858b034beac1b6f3089aa2d3188bb1e8929f4fa9b9298152f35b80fd5b503461018f5760a036600319011261018f576101ac61187b565b506101b5611865565b5060843567ffffffffffffffff81116101fa57366023820112156101fa576101e7903690602481600401359101611abe565b5060405163f23a6e6160e01b8152602090f35b5080fd5b503461018f57604036600319011261018f57604061021a611865565b9160043581526003602052209060018060a01b031660005260205260a06040600020805490600181015490600281015460046003830154920154926040519485526020850152604084015260608301526080820152f35b503461018f578060031936011261018f576006546040516001600160a01b039091168152602090f35b503461018f57606036600319011261018f576004357f7fa9647ec1cc14e3822b46d05a2b9d4e019bde8875c0088c46b6503d71bf172260206024356044356102e0611b05565b84865260028352604086206102fb60ff600c83015416611ff4565b826005820155428211610315575b5050604051908152a280f35b600b01553880610309565b503461018f57604036600319011261018f5761035d600435610340611865565b90808452836020526103586001604086200154611d20565b611e2a565b80f35b503461018f578060031936011261018f57602090604051908152f35b503461018f5761038b36611a7a565b90610394612088565b8083526020600281526040842060038252604085203360005282526040600020848154106106065790859160ff600c83015460081c16156105ae575b6103da33866120eb565b600481015461059f575b6103ef8682546120de565b9055600781016104008682546120de565b905560ff600482015460a01c16610416816118d9565b8015801561058c575b156104e257506002015460405163a9059cbb60e01b815233600482015260248101869052915082908290604490829089906001600160a01b03165af180156104d7576104729186916104aa575b5061204a565b60405192835242908301527fffdaf13b1d96bfc2213355f353f84c19493e0681eb0df26f83d862acd266750a60403393a36001805580f35b6104ca9150833d85116104d0575b6104c281836119b2565b810190612032565b3861046c565b503d6104b8565b6040513d87823e3d90fd5b806104ee6001926118d9565b146104fb575b5050610472565b6002810154600390910154906001600160a01b0316803b1561058857604051637921219560e11b815230600482015233602482015260448101929092526064820186905260a06084830152600060a48301528290829060c490829084905af1801561057d57156104f45761056e90611966565b6105795783386104f4565b8380fd5b6040513d84823e3d90fd5b8280fd5b50610596816118d9565b6002811461041f565b6105a933866121b6565b6103e4565b9091506105c46001820154600684015490611ec7565b42106105d2579085916103d0565b60405162461bcd60e51b815260048101849052600c60248201526b14dd1a5b1b081b1bd8dad95960a21b6044820152606490fd5b60405162461bcd60e51b815260048101849052601a60248201527f496e73756666696369656e74207374616b656420616d6f756e740000000000006044820152606490fd5b503461018f576020806003193601126101fa576001600160a01b0361066e61187b565b168252600481526040822060405192838383549182815201908193835284832090835b8181106106e557505050846106a79103856119b2565b60405193838594850191818652518092526040850193925b8281106106ce57505050500390f35b8351855286955093810193928101926001016106bf565b825484529286019260019283019201610691565b503461018f57604036600319011261018f576040610715611865565b9180608083516107248161197a565b8281528260208201528285820152826060820152015260043581526003602052209060018060a01b031660005260205260a060406000206040516107678161197a565b81549182825260018101546020830190815260028201549060408401918252608060046003850154946060870195865201549401938452604051948552516020850152516040840152516060830152516080820152f35b503461018f57604036600319011261018f5760406107da611865565b91600435815280602052209060018060a01b0316600052602052602060ff604060002054166040519015158152f35b503461018f5761016036600319011261018f5767ffffffffffffffff6004351161018f5736602360043501121561018f5767ffffffffffffffff600435600401351161018f573660246004356004013560043501011161018f5761086b611865565b606435906001600160a01b0382168203610d52576003608435101561058857600360a43510156105885761089d611b05565b6001600160a01b03811615610d15576001600160a01b03821615610cd95760c43515610c9e576101443515610c6657600554916000198314610c5257600183016005556108ed6101443542611ec7565b604051906108fa82611933565b8482526109133660043560040135602460043501611abe565b60208301526001600160a01b0384811660408401526044356060840152831660808301526109426084356118d9565b60843560a083015261095560a4356118d9565b60a43560c083015260c43560e083015260e435610100830152856101208301526101043561014083015261012435610160830152426101808301526101a082015260016101c0820152846101e08201528385526002602052604085208151815560208201519586519067ffffffffffffffff8211610c3e576109da60018401546118f9565b97601f8911610bf9575b602098508891601f8411600114610b8857926101e094928192600c9592610b7d575b50508160011b916000199060031b1c19161760018201555b60408401516002820180546001600160a01b0319166001600160a01b0392831617905560608501516003830155608085015160048301805460a088015191939192909116610a6b836118d9565b610a74836118d9565b60c0880151610a82816118d9565b610a8b816118d9565b60ff60a81b9060a81b169260ff60a01b9060a01b169169ffffffffffffffffffff60b01b16171717905560e084015160058201556101008401516006820155610120840151600782015561014084015160088201556101608401516009820155610180840151600a8201556101a0840151600b8201550191610b206101c08201511515849060ff801983541691151516179055565b0151815461ff00191690151560081b61ff001617905560405160c43581526001600160a01b03918216929091169083907ff756876565d755443228c555dcee8573d6405d9be751ac121eb5e386ed86913a908690a4604051908152f35b015190503880610a06565b9190600185018352898320925b601f1985168110610be25750926101e09492600192600c9583601f19811610610bc9575b505050811b016001820155610a1e565b015160001960f88460031b161c19169055388080610bb9565b91928a600181928685015181550194019201610b95565b60018401825260208220601f840160051c810160208510610c37575b601f8b0160051c82018110610c2b5750506109e4565b60008155600101610c15565b5080610c15565b634e487b7160e01b81526041600452602490fd5b634e487b7160e01b84526011600452602484fd5b60405162461bcd60e51b815260206004820152601060248201526f24b73b30b634b210323ab930ba34b7b760811b6044820152606490fd5b60405162461bcd60e51b8152602060048201526013602482015272496e76616c696420726577617264207261746560681b6044820152606490fd5b60405162461bcd60e51b815260206004820152601460248201527324b73b30b634b2103932bbb0b932103a37b5b2b760611b6044820152606490fd5b60405162461bcd60e51b815260206004820152601560248201527424b73b30b634b21039ba30b5b4b733903a37b5b2b760591b6044820152606490fd5b600080fd5b503461018f57602036600319011261018f57600435610d74611b05565b808252600260205260408220600c01805461ff0019166101001790557f25004abd8ec665bad2ee0fe374e3b11952166214e204b05d2ea4122417dc22048280a280f35b503461018f57604036600319011261018f57610dd161187b565b6001600160a01b031681526004602052604081208054602435929083101561018f576020610dff8484611a90565b90546040519160031b1c8152f35b503461018f57604036600319011261018f576020610e34610e2c611865565b60043561235c565b604051908152f35b503461018f57610e4b36611a7a565b90610e54612088565b80835260206002815260408420610e7160ff600c83015416611ff4565b600a810154421061118757600b81015442101561115557600981015484106111195782855260038252604085203386528252604085206008820154806110c7575b50610ebd33856120eb565b60ff600483015460a01c16610ed1816118d9565b801580156110b4575b15611023575060028201546040516323b872dd60e01b815233600482015230602482015260448101879052908490829060649082908b906001600160a01b03165af1801561101857610f32918891611001575061204a565b805415610f91575b9081610f498660079454611ec7565b905501610f57848254611ec7565b905560405192835242908301527f17700ceb1658b18206f427c1578048e87504106b14ec69e9b4586d9a95174a3260403393a36001805580f35b338652600483526040862080549068010000000000000000821015610fed5781610fc49160016007969594018155611a90565b81549060031b9087821b91600019901b1916179055426001820155426002820155909150610f3a565b634e487b7160e01b88526041600452602488fd5b6104ca9150853d87116104d0576104c281836119b2565b6040513d89823e3d90fd5b8061102f6001926118d9565b03610f325760018060a01b03600283015416866003840154823b156101fa57604051637921219560e11b815233600482015230602482015260448101919091526064810188905260a06084820152600060a482015291829060c490829084905af18015611018576110a1575b50610f32565b6110ad90969196611966565b943861109b565b506110be816118d9565b60028114610eda565b6110d5866007850154611ec7565b116110e05738610eb2565b60405162461bcd60e51b815260048101849052601160248201527045786365656473206d6178207374616b6560781b6044820152606490fd5b60405162461bcd60e51b8152600481018390526014602482015273416d6f756e742062656c6f77206d696e696d756d60601b6044820152606490fd5b60405162461bcd60e51b815260048101839052600a602482015269141bdbdb08195b99195960b21b6044820152606490fd5b60405162461bcd60e51b815260048101839052601060248201526f141bdbdb081b9bdd081cdd185c9d195960821b6044820152606490fd5b503461018f578060031936011261018f5760206040517fa49807205ce4d355092ef5a8a18f56e8913cf4a201fbe287825b095693c217758152f35b503461018f5761120936611a7a565b90611212611b05565b612710821061122a5782526007602052604082205580f35b60405162461bcd60e51b81526020600482015260126024820152714d756c7469706c69657220746f6f206c6f7760701b6044820152606490fd5b503461018f57602036600319011261018f5760406020916004358152600783522054604051908152f35b503461018f57602036600319011261018f57600435815260026020526040902080546112bc600183016119d4565b91600160a01b60019003600282015416906003810154906004810154600582015460068301546007840154600885015491600986015493600a87015495600b88015497600c0154986040519c8d9c8d528c6102006020819201528d01611321916118b4565b60408d019b909b5260608c01526001600160a01b03811660808c015260ff60a082901c1661134e816118d9565b60a08c015260a81c60ff16611362816118d9565b60c08b015260e08a01526101008901526101208801526101408701526101608601526101808501526101a084015260ff811615156101c084015260081c60ff1615156101e08301520390f35b503461018f57604036600319011261018f576113c8611865565b336001600160a01b038216036113e45761035d90600435611e2a565b60405162461bcd60e51b815260206004820152602f60248201527f416363657373436f6e74726f6c3a2063616e206f6e6c792072656e6f756e636560448201526e103937b632b9903337b91039b2b63360891b6064820152608490fd5b503461018f57602036600319011261018f57806040916101e0835161146581611933565b8281526060602082015282858201528260608201528260808201528260a08201528260c08201528260e08201528261010082015282610120820152826101408201528261016082015282610180820152826101a0820152826101c08201520152600435815260026020522060ff600c604051926114e184611933565b805484526114f1600182016119d4565b602085015260028101546001600160a01b0390811660408601526003820154606086015260048201549081166080860152839060a081901c8216611534816118d9565b60a087015260a81c16611546816118d9565b60c0850152600581015460e08501526006810154610100850152600781015461012085015260088101546101408501526009810154610160850152600a810154610180850152600b8101546101a0850152015481811615156101c084015260081c1615156101e0820152604051809160208252805160208301526101e06115de602083015161020060408601526102208501906118b4565b9160018060a01b0360408201511660608501526060810151608085015260018060a01b0360808201511660a085015260a081015161161b816118d9565b60c085015260c081015161162e816118d9565b60e085015260e08101516101008501526101008101516101208501526101208101516101408501526101408101516101608501526101608101516101808501526101808101516101a08501526101a08101516101c08501526101c0810151151582850152015115156102008301520390f35b503461018f57604036600319011261018f576004356116bd611865565b818352826020526116d46001604085200154611d20565b818352602083815260408085206001600160a01b039093168086529290915283205460ff1615611702578280f35b818352826020526040832081845260205260408320600160ff1982541617905533917f2f8788117e7eff1d82e926ec794901d17c78024a50270940304540a733656f0d8480a438808280f35b503461018f57602036600319011261018f57600160406020926004358152808452200154604051908152f35b503461018f57602036600319011261018f57611794611b05565b6004358152600260205260408120600c01805460ff818116151660ff1990911617905580f35b503461018f578060031936011261018f576020600554604051908152f35b503461018f57602036600319011261018f576118096004356117f8612088565b61180233826120eb565b33906121b6565b6001805580f35b9050346101fa5760203660031901126101fa5760043563ffffffff60e01b81168091036105885760209250637965db0b60e01b8114908115611854575b5015158152f35b6301ffc9a760e01b1490503861184d565b602435906001600160a01b0382168203610d5257565b600435906001600160a01b0382168203610d5257565b60005b8381106118a45750506000910152565b8181015183820152602001611894565b906020916118cd81518092818552858086019101611891565b601f01601f1916010190565b600311156118e357565b634e487b7160e01b600052602160045260246000fd5b90600182811c92168015611929575b602083101461191357565b634e487b7160e01b600052602260045260246000fd5b91607f1691611908565b610200810190811067ffffffffffffffff82111761195057604052565b634e487b7160e01b600052604160045260246000fd5b67ffffffffffffffff811161195057604052565b60a0810190811067ffffffffffffffff82111761195057604052565b6080810190811067ffffffffffffffff82111761195057604052565b90601f8019910116810190811067ffffffffffffffff82111761195057604052565b90604051918260008254926119e8846118f9565b908184526001948581169081600014611a575750600114611a14575b5050611a12925003836119b2565b565b9093915060005260209081600020936000915b818310611a3f575050611a1293508201013880611a04565b85548884018501529485019487945091830191611a27565b915050611a1294506020925060ff191682840152151560051b8201013880611a04565b6040906003190112610d52576004359060243590565b8054821015611aa85760005260206000200190600090565b634e487b7160e01b600052603260045260246000fd5b92919267ffffffffffffffff82116119505760405191611ae8601f8201601f1916602001846119b2565b829481845281830111610d52578281602093846000960137010152565b3360009081527f7d7ffb7a348e1c6a02869081a26547b49160dd3df72d1d75a570eb9b698292ec602090815260408083205490927fa49807205ce4d355092ef5a8a18f56e8913cf4a201fbe287825b095693c217759160ff1615611b695750505050565b611b7233611ee5565b91845190611b7f82611996565b60428252848201926060368537825115611d0c5760308453825190600191821015611d0c5790607860218501536041915b818311611c9e57505050611c5c576048611c58938693611c3c93611c2d985198899376020b1b1b2b9b9a1b7b73a3937b61d1030b1b1b7bab73a1604d1b8a860152611c04815180928c603789019101611891565b8401917001034b99036b4b9b9b4b733903937b6329607d1b603784015251809386840190611891565b010360288101875201856119b2565b5192839262461bcd60e51b8452600484015260248301906118b4565b0390fd5b60648486519062461bcd60e51b825280600483015260248201527f537472696e67733a20686578206c656e67746820696e73756666696369656e746044820152fd5b909192600f81166010811015611cf8576f181899199a1a9b1b9c1cb0b131b232b360811b901a611cce8587611ed4565b5360041c928015611ce457600019019190611bb0565b634e487b7160e01b82526011600452602482fd5b634e487b7160e01b83526032600452602483fd5b634e487b7160e01b81526032600452602490fd5b600090808252602090828252604092838120338252835260ff848220541615611d495750505050565b611d5233611ee5565b91845190611d5f82611996565b60428252848201926060368537825115611d0c5760308453825190600191821015611d0c5790607860218501536041915b818311611de457505050611c5c576048611c58938693611c3c93611c2d985198899376020b1b1b2b9b9a1b7b73a3937b61d1030b1b1b7bab73a1604d1b8a860152611c04815180928c603789019101611891565b909192600f81166010811015611cf8576f181899199a1a9b1b9c1cb0b131b232b360811b901a611e148587611ed4565b5360041c928015611ce457600019019190611d90565b9060009180835282602052604083209160018060a01b03169182845260205260ff604084205416611e5a57505050565b80835282602052604083208284526020526040832060ff1981541690557ff6391f5c32d9c69d2a47ea670b442974b53935d1edc7fd64eb21e047a839171b339380a4565b81810292918115918404141715611eb157565b634e487b7160e01b600052601160045260246000fd5b91908201809211611eb157565b908151811015611aa8570160200190565b604051906060820182811067ffffffffffffffff82111761195057604052602a8252602082016040368237825115611aa857603090538151600190811015611aa857607860218401536029905b808211611f86575050611f425790565b606460405162461bcd60e51b815260206004820152602060248201527f537472696e67733a20686578206c656e67746820696e73756666696369656e746044820152fd5b9091600f81166010811015611fdf576f181899199a1a9b1b9c1cb0b131b232b360811b901a611fb58486611ed4565b5360041c918015611fca576000190190611f32565b60246000634e487b7160e01b81526011600452fd5b60246000634e487b7160e01b81526032600452fd5b15611ffb57565b60405162461bcd60e51b815260206004820152600f60248201526e506f6f6c206e6f742061637469766560881b6044820152606490fd5b90816020910312610d5257518015158103610d525790565b1561205157565b60405162461bcd60e51b815260206004820152600f60248201526e151c985b9cd9995c8819985a5b1959608a1b6044820152606490fd5b600260015414612099576002600155565b60405162461bcd60e51b815260206004820152601f60248201527f5265656e7472616e637947756172643a207265656e7472616e742063616c6c006044820152606490fd5b91908203918211611eb157565b6000526002602052604060002090600360205260406000209060018060a01b031660005260205260406000209081549182156121b1574292600b8301548085116121a9575b5060028201926121418454866120de565b9182156121a157612191670de0b6b3a764000061217461219c9561216f612710956005600498015490611e9e565b611e9e565b0461218b61218660018801548a6120de565b6122fd565b90611e9e565b049201918254611ec7565b905555565b505050505050565b935038612130565b505050565b60008181526020906002825260409182822091600382528381209560018060a01b039384821697888452845285832091600483019081549687156122f05760048794600361224597898c97550161220e868254611ec7565b90550154169085895180968195829463a9059cbb60e01b84526004840160209093929193604081019460018060a01b031681520152565b03925af19182156122e557916122c8575b501561228c57825191825242908201527fcf409dbfc3ec40ef8f9752f4f34117a5e22dbbffe43e6da17365deae327c44ee9190a3565b60649083519062461bcd60e51b82526004820152601660248201527514995dd85c99081d1c985b9cd9995c8819985a5b195960521b6044820152fd5b6122df9150823d84116104d0576104c281836119b2565b38612256565b8551903d90823e3d90fd5b5050505050505050505050565b6301e1338080821015612349575062ed4e008082101561234957506276a70080821015612349575062278d0080911015612338575061271090565b600052600760205260406000205490565b9050600052600760205260406000205490565b6000526002602052604060002090600360205260406000209060018060a01b031660005260205260406000208054918215612402576127106123ec6123f594600493429186600b8301548085116123f8575b506123df61218b9361216f6121869460056123d66002670de0b6b3a76400009701548a6120de565b93015490611e9e565b04926001880154906120de565b04910154611ec7565b90565b93506123df6123ae565b506004915001549056fea264697066735822122067d7405093c46149044b4f07342dd9965bb5c49f705061e3b52ce5da56e70e4764736f6c634300081400332f8788117e7eff1d82e926ec794901d17c78024a50270940304540a733656f0d",
  "linkReferences": {},
  "deployedLinkReferences": {}
}